{
	"contracts/Require.sol": {
		"Require": {
			"abi": [
				{
					"inputs": [],
					"stateMutability": "nonpayable",
					"type": "constructor"
				},
				{
					"inputs": [
						{
							"internalType": "address payable",
							"name": "_to",
							"type": "address"
						}
					],
					"name": "destroyThis",
					"outputs": [],
					"stateMutability": "nonpayable",
					"type": "function"
				},
				{
					"inputs": [],
					"name": "getBalance",
					"outputs": [
						{
							"internalType": "uint256",
							"name": "",
							"type": "uint256"
						}
					],
					"stateMutability": "view",
					"type": "function"
				},
				{
					"inputs": [],
					"name": "paused",
					"outputs": [
						{
							"internalType": "bool",
							"name": "",
							"type": "bool"
						}
					],
					"stateMutability": "view",
					"type": "function"
				},
				{
					"inputs": [],
					"name": "receiveMoney",
					"outputs": [],
					"stateMutability": "payable",
					"type": "function"
				},
				{
					"inputs": [
						{
							"internalType": "address",
							"name": "",
							"type": "address"
						}
					],
					"name": "senderAddresses",
					"outputs": [
						{
							"internalType": "uint256",
							"name": "totalBalance",
							"type": "uint256"
						},
						{
							"internalType": "uint256",
							"name": "numPayments",
							"type": "uint256"
						}
					],
					"stateMutability": "view",
					"type": "function"
				},
				{
					"inputs": [
						{
							"internalType": "bool",
							"name": "_paused",
							"type": "bool"
						}
					],
					"name": "setPaused",
					"outputs": [],
					"stateMutability": "nonpayable",
					"type": "function"
				},
				{
					"inputs": [
						{
							"internalType": "uint64",
							"name": "amount",
							"type": "uint64"
						}
					],
					"name": "towei",
					"outputs": [
						{
							"internalType": "uint256",
							"name": "",
							"type": "uint256"
						}
					],
					"stateMutability": "pure",
					"type": "function"
				},
				{
					"inputs": [],
					"name": "withdraw",
					"outputs": [],
					"stateMutability": "nonpayable",
					"type": "function"
				},
				{
					"inputs": [
						{
							"internalType": "uint256",
							"name": "amount",
							"type": "uint256"
						}
					],
					"name": "withdrawAmount",
					"outputs": [],
					"stateMutability": "nonpayable",
					"type": "function"
				},
				{
					"inputs": [
						{
							"internalType": "address payable",
							"name": "to",
							"type": "address"
						}
					],
					"name": "withdrawToAnotherAddress",
					"outputs": [],
					"stateMutability": "nonpayable",
					"type": "function"
				},
				{
					"inputs": [
						{
							"internalType": "address payable",
							"name": "to",
							"type": "address"
						},
						{
							"internalType": "uint256",
							"name": "amount",
							"type": "uint256"
						}
					],
					"name": "withdrawToAnotherAddressWithAmount",
					"outputs": [],
					"stateMutability": "nonpayable",
					"type": "function"
				}
			],
			"devdoc": {
				"kind": "dev",
				"methods": {},
				"version": 1
			},
			"evm": {
				"assembly": "    /* \"contracts/Require.sol\":57:2635  contract Require{... */\n  mstore(0x40, 0x80)\n    /* \"contracts/Require.sol\":460:509  constructor() {... */\n  callvalue\n  dup1\n  iszero\n  tag_1\n  jumpi\n  0x00\n  dup1\n  revert\ntag_1:\n  pop\n    /* \"contracts/Require.sol\":492:502  msg.sender */\n  caller\n    /* \"contracts/Require.sol\":484:489  owner */\n  0x00\n  dup1\n    /* \"contracts/Require.sol\":484:502  owner = msg.sender */\n  0x0100\n  exp\n  dup2\n  sload\n  dup2\n  0xffffffffffffffffffffffffffffffffffffffff\n  mul\n  not\n  and\n  swap1\n  dup4\n  0xffffffffffffffffffffffffffffffffffffffff\n  and\n  mul\n  or\n  swap1\n  sstore\n  pop\n    /* \"contracts/Require.sol\":57:2635  contract Require{... */\n  dataSize(sub_0)\n  dup1\n  dataOffset(sub_0)\n  0x00\n  codecopy\n  0x00\n  return\nstop\n\nsub_0: assembly {\n        /* \"contracts/Require.sol\":57:2635  contract Require{... */\n      mstore(0x40, 0x80)\n      jumpi(tag_1, lt(calldatasize, 0x04))\n      shr(0xe0, calldataload(0x00))\n      dup1\n      0x55f18c68\n      gt\n      tag_13\n      jumpi\n      dup1\n      0x55f18c68\n      eq\n      tag_7\n      jumpi\n      dup1\n      0x59f7f068\n      eq\n      tag_8\n      jumpi\n      dup1\n      0x5c975abb\n      eq\n      tag_9\n      jumpi\n      dup1\n      0x6d26ec18\n      eq\n      tag_10\n      jumpi\n      dup1\n      0x71dd7158\n      eq\n      tag_11\n      jumpi\n      dup1\n      0xe434a871\n      eq\n      tag_12\n      jumpi\n      jump(tag_1)\n    tag_13:\n      dup1\n      0x0562b9f7\n      eq\n      tag_2\n      jumpi\n      dup1\n      0x12065fe0\n      eq\n      tag_3\n      jumpi\n      dup1\n      0x16c38b3c\n      eq\n      tag_4\n      jumpi\n      dup1\n      0x2e4a47e1\n      eq\n      tag_5\n      jumpi\n      dup1\n      0x3ccfd60b\n      eq\n      tag_6\n      jumpi\n    tag_1:\n      0x00\n      dup1\n      revert\n        /* \"contracts/Require.sol\":1499:1807  function withdrawAmount(uint amount) public{... */\n    tag_2:\n      callvalue\n      dup1\n      iszero\n      tag_14\n      jumpi\n      0x00\n      dup1\n      revert\n    tag_14:\n      pop\n      tag_15\n      0x04\n      dup1\n      calldatasize\n      sub\n      dup2\n      add\n      swap1\n      tag_16\n      swap2\n      swap1\n      tag_17\n      jump\t// in\n    tag_16:\n      tag_18\n      jump\t// in\n    tag_15:\n      stop\n        /* \"contracts/Require.sol\":1158:1250  function getBalance() public view returns(uint){... */\n    tag_3:\n      callvalue\n      dup1\n      iszero\n      tag_19\n      jumpi\n      0x00\n      dup1\n      revert\n    tag_19:\n      pop\n      tag_20\n      tag_21\n      jump\t// in\n    tag_20:\n      mload(0x40)\n      tag_22\n      swap2\n      swap1\n      tag_23\n      jump\t// in\n    tag_22:\n      mload(0x40)\n      dup1\n      swap2\n      sub\n      swap1\n      return\n        /* \"contracts/Require.sol\":1019:1152  function setPaused(bool _paused) public {... */\n    tag_4:\n      callvalue\n      dup1\n      iszero\n      tag_24\n      jumpi\n      0x00\n      dup1\n      revert\n    tag_24:\n      pop\n      tag_25\n      0x04\n      dup1\n      calldatasize\n      sub\n      dup2\n      add\n      swap1\n      tag_26\n      swap2\n      swap1\n      tag_27\n      jump\t// in\n    tag_26:\n      tag_28\n      jump\t// in\n    tag_25:\n      stop\n        /* \"contracts/Require.sol\":2178:2382  function withdrawToAnotherAddress(address payable to) public{... */\n    tag_5:\n      callvalue\n      dup1\n      iszero\n      tag_29\n      jumpi\n      0x00\n      dup1\n      revert\n    tag_29:\n      pop\n      tag_30\n      0x04\n      dup1\n      calldatasize\n      sub\n      dup2\n      add\n      swap1\n      tag_31\n      swap2\n      swap1\n      tag_32\n      jump\t// in\n    tag_31:\n      tag_33\n      jump\t// in\n    tag_30:\n      stop\n        /* \"contracts/Require.sol\":1256:1493  function withdraw() public{... */\n    tag_6:\n      callvalue\n      dup1\n      iszero\n      tag_34\n      jumpi\n      0x00\n      dup1\n      revert\n    tag_34:\n      pop\n      tag_35\n      tag_36\n      jump\t// in\n    tag_35:\n      stop\n        /* \"contracts/Require.sol\":403:453  mapping(address => Balance) public senderAddresses */\n    tag_7:\n      callvalue\n      dup1\n      iszero\n      tag_37\n      jumpi\n      0x00\n      dup1\n      revert\n    tag_37:\n      pop\n      tag_38\n      0x04\n      dup1\n      calldatasize\n      sub\n      dup2\n      add\n      swap1\n      tag_39\n      swap2\n      swap1\n      tag_40\n      jump\t// in\n    tag_39:\n      tag_41\n      jump\t// in\n    tag_38:\n      mload(0x40)\n      tag_42\n      swap3\n      swap2\n      swap1\n      tag_43\n      jump\t// in\n    tag_42:\n      mload(0x40)\n      dup1\n      swap2\n      sub\n      swap1\n      return\n        /* \"contracts/Require.sol\":2388:2532  function destroyThis (address payable _to) public {... */\n    tag_8:\n      callvalue\n      dup1\n      iszero\n      tag_44\n      jumpi\n      0x00\n      dup1\n      revert\n    tag_44:\n      pop\n      tag_45\n      0x04\n      dup1\n      calldatasize\n      sub\n      dup2\n      add\n      swap1\n      tag_46\n      swap2\n      swap1\n      tag_32\n      jump\t// in\n    tag_46:\n      tag_47\n      jump\t// in\n    tag_45:\n      stop\n        /* \"contracts/Require.sol\":379:397  bool public paused */\n    tag_9:\n      callvalue\n      dup1\n      iszero\n      tag_48\n      jumpi\n      0x00\n      dup1\n      revert\n    tag_48:\n      pop\n      tag_49\n      tag_50\n      jump\t// in\n    tag_49:\n      mload(0x40)\n      tag_51\n      swap2\n      swap1\n      tag_52\n      jump\t// in\n    tag_51:\n      mload(0x40)\n      dup1\n      swap2\n      sub\n      swap1\n      return\n        /* \"contracts/Require.sol\":520:1013  function receiveMoney() public payable{... */\n    tag_10:\n      tag_53\n      tag_54\n      jump\t// in\n    tag_53:\n      stop\n        /* \"contracts/Require.sol\":2538:2633  function towei(uint64 amount) public pure returns(uint){... */\n    tag_11:\n      callvalue\n      dup1\n      iszero\n      tag_55\n      jumpi\n      0x00\n      dup1\n      revert\n    tag_55:\n      pop\n      tag_56\n      0x04\n      dup1\n      calldatasize\n      sub\n      dup2\n      add\n      swap1\n      tag_57\n      swap2\n      swap1\n      tag_58\n      jump\t// in\n    tag_57:\n      tag_59\n      jump\t// in\n    tag_56:\n      mload(0x40)\n      tag_60\n      swap2\n      swap1\n      tag_23\n      jump\t// in\n    tag_60:\n      mload(0x40)\n      dup1\n      swap2\n      sub\n      swap1\n      return\n        /* \"contracts/Require.sol\":1813:2172  function withdrawToAnotherAddressWithAmount(address payable to , uint amount) public{... */\n    tag_12:\n      callvalue\n      dup1\n      iszero\n      tag_61\n      jumpi\n      0x00\n      dup1\n      revert\n    tag_61:\n      pop\n      tag_62\n      0x04\n      dup1\n      calldatasize\n      sub\n      dup2\n      add\n      swap1\n      tag_63\n      swap2\n      swap1\n      tag_64\n      jump\t// in\n    tag_63:\n      tag_65\n      jump\t// in\n    tag_62:\n      stop\n        /* \"contracts/Require.sol\":1499:1807  function withdrawAmount(uint amount) public{... */\n    tag_18:\n        /* \"contracts/Require.sol\":1561:1567  paused */\n      0x00\n      0x14\n      swap1\n      sload\n      swap1\n      0x0100\n      exp\n      swap1\n      div\n      0xff\n      and\n        /* \"contracts/Require.sol\":1560:1567  !paused */\n      iszero\n        /* \"contracts/Require.sol\":1552:1579  require(!paused , \"Paused\") */\n      tag_67\n      jumpi\n      mload(0x40)\n      0x08c379a000000000000000000000000000000000000000000000000000000000\n      dup2\n      mstore\n      0x04\n      add\n      tag_68\n      swap1\n      tag_69\n      jump\t// in\n    tag_68:\n      mload(0x40)\n      dup1\n      swap2\n      sub\n      swap1\n      revert\n    tag_67:\n        /* \"contracts/Require.sol\":1589:1607  address payable to */\n      0x00\n        /* \"contracts/Require.sol\":1618:1628  msg.sender */\n      caller\n        /* \"contracts/Require.sol\":1589:1629  address payable to = payable(msg.sender) */\n      swap1\n      pop\n        /* \"contracts/Require.sol\":1683:1689  amount */\n      dup2\n        /* \"contracts/Require.sol\":1647:1662  senderAddresses */\n      0x01\n        /* \"contracts/Require.sol\":1647:1666  senderAddresses[to] */\n      0x00\n        /* \"contracts/Require.sol\":1663:1665  to */\n      dup4\n        /* \"contracts/Require.sol\":1647:1666  senderAddresses[to] */\n      0xffffffffffffffffffffffffffffffffffffffff\n      and\n      0xffffffffffffffffffffffffffffffffffffffff\n      and\n      dup2\n      mstore\n      0x20\n      add\n      swap1\n      dup2\n      mstore\n      0x20\n      add\n      0x00\n      keccak256\n        /* \"contracts/Require.sol\":1647:1679  senderAddresses[to].totalBalance */\n      0x00\n      add\n      sload\n        /* \"contracts/Require.sol\":1647:1689  senderAddresses[to].totalBalance >= amount */\n      lt\n      iszero\n        /* \"contracts/Require.sol\":1639:1711  require(senderAddresses[to].totalBalance >= amount , \"Not Enough Funds\") */\n      tag_70\n      jumpi\n      mload(0x40)\n      0x08c379a000000000000000000000000000000000000000000000000000000000\n      dup2\n      mstore\n      0x04\n      add\n      tag_71\n      swap1\n      tag_72\n      jump\t// in\n    tag_71:\n      mload(0x40)\n      dup1\n      swap2\n      sub\n      swap1\n      revert\n    tag_70:\n        /* \"contracts/Require.sol\":1721:1723  to */\n      dup1\n        /* \"contracts/Require.sol\":1721:1732  to.transfer */\n      0xffffffffffffffffffffffffffffffffffffffff\n      and\n        /* \"contracts/Require.sol\":1721:1740  to.transfer(amount) */\n      0x08fc\n        /* \"contracts/Require.sol\":1733:1739  amount */\n      dup4\n        /* \"contracts/Require.sol\":1721:1740  to.transfer(amount) */\n      swap1\n      dup2\n      iszero\n      mul\n      swap1\n      mload(0x40)\n      0x00\n      mload(0x40)\n      dup1\n      dup4\n      sub\n      dup2\n      dup6\n      dup9\n      dup9\n      call\n      swap4\n      pop\n      pop\n      pop\n      pop\n      iszero\n      dup1\n      iszero\n      tag_74\n      jumpi\n      returndatasize\n      0x00\n      dup1\n      returndatacopy\n      revert(0x00, returndatasize)\n    tag_74:\n      pop\n        /* \"contracts/Require.sol\":1794:1800  amount */\n      dup2\n        /* \"contracts/Require.sol\":1750:1765  senderAddresses */\n      0x01\n        /* \"contracts/Require.sol\":1750:1777  senderAddresses[msg.sender] */\n      0x00\n        /* \"contracts/Require.sol\":1766:1776  msg.sender */\n      caller\n        /* \"contracts/Require.sol\":1750:1777  senderAddresses[msg.sender] */\n      0xffffffffffffffffffffffffffffffffffffffff\n      and\n      0xffffffffffffffffffffffffffffffffffffffff\n      and\n      dup2\n      mstore\n      0x20\n      add\n      swap1\n      dup2\n      mstore\n      0x20\n      add\n      0x00\n      keccak256\n        /* \"contracts/Require.sol\":1750:1790  senderAddresses[msg.sender].totalBalance */\n      0x00\n      add\n      0x00\n        /* \"contracts/Require.sol\":1750:1800  senderAddresses[msg.sender].totalBalance -= amount */\n      dup3\n      dup3\n      sload\n      tag_75\n      swap2\n      swap1\n      tag_76\n      jump\t// in\n    tag_75:\n      swap3\n      pop\n      pop\n      dup2\n      swap1\n      sstore\n      pop\n        /* \"contracts/Require.sol\":1542:1807  {... */\n      pop\n        /* \"contracts/Require.sol\":1499:1807  function withdrawAmount(uint amount) public{... */\n      pop\n      jump\t// out\n        /* \"contracts/Require.sol\":1158:1250  function getBalance() public view returns(uint){... */\n    tag_21:\n        /* \"contracts/Require.sol\":1200:1204  uint */\n      0x00\n        /* \"contracts/Require.sol\":1222:1243  address(this).balance */\n      selfbalance\n        /* \"contracts/Require.sol\":1215:1243  return address(this).balance */\n      swap1\n      pop\n        /* \"contracts/Require.sol\":1158:1250  function getBalance() public view returns(uint){... */\n      swap1\n      jump\t// out\n        /* \"contracts/Require.sol\":1019:1152  function setPaused(bool _paused) public {... */\n    tag_28:\n        /* \"contracts/Require.sol\":1086:1096  msg.sender */\n      caller\n        /* \"contracts/Require.sol\":1077:1096  owner == msg.sender */\n      0xffffffffffffffffffffffffffffffffffffffff\n      and\n        /* \"contracts/Require.sol\":1077:1082  owner */\n      0x00\n      dup1\n      sload\n      swap1\n      0x0100\n      exp\n      swap1\n      div\n      0xffffffffffffffffffffffffffffffffffffffff\n      and\n        /* \"contracts/Require.sol\":1077:1096  owner == msg.sender */\n      0xffffffffffffffffffffffffffffffffffffffff\n      and\n      eq\n        /* \"contracts/Require.sol\":1069:1119  require(owner == msg.sender , \"You Are Not Owner\") */\n      tag_79\n      jumpi\n      mload(0x40)\n      0x08c379a000000000000000000000000000000000000000000000000000000000\n      dup2\n      mstore\n      0x04\n      add\n      tag_80\n      swap1\n      tag_81\n      jump\t// in\n    tag_80:\n      mload(0x40)\n      dup1\n      swap2\n      sub\n      swap1\n      revert\n    tag_79:\n        /* \"contracts/Require.sol\":1138:1145  _paused */\n      dup1\n        /* \"contracts/Require.sol\":1129:1135  paused */\n      0x00\n      0x14\n        /* \"contracts/Require.sol\":1129:1145  paused = _paused */\n      0x0100\n      exp\n      dup2\n      sload\n      dup2\n      0xff\n      mul\n      not\n      and\n      swap1\n      dup4\n      iszero\n      iszero\n      mul\n      or\n      swap1\n      sstore\n      pop\n        /* \"contracts/Require.sol\":1019:1152  function setPaused(bool _paused) public {... */\n      pop\n      jump\t// out\n        /* \"contracts/Require.sol\":2178:2382  function withdrawToAnotherAddress(address payable to) public{... */\n    tag_33:\n        /* \"contracts/Require.sol\":2265:2275  msg.sender */\n      caller\n        /* \"contracts/Require.sol\":2256:2275  owner == msg.sender */\n      0xffffffffffffffffffffffffffffffffffffffff\n      and\n        /* \"contracts/Require.sol\":2256:2261  owner */\n      0x00\n      dup1\n      sload\n      swap1\n      0x0100\n      exp\n      swap1\n      div\n      0xffffffffffffffffffffffffffffffffffffffff\n      and\n        /* \"contracts/Require.sol\":2256:2275  owner == msg.sender */\n      0xffffffffffffffffffffffffffffffffffffffff\n      and\n      eq\n        /* \"contracts/Require.sol\":2248:2298  require(owner == msg.sender , \"You Are Not Owner\") */\n      tag_83\n      jumpi\n      mload(0x40)\n      0x08c379a000000000000000000000000000000000000000000000000000000000\n      dup2\n      mstore\n      0x04\n      add\n      tag_84\n      swap1\n      tag_81\n      jump\t// in\n    tag_84:\n      mload(0x40)\n      dup1\n      swap2\n      sub\n      swap1\n      revert\n    tag_83:\n        /* \"contracts/Require.sol\":2317:2323  paused */\n      0x00\n      0x14\n      swap1\n      sload\n      swap1\n      0x0100\n      exp\n      swap1\n      div\n      0xff\n      and\n        /* \"contracts/Require.sol\":2316:2323  !paused */\n      iszero\n        /* \"contracts/Require.sol\":2308:2335  require(!paused , \"Paused\") */\n      tag_85\n      jumpi\n      mload(0x40)\n      0x08c379a000000000000000000000000000000000000000000000000000000000\n      dup2\n      mstore\n      0x04\n      add\n      tag_86\n      swap1\n      tag_69\n      jump\t// in\n    tag_86:\n      mload(0x40)\n      dup1\n      swap2\n      sub\n      swap1\n      revert\n    tag_85:\n        /* \"contracts/Require.sol\":2345:2347  to */\n      dup1\n        /* \"contracts/Require.sol\":2345:2356  to.transfer */\n      0xffffffffffffffffffffffffffffffffffffffff\n      and\n        /* \"contracts/Require.sol\":2345:2375  to.transfer(this.getBalance()) */\n      0x08fc\n        /* \"contracts/Require.sol\":2357:2361  this */\n      address\n        /* \"contracts/Require.sol\":2357:2372  this.getBalance */\n      0xffffffffffffffffffffffffffffffffffffffff\n      and\n      0x12065fe0\n        /* \"contracts/Require.sol\":2357:2374  this.getBalance() */\n      mload(0x40)\n      dup2\n      0xffffffff\n      and\n      0xe0\n      shl\n      dup2\n      mstore\n      0x04\n      add\n      0x20\n      mload(0x40)\n      dup1\n      dup4\n      sub\n      dup2\n      dup7\n      gas\n      staticcall\n      iszero\n      dup1\n      iszero\n      tag_88\n      jumpi\n      returndatasize\n      0x00\n      dup1\n      returndatacopy\n      revert(0x00, returndatasize)\n    tag_88:\n      pop\n      pop\n      pop\n      pop\n      mload(0x40)\n      returndatasize\n      not(0x1f)\n      0x1f\n      dup3\n      add\n      and\n      dup3\n      add\n      dup1\n      0x40\n      mstore\n      pop\n      dup2\n      add\n      swap1\n      tag_89\n      swap2\n      swap1\n      tag_90\n      jump\t// in\n    tag_89:\n        /* \"contracts/Require.sol\":2345:2375  to.transfer(this.getBalance()) */\n      swap1\n      dup2\n      iszero\n      mul\n      swap1\n      mload(0x40)\n      0x00\n      mload(0x40)\n      dup1\n      dup4\n      sub\n      dup2\n      dup6\n      dup9\n      dup9\n      call\n      swap4\n      pop\n      pop\n      pop\n      pop\n      iszero\n      dup1\n      iszero\n      tag_92\n      jumpi\n      returndatasize\n      0x00\n      dup1\n      returndatacopy\n      revert(0x00, returndatasize)\n    tag_92:\n      pop\n        /* \"contracts/Require.sol\":2178:2382  function withdrawToAnotherAddress(address payable to) public{... */\n      pop\n      jump\t// out\n        /* \"contracts/Require.sol\":1256:1493  function withdraw() public{... */\n    tag_36:\n        /* \"contracts/Require.sol\":1301:1307  paused */\n      0x00\n      0x14\n      swap1\n      sload\n      swap1\n      0x0100\n      exp\n      swap1\n      div\n      0xff\n      and\n        /* \"contracts/Require.sol\":1300:1307  !paused */\n      iszero\n        /* \"contracts/Require.sol\":1292:1319  require(!paused , \"Paused\") */\n      tag_94\n      jumpi\n      mload(0x40)\n      0x08c379a000000000000000000000000000000000000000000000000000000000\n      dup2\n      mstore\n      0x04\n      add\n      tag_95\n      swap1\n      tag_69\n      jump\t// in\n    tag_95:\n      mload(0x40)\n      dup1\n      swap2\n      sub\n      swap1\n      revert\n    tag_94:\n        /* \"contracts/Require.sol\":1329:1347  address payable to */\n      0x00\n        /* \"contracts/Require.sol\":1358:1368  msg.sender */\n      caller\n        /* \"contracts/Require.sol\":1329:1369  address payable to = payable(msg.sender) */\n      swap1\n      pop\n        /* \"contracts/Require.sol\":1379:1381  to */\n      dup1\n        /* \"contracts/Require.sol\":1379:1390  to.transfer */\n      0xffffffffffffffffffffffffffffffffffffffff\n      and\n        /* \"contracts/Require.sol\":1379:1432  to.transfer(senderAddresses[msg.sender].totalBalance) */\n      0x08fc\n        /* \"contracts/Require.sol\":1391:1406  senderAddresses */\n      0x01\n        /* \"contracts/Require.sol\":1391:1418  senderAddresses[msg.sender] */\n      0x00\n        /* \"contracts/Require.sol\":1407:1417  msg.sender */\n      caller\n        /* \"contracts/Require.sol\":1391:1418  senderAddresses[msg.sender] */\n      0xffffffffffffffffffffffffffffffffffffffff\n      and\n      0xffffffffffffffffffffffffffffffffffffffff\n      and\n      dup2\n      mstore\n      0x20\n      add\n      swap1\n      dup2\n      mstore\n      0x20\n      add\n      0x00\n      keccak256\n        /* \"contracts/Require.sol\":1391:1431  senderAddresses[msg.sender].totalBalance */\n      0x00\n      add\n      sload\n        /* \"contracts/Require.sol\":1379:1432  to.transfer(senderAddresses[msg.sender].totalBalance) */\n      swap1\n      dup2\n      iszero\n      mul\n      swap1\n      mload(0x40)\n      0x00\n      mload(0x40)\n      dup1\n      dup4\n      sub\n      dup2\n      dup6\n      dup9\n      dup9\n      call\n      swap4\n      pop\n      pop\n      pop\n      pop\n      iszero\n      dup1\n      iszero\n      tag_97\n      jumpi\n      returndatasize\n      0x00\n      dup1\n      returndatacopy\n      revert(0x00, returndatasize)\n    tag_97:\n      pop\n        /* \"contracts/Require.sol\":1485:1486  0 */\n      0x00\n        /* \"contracts/Require.sol\":1442:1457  senderAddresses */\n      0x01\n        /* \"contracts/Require.sol\":1442:1469  senderAddresses[msg.sender] */\n      0x00\n        /* \"contracts/Require.sol\":1458:1468  msg.sender */\n      caller\n        /* \"contracts/Require.sol\":1442:1469  senderAddresses[msg.sender] */\n      0xffffffffffffffffffffffffffffffffffffffff\n      and\n      0xffffffffffffffffffffffffffffffffffffffff\n      and\n      dup2\n      mstore\n      0x20\n      add\n      swap1\n      dup2\n      mstore\n      0x20\n      add\n      0x00\n      keccak256\n        /* \"contracts/Require.sol\":1442:1482  senderAddresses[msg.sender].totalBalance */\n      0x00\n      add\n        /* \"contracts/Require.sol\":1442:1486  senderAddresses[msg.sender].totalBalance = 0 */\n      dup2\n      swap1\n      sstore\n      pop\n        /* \"contracts/Require.sol\":1282:1493  {... */\n      pop\n        /* \"contracts/Require.sol\":1256:1493  function withdraw() public{... */\n      jump\t// out\n        /* \"contracts/Require.sol\":403:453  mapping(address => Balance) public senderAddresses */\n    tag_41:\n      mstore(0x20, 0x01)\n      dup1\n      0x00\n      mstore\n      keccak256(0x00, 0x40)\n      0x00\n      swap2\n      pop\n      swap1\n      pop\n      dup1\n      0x00\n      add\n      sload\n      swap1\n      dup1\n      0x01\n      add\n      sload\n      swap1\n      pop\n      dup3\n      jump\t// out\n        /* \"contracts/Require.sol\":2388:2532  function destroyThis (address payable _to) public {... */\n    tag_47:\n        /* \"contracts/Require.sol\":2465:2475  msg.sender */\n      caller\n        /* \"contracts/Require.sol\":2456:2475  owner == msg.sender */\n      0xffffffffffffffffffffffffffffffffffffffff\n      and\n        /* \"contracts/Require.sol\":2456:2461  owner */\n      0x00\n      dup1\n      sload\n      swap1\n      0x0100\n      exp\n      swap1\n      div\n      0xffffffffffffffffffffffffffffffffffffffff\n      and\n        /* \"contracts/Require.sol\":2456:2475  owner == msg.sender */\n      0xffffffffffffffffffffffffffffffffffffffff\n      and\n      eq\n        /* \"contracts/Require.sol\":2448:2498  require(owner == msg.sender , \"You Are Not Owner\") */\n      tag_99\n      jumpi\n      mload(0x40)\n      0x08c379a000000000000000000000000000000000000000000000000000000000\n      dup2\n      mstore\n      0x04\n      add\n      tag_100\n      swap1\n      tag_81\n      jump\t// in\n    tag_100:\n      mload(0x40)\n      dup1\n      swap2\n      sub\n      swap1\n      revert\n    tag_99:\n        /* \"contracts/Require.sol\":2521:2524  _to */\n      dup1\n        /* \"contracts/Require.sol\":2508:2525  selfdestruct(_to) */\n      0xffffffffffffffffffffffffffffffffffffffff\n      and\n      selfdestruct\n        /* \"contracts/Require.sol\":379:397  bool public paused */\n    tag_50:\n      0x00\n      0x14\n      swap1\n      sload\n      swap1\n      0x0100\n      exp\n      swap1\n      div\n      0xff\n      and\n      dup2\n      jump\t// out\n        /* \"contracts/Require.sol\":520:1013  function receiveMoney() public payable{... */\n    tag_54:\n        /* \"contracts/Require.sol\":577:583  paused */\n      0x00\n      0x14\n      swap1\n      sload\n      swap1\n      0x0100\n      exp\n      swap1\n      div\n      0xff\n      and\n        /* \"contracts/Require.sol\":576:583  !paused */\n      iszero\n        /* \"contracts/Require.sol\":568:595  require(!paused , \"Paused\") */\n      tag_102\n      jumpi\n      mload(0x40)\n      0x08c379a000000000000000000000000000000000000000000000000000000000\n      dup2\n      mstore\n      0x04\n      add\n      tag_103\n      swap1\n      tag_69\n      jump\t// in\n    tag_103:\n      mload(0x40)\n      dup1\n      swap2\n      sub\n      swap1\n      revert\n    tag_102:\n        /* \"contracts/Require.sol\":676:691  senderAddresses */\n      0x01\n        /* \"contracts/Require.sol\":676:703  senderAddresses[msg.sender] */\n      0x00\n        /* \"contracts/Require.sol\":692:702  msg.sender */\n      caller\n        /* \"contracts/Require.sol\":676:703  senderAddresses[msg.sender] */\n      0xffffffffffffffffffffffffffffffffffffffff\n      and\n      0xffffffffffffffffffffffffffffffffffffffff\n      and\n      dup2\n      mstore\n      0x20\n      add\n      swap1\n      dup2\n      mstore\n      0x20\n      add\n      0x00\n      keccak256\n        /* \"contracts/Require.sol\":676:716  senderAddresses[msg.sender].totalBalance */\n      0x00\n      add\n      sload\n        /* \"contracts/Require.sol\":662:671  msg.value */\n      callvalue\n        /* \"contracts/Require.sol\":612:672  senderAddresses[msg.sender].totalBalance + uint64(msg.value) */\n      0xffffffffffffffff\n      and\n        /* \"contracts/Require.sol\":612:627  senderAddresses */\n      0x01\n        /* \"contracts/Require.sol\":612:639  senderAddresses[msg.sender] */\n      0x00\n        /* \"contracts/Require.sol\":628:638  msg.sender */\n      caller\n        /* \"contracts/Require.sol\":612:639  senderAddresses[msg.sender] */\n      0xffffffffffffffffffffffffffffffffffffffff\n      and\n      0xffffffffffffffffffffffffffffffffffffffff\n      and\n      dup2\n      mstore\n      0x20\n      add\n      swap1\n      dup2\n      mstore\n      0x20\n      add\n      0x00\n      keccak256\n        /* \"contracts/Require.sol\":612:652  senderAddresses[msg.sender].totalBalance */\n      0x00\n      add\n      sload\n        /* \"contracts/Require.sol\":612:672  senderAddresses[msg.sender].totalBalance + uint64(msg.value) */\n      tag_104\n      swap2\n      swap1\n      tag_105\n      jump\t// in\n    tag_104:\n        /* \"contracts/Require.sol\":612:716  senderAddresses[msg.sender].totalBalance + uint64(msg.value) >= senderAddresses[msg.sender].totalBalance */\n      lt\n      iszero\n        /* \"contracts/Require.sol\":605:717  assert(senderAddresses[msg.sender].totalBalance + uint64(msg.value) >= senderAddresses[msg.sender].totalBalance) */\n      tag_106\n      jumpi\n      tag_107\n      tag_108\n      jump\t// in\n    tag_107:\n    tag_106:\n        /* \"contracts/Require.sol\":778:787  msg.value */\n      callvalue\n        /* \"contracts/Require.sol\":727:788  senderAddresses[msg.sender].totalBalance += uint64(msg.value) */\n      0xffffffffffffffff\n      and\n        /* \"contracts/Require.sol\":727:742  senderAddresses */\n      0x01\n        /* \"contracts/Require.sol\":727:754  senderAddresses[msg.sender] */\n      0x00\n        /* \"contracts/Require.sol\":743:753  msg.sender */\n      caller\n        /* \"contracts/Require.sol\":727:754  senderAddresses[msg.sender] */\n      0xffffffffffffffffffffffffffffffffffffffff\n      and\n      0xffffffffffffffffffffffffffffffffffffffff\n      and\n      dup2\n      mstore\n      0x20\n      add\n      swap1\n      dup2\n      mstore\n      0x20\n      add\n      0x00\n      keccak256\n        /* \"contracts/Require.sol\":727:767  senderAddresses[msg.sender].totalBalance */\n      0x00\n      add\n      0x00\n        /* \"contracts/Require.sol\":727:788  senderAddresses[msg.sender].totalBalance += uint64(msg.value) */\n      dup3\n      dup3\n      sload\n      tag_109\n      swap2\n      swap1\n      tag_105\n      jump\t// in\n    tag_109:\n      swap3\n      pop\n      pop\n      dup2\n      swap1\n      sstore\n      pop\n        /* \"contracts/Require.sol\":798:820  Payment memory payment */\n      0x00\n        /* \"contracts/Require.sol\":824:858  Payment(msg.value,block.timestamp) */\n      mload(0x40)\n      dup1\n      0x40\n      add\n      0x40\n      mstore\n      dup1\n        /* \"contracts/Require.sol\":832:841  msg.value */\n      callvalue\n        /* \"contracts/Require.sol\":824:858  Payment(msg.value,block.timestamp) */\n      dup2\n      mstore\n      0x20\n      add\n        /* \"contracts/Require.sol\":842:857  block.timestamp */\n      timestamp\n        /* \"contracts/Require.sol\":824:858  Payment(msg.value,block.timestamp) */\n      dup2\n      mstore\n      pop\n        /* \"contracts/Require.sol\":798:858  Payment memory payment =  Payment(msg.value,block.timestamp) */\n      swap1\n      pop\n        /* \"contracts/Require.sol\":948:955  payment */\n      dup1\n        /* \"contracts/Require.sol\":868:883  senderAddresses */\n      0x01\n        /* \"contracts/Require.sol\":868:895  senderAddresses[msg.sender] */\n      0x00\n        /* \"contracts/Require.sol\":884:894  msg.sender */\n      caller\n        /* \"contracts/Require.sol\":868:895  senderAddresses[msg.sender] */\n      0xffffffffffffffffffffffffffffffffffffffff\n      and\n      0xffffffffffffffffffffffffffffffffffffffff\n      and\n      dup2\n      mstore\n      0x20\n      add\n      swap1\n      dup2\n      mstore\n      0x20\n      add\n      0x00\n      keccak256\n        /* \"contracts/Require.sol\":868:904  senderAddresses[msg.sender].payments */\n      0x02\n      add\n        /* \"contracts/Require.sol\":868:945  senderAddresses[msg.sender].payments[senderAddresses[msg.sender].numPayments] */\n      0x00\n        /* \"contracts/Require.sol\":905:920  senderAddresses */\n      0x01\n        /* \"contracts/Require.sol\":905:932  senderAddresses[msg.sender] */\n      0x00\n        /* \"contracts/Require.sol\":921:931  msg.sender */\n      caller\n        /* \"contracts/Require.sol\":905:932  senderAddresses[msg.sender] */\n      0xffffffffffffffffffffffffffffffffffffffff\n      and\n      0xffffffffffffffffffffffffffffffffffffffff\n      and\n      dup2\n      mstore\n      0x20\n      add\n      swap1\n      dup2\n      mstore\n      0x20\n      add\n      0x00\n      keccak256\n        /* \"contracts/Require.sol\":905:944  senderAddresses[msg.sender].numPayments */\n      0x01\n      add\n      sload\n        /* \"contracts/Require.sol\":868:945  senderAddresses[msg.sender].payments[senderAddresses[msg.sender].numPayments] */\n      dup2\n      mstore\n      0x20\n      add\n      swap1\n      dup2\n      mstore\n      0x20\n      add\n      0x00\n      keccak256\n        /* \"contracts/Require.sol\":868:955  senderAddresses[msg.sender].payments[senderAddresses[msg.sender].numPayments] = payment */\n      0x00\n      dup3\n      add\n      mload\n      dup2\n      0x00\n      add\n      sstore\n      0x20\n      dup3\n      add\n      mload\n      dup2\n      0x01\n      add\n      sstore\n      swap1\n      pop\n      pop\n        /* \"contracts/Require.sol\":965:980  senderAddresses */\n      0x01\n        /* \"contracts/Require.sol\":965:992  senderAddresses[msg.sender] */\n      0x00\n        /* \"contracts/Require.sol\":981:991  msg.sender */\n      caller\n        /* \"contracts/Require.sol\":965:992  senderAddresses[msg.sender] */\n      0xffffffffffffffffffffffffffffffffffffffff\n      and\n      0xffffffffffffffffffffffffffffffffffffffff\n      and\n      dup2\n      mstore\n      0x20\n      add\n      swap1\n      dup2\n      mstore\n      0x20\n      add\n      0x00\n      keccak256\n        /* \"contracts/Require.sol\":965:1004  senderAddresses[msg.sender].numPayments */\n      0x01\n      add\n      0x00\n        /* \"contracts/Require.sol\":965:1006  senderAddresses[msg.sender].numPayments++ */\n      dup2\n      sload\n      dup1\n      swap3\n      swap2\n      swap1\n      tag_110\n      swap1\n      tag_111\n      jump\t// in\n    tag_110:\n      swap2\n      swap1\n      pop\n      sstore\n      pop\n        /* \"contracts/Require.sol\":558:1013  {... */\n      pop\n        /* \"contracts/Require.sol\":520:1013  function receiveMoney() public payable{... */\n      jump\t// out\n        /* \"contracts/Require.sol\":2538:2633  function towei(uint64 amount) public pure returns(uint){... */\n    tag_59:\n        /* \"contracts/Require.sol\":2588:2592  uint */\n      0x00\n        /* \"contracts/Require.sol\":2619:2626  1 ether */\n      0x0de0b6b3a7640000\n        /* \"contracts/Require.sol\":2610:2616  amount */\n      dup3\n        /* \"contracts/Require.sol\":2610:2626  amount * 1 ether */\n      tag_113\n      swap2\n      swap1\n      tag_114\n      jump\t// in\n    tag_113:\n        /* \"contracts/Require.sol\":2603:2626  return amount * 1 ether */\n      0xffffffffffffffff\n      and\n      swap1\n      pop\n        /* \"contracts/Require.sol\":2538:2633  function towei(uint64 amount) public pure returns(uint){... */\n      swap2\n      swap1\n      pop\n      jump\t// out\n        /* \"contracts/Require.sol\":1813:2172  function withdrawToAnotherAddressWithAmount(address payable to , uint amount) public{... */\n    tag_65:\n        /* \"contracts/Require.sol\":1951:1957  amount */\n      dup1\n        /* \"contracts/Require.sol\":1915:1930  senderAddresses */\n      0x01\n        /* \"contracts/Require.sol\":1915:1934  senderAddresses[to] */\n      0x00\n        /* \"contracts/Require.sol\":1931:1933  to */\n      dup5\n        /* \"contracts/Require.sol\":1915:1934  senderAddresses[to] */\n      0xffffffffffffffffffffffffffffffffffffffff\n      and\n      0xffffffffffffffffffffffffffffffffffffffff\n      and\n      dup2\n      mstore\n      0x20\n      add\n      swap1\n      dup2\n      mstore\n      0x20\n      add\n      0x00\n      keccak256\n        /* \"contracts/Require.sol\":1915:1947  senderAddresses[to].totalBalance */\n      0x00\n      add\n      sload\n        /* \"contracts/Require.sol\":1915:1957  senderAddresses[to].totalBalance >= amount */\n      lt\n      iszero\n        /* \"contracts/Require.sol\":1907:1979  require(senderAddresses[to].totalBalance >= amount , \"Not Enough Funds\") */\n      tag_116\n      jumpi\n      mload(0x40)\n      0x08c379a000000000000000000000000000000000000000000000000000000000\n      dup2\n      mstore\n      0x04\n      add\n      tag_117\n      swap1\n      tag_72\n      jump\t// in\n    tag_117:\n      mload(0x40)\n      dup1\n      swap2\n      sub\n      swap1\n      revert\n    tag_116:\n        /* \"contracts/Require.sol\":2006:2016  msg.sender */\n      caller\n        /* \"contracts/Require.sol\":1997:2016  owner == msg.sender */\n      0xffffffffffffffffffffffffffffffffffffffff\n      and\n        /* \"contracts/Require.sol\":1997:2002  owner */\n      0x00\n      dup1\n      sload\n      swap1\n      0x0100\n      exp\n      swap1\n      div\n      0xffffffffffffffffffffffffffffffffffffffff\n      and\n        /* \"contracts/Require.sol\":1997:2016  owner == msg.sender */\n      0xffffffffffffffffffffffffffffffffffffffff\n      and\n      eq\n        /* \"contracts/Require.sol\":1989:2039  require(owner == msg.sender , \"You Are Not Owner\") */\n      tag_118\n      jumpi\n      mload(0x40)\n      0x08c379a000000000000000000000000000000000000000000000000000000000\n      dup2\n      mstore\n      0x04\n      add\n      tag_119\n      swap1\n      tag_81\n      jump\t// in\n    tag_119:\n      mload(0x40)\n      dup1\n      swap2\n      sub\n      swap1\n      revert\n    tag_118:\n        /* \"contracts/Require.sol\":2058:2064  paused */\n      0x00\n      0x14\n      swap1\n      sload\n      swap1\n      0x0100\n      exp\n      swap1\n      div\n      0xff\n      and\n        /* \"contracts/Require.sol\":2057:2064  !paused */\n      iszero\n        /* \"contracts/Require.sol\":2049:2076  require(!paused , \"Paused\") */\n      tag_120\n      jumpi\n      mload(0x40)\n      0x08c379a000000000000000000000000000000000000000000000000000000000\n      dup2\n      mstore\n      0x04\n      add\n      tag_121\n      swap1\n      tag_69\n      jump\t// in\n    tag_121:\n      mload(0x40)\n      dup1\n      swap2\n      sub\n      swap1\n      revert\n    tag_120:\n        /* \"contracts/Require.sol\":2086:2088  to */\n      dup2\n        /* \"contracts/Require.sol\":2086:2097  to.transfer */\n      0xffffffffffffffffffffffffffffffffffffffff\n      and\n        /* \"contracts/Require.sol\":2086:2105  to.transfer(amount) */\n      0x08fc\n        /* \"contracts/Require.sol\":2098:2104  amount */\n      dup3\n        /* \"contracts/Require.sol\":2086:2105  to.transfer(amount) */\n      swap1\n      dup2\n      iszero\n      mul\n      swap1\n      mload(0x40)\n      0x00\n      mload(0x40)\n      dup1\n      dup4\n      sub\n      dup2\n      dup6\n      dup9\n      dup9\n      call\n      swap4\n      pop\n      pop\n      pop\n      pop\n      iszero\n      dup1\n      iszero\n      tag_123\n      jumpi\n      returndatasize\n      0x00\n      dup1\n      returndatacopy\n      revert(0x00, returndatasize)\n    tag_123:\n      pop\n        /* \"contracts/Require.sol\":2159:2165  amount */\n      dup1\n        /* \"contracts/Require.sol\":2115:2130  senderAddresses */\n      0x01\n        /* \"contracts/Require.sol\":2115:2142  senderAddresses[msg.sender] */\n      0x00\n        /* \"contracts/Require.sol\":2131:2141  msg.sender */\n      caller\n        /* \"contracts/Require.sol\":2115:2142  senderAddresses[msg.sender] */\n      0xffffffffffffffffffffffffffffffffffffffff\n      and\n      0xffffffffffffffffffffffffffffffffffffffff\n      and\n      dup2\n      mstore\n      0x20\n      add\n      swap1\n      dup2\n      mstore\n      0x20\n      add\n      0x00\n      keccak256\n        /* \"contracts/Require.sol\":2115:2155  senderAddresses[msg.sender].totalBalance */\n      0x00\n      add\n      0x00\n        /* \"contracts/Require.sol\":2115:2165  senderAddresses[msg.sender].totalBalance -= amount */\n      dup3\n      dup3\n      sload\n      tag_124\n      swap2\n      swap1\n      tag_76\n      jump\t// in\n    tag_124:\n      swap3\n      pop\n      pop\n      dup2\n      swap1\n      sstore\n      pop\n        /* \"contracts/Require.sol\":1813:2172  function withdrawToAnotherAddressWithAmount(address payable to , uint amount) public{... */\n      pop\n      pop\n      jump\t// out\n        /* \"#utility.yul\":88:205   */\n    tag_126:\n        /* \"#utility.yul\":197:198   */\n      0x00\n        /* \"#utility.yul\":194:195   */\n      dup1\n        /* \"#utility.yul\":187:199   */\n      revert\n        /* \"#utility.yul\":334:411   */\n    tag_128:\n        /* \"#utility.yul\":371:378   */\n      0x00\n        /* \"#utility.yul\":400:405   */\n      dup2\n        /* \"#utility.yul\":389:405   */\n      swap1\n      pop\n        /* \"#utility.yul\":334:411   */\n      swap2\n      swap1\n      pop\n      jump\t// out\n        /* \"#utility.yul\":417:539   */\n    tag_129:\n        /* \"#utility.yul\":490:514   */\n      tag_161\n        /* \"#utility.yul\":508:513   */\n      dup2\n        /* \"#utility.yul\":490:514   */\n      tag_128\n      jump\t// in\n    tag_161:\n        /* \"#utility.yul\":483:488   */\n      dup2\n        /* \"#utility.yul\":480:515   */\n      eq\n        /* \"#utility.yul\":470:533   */\n      tag_162\n      jumpi\n        /* \"#utility.yul\":529:530   */\n      0x00\n        /* \"#utility.yul\":526:527   */\n      dup1\n        /* \"#utility.yul\":519:531   */\n      revert\n        /* \"#utility.yul\":470:533   */\n    tag_162:\n        /* \"#utility.yul\":417:539   */\n      pop\n      jump\t// out\n        /* \"#utility.yul\":545:684   */\n    tag_130:\n        /* \"#utility.yul\":591:596   */\n      0x00\n        /* \"#utility.yul\":629:635   */\n      dup2\n        /* \"#utility.yul\":616:636   */\n      calldataload\n        /* \"#utility.yul\":607:636   */\n      swap1\n      pop\n        /* \"#utility.yul\":645:678   */\n      tag_164\n        /* \"#utility.yul\":672:677   */\n      dup2\n        /* \"#utility.yul\":645:678   */\n      tag_129\n      jump\t// in\n    tag_164:\n        /* \"#utility.yul\":545:684   */\n      swap3\n      swap2\n      pop\n      pop\n      jump\t// out\n        /* \"#utility.yul\":690:1019   */\n    tag_17:\n        /* \"#utility.yul\":749:755   */\n      0x00\n        /* \"#utility.yul\":798:800   */\n      0x20\n        /* \"#utility.yul\":786:795   */\n      dup3\n        /* \"#utility.yul\":777:784   */\n      dup5\n        /* \"#utility.yul\":773:796   */\n      sub\n        /* \"#utility.yul\":769:801   */\n      slt\n        /* \"#utility.yul\":766:885   */\n      iszero\n      tag_166\n      jumpi\n        /* \"#utility.yul\":804:883   */\n      tag_167\n      tag_126\n      jump\t// in\n    tag_167:\n        /* \"#utility.yul\":766:885   */\n    tag_166:\n        /* \"#utility.yul\":924:925   */\n      0x00\n        /* \"#utility.yul\":949:1002   */\n      tag_168\n        /* \"#utility.yul\":994:1001   */\n      dup5\n        /* \"#utility.yul\":985:991   */\n      dup3\n        /* \"#utility.yul\":974:983   */\n      dup6\n        /* \"#utility.yul\":970:992   */\n      add\n        /* \"#utility.yul\":949:1002   */\n      tag_130\n      jump\t// in\n    tag_168:\n        /* \"#utility.yul\":939:1002   */\n      swap2\n      pop\n        /* \"#utility.yul\":895:1012   */\n      pop\n        /* \"#utility.yul\":690:1019   */\n      swap3\n      swap2\n      pop\n      pop\n      jump\t// out\n        /* \"#utility.yul\":1025:1143   */\n    tag_131:\n        /* \"#utility.yul\":1112:1136   */\n      tag_170\n        /* \"#utility.yul\":1130:1135   */\n      dup2\n        /* \"#utility.yul\":1112:1136   */\n      tag_128\n      jump\t// in\n    tag_170:\n        /* \"#utility.yul\":1107:1110   */\n      dup3\n        /* \"#utility.yul\":1100:1137   */\n      mstore\n        /* \"#utility.yul\":1025:1143   */\n      pop\n      pop\n      jump\t// out\n        /* \"#utility.yul\":1149:1371   */\n    tag_23:\n        /* \"#utility.yul\":1242:1246   */\n      0x00\n        /* \"#utility.yul\":1280:1282   */\n      0x20\n        /* \"#utility.yul\":1269:1278   */\n      dup3\n        /* \"#utility.yul\":1265:1283   */\n      add\n        /* \"#utility.yul\":1257:1283   */\n      swap1\n      pop\n        /* \"#utility.yul\":1293:1364   */\n      tag_172\n        /* \"#utility.yul\":1361:1362   */\n      0x00\n        /* \"#utility.yul\":1350:1359   */\n      dup4\n        /* \"#utility.yul\":1346:1363   */\n      add\n        /* \"#utility.yul\":1337:1343   */\n      dup5\n        /* \"#utility.yul\":1293:1364   */\n      tag_131\n      jump\t// in\n    tag_172:\n        /* \"#utility.yul\":1149:1371   */\n      swap3\n      swap2\n      pop\n      pop\n      jump\t// out\n        /* \"#utility.yul\":1377:1467   */\n    tag_132:\n        /* \"#utility.yul\":1411:1418   */\n      0x00\n        /* \"#utility.yul\":1454:1459   */\n      dup2\n        /* \"#utility.yul\":1447:1460   */\n      iszero\n        /* \"#utility.yul\":1440:1461   */\n      iszero\n        /* \"#utility.yul\":1429:1461   */\n      swap1\n      pop\n        /* \"#utility.yul\":1377:1467   */\n      swap2\n      swap1\n      pop\n      jump\t// out\n        /* \"#utility.yul\":1473:1589   */\n    tag_133:\n        /* \"#utility.yul\":1543:1564   */\n      tag_175\n        /* \"#utility.yul\":1558:1563   */\n      dup2\n        /* \"#utility.yul\":1543:1564   */\n      tag_132\n      jump\t// in\n    tag_175:\n        /* \"#utility.yul\":1536:1541   */\n      dup2\n        /* \"#utility.yul\":1533:1565   */\n      eq\n        /* \"#utility.yul\":1523:1583   */\n      tag_176\n      jumpi\n        /* \"#utility.yul\":1579:1580   */\n      0x00\n        /* \"#utility.yul\":1576:1577   */\n      dup1\n        /* \"#utility.yul\":1569:1581   */\n      revert\n        /* \"#utility.yul\":1523:1583   */\n    tag_176:\n        /* \"#utility.yul\":1473:1589   */\n      pop\n      jump\t// out\n        /* \"#utility.yul\":1595:1728   */\n    tag_134:\n        /* \"#utility.yul\":1638:1643   */\n      0x00\n        /* \"#utility.yul\":1676:1682   */\n      dup2\n        /* \"#utility.yul\":1663:1683   */\n      calldataload\n        /* \"#utility.yul\":1654:1683   */\n      swap1\n      pop\n        /* \"#utility.yul\":1692:1722   */\n      tag_178\n        /* \"#utility.yul\":1716:1721   */\n      dup2\n        /* \"#utility.yul\":1692:1722   */\n      tag_133\n      jump\t// in\n    tag_178:\n        /* \"#utility.yul\":1595:1728   */\n      swap3\n      swap2\n      pop\n      pop\n      jump\t// out\n        /* \"#utility.yul\":1734:2057   */\n    tag_27:\n        /* \"#utility.yul\":1790:1796   */\n      0x00\n        /* \"#utility.yul\":1839:1841   */\n      0x20\n        /* \"#utility.yul\":1827:1836   */\n      dup3\n        /* \"#utility.yul\":1818:1825   */\n      dup5\n        /* \"#utility.yul\":1814:1837   */\n      sub\n        /* \"#utility.yul\":1810:1842   */\n      slt\n        /* \"#utility.yul\":1807:1926   */\n      iszero\n      tag_180\n      jumpi\n        /* \"#utility.yul\":1845:1924   */\n      tag_181\n      tag_126\n      jump\t// in\n    tag_181:\n        /* \"#utility.yul\":1807:1926   */\n    tag_180:\n        /* \"#utility.yul\":1965:1966   */\n      0x00\n        /* \"#utility.yul\":1990:2040   */\n      tag_182\n        /* \"#utility.yul\":2032:2039   */\n      dup5\n        /* \"#utility.yul\":2023:2029   */\n      dup3\n        /* \"#utility.yul\":2012:2021   */\n      dup6\n        /* \"#utility.yul\":2008:2030   */\n      add\n        /* \"#utility.yul\":1990:2040   */\n      tag_134\n      jump\t// in\n    tag_182:\n        /* \"#utility.yul\":1980:2040   */\n      swap2\n      pop\n        /* \"#utility.yul\":1936:2050   */\n      pop\n        /* \"#utility.yul\":1734:2057   */\n      swap3\n      swap2\n      pop\n      pop\n      jump\t// out\n        /* \"#utility.yul\":2063:2189   */\n    tag_135:\n        /* \"#utility.yul\":2100:2107   */\n      0x00\n        /* \"#utility.yul\":2140:2182   */\n      0xffffffffffffffffffffffffffffffffffffffff\n        /* \"#utility.yul\":2133:2138   */\n      dup3\n        /* \"#utility.yul\":2129:2183   */\n      and\n        /* \"#utility.yul\":2118:2183   */\n      swap1\n      pop\n        /* \"#utility.yul\":2063:2189   */\n      swap2\n      swap1\n      pop\n      jump\t// out\n        /* \"#utility.yul\":2195:2299   */\n    tag_136:\n        /* \"#utility.yul\":2240:2247   */\n      0x00\n        /* \"#utility.yul\":2269:2293   */\n      tag_185\n        /* \"#utility.yul\":2287:2292   */\n      dup3\n        /* \"#utility.yul\":2269:2293   */\n      tag_135\n      jump\t// in\n    tag_185:\n        /* \"#utility.yul\":2258:2293   */\n      swap1\n      pop\n        /* \"#utility.yul\":2195:2299   */\n      swap2\n      swap1\n      pop\n      jump\t// out\n        /* \"#utility.yul\":2305:2443   */\n    tag_137:\n        /* \"#utility.yul\":2386:2418   */\n      tag_187\n        /* \"#utility.yul\":2412:2417   */\n      dup2\n        /* \"#utility.yul\":2386:2418   */\n      tag_136\n      jump\t// in\n    tag_187:\n        /* \"#utility.yul\":2379:2384   */\n      dup2\n        /* \"#utility.yul\":2376:2419   */\n      eq\n        /* \"#utility.yul\":2366:2437   */\n      tag_188\n      jumpi\n        /* \"#utility.yul\":2433:2434   */\n      0x00\n        /* \"#utility.yul\":2430:2431   */\n      dup1\n        /* \"#utility.yul\":2423:2435   */\n      revert\n        /* \"#utility.yul\":2366:2437   */\n    tag_188:\n        /* \"#utility.yul\":2305:2443   */\n      pop\n      jump\t// out\n        /* \"#utility.yul\":2449:2604   */\n    tag_138:\n        /* \"#utility.yul\":2503:2508   */\n      0x00\n        /* \"#utility.yul\":2541:2547   */\n      dup2\n        /* \"#utility.yul\":2528:2548   */\n      calldataload\n        /* \"#utility.yul\":2519:2548   */\n      swap1\n      pop\n        /* \"#utility.yul\":2557:2598   */\n      tag_190\n        /* \"#utility.yul\":2592:2597   */\n      dup2\n        /* \"#utility.yul\":2557:2598   */\n      tag_137\n      jump\t// in\n    tag_190:\n        /* \"#utility.yul\":2449:2604   */\n      swap3\n      swap2\n      pop\n      pop\n      jump\t// out\n        /* \"#utility.yul\":2610:2955   */\n    tag_32:\n        /* \"#utility.yul\":2677:2683   */\n      0x00\n        /* \"#utility.yul\":2726:2728   */\n      0x20\n        /* \"#utility.yul\":2714:2723   */\n      dup3\n        /* \"#utility.yul\":2705:2712   */\n      dup5\n        /* \"#utility.yul\":2701:2724   */\n      sub\n        /* \"#utility.yul\":2697:2729   */\n      slt\n        /* \"#utility.yul\":2694:2813   */\n      iszero\n      tag_192\n      jumpi\n        /* \"#utility.yul\":2732:2811   */\n      tag_193\n      tag_126\n      jump\t// in\n    tag_193:\n        /* \"#utility.yul\":2694:2813   */\n    tag_192:\n        /* \"#utility.yul\":2852:2853   */\n      0x00\n        /* \"#utility.yul\":2877:2938   */\n      tag_194\n        /* \"#utility.yul\":2930:2937   */\n      dup5\n        /* \"#utility.yul\":2921:2927   */\n      dup3\n        /* \"#utility.yul\":2910:2919   */\n      dup6\n        /* \"#utility.yul\":2906:2928   */\n      add\n        /* \"#utility.yul\":2877:2938   */\n      tag_138\n      jump\t// in\n    tag_194:\n        /* \"#utility.yul\":2867:2938   */\n      swap2\n      pop\n        /* \"#utility.yul\":2823:2948   */\n      pop\n        /* \"#utility.yul\":2610:2955   */\n      swap3\n      swap2\n      pop\n      pop\n      jump\t// out\n        /* \"#utility.yul\":2961:3057   */\n    tag_139:\n        /* \"#utility.yul\":2998:3005   */\n      0x00\n        /* \"#utility.yul\":3027:3051   */\n      tag_196\n        /* \"#utility.yul\":3045:3050   */\n      dup3\n        /* \"#utility.yul\":3027:3051   */\n      tag_135\n      jump\t// in\n    tag_196:\n        /* \"#utility.yul\":3016:3051   */\n      swap1\n      pop\n        /* \"#utility.yul\":2961:3057   */\n      swap2\n      swap1\n      pop\n      jump\t// out\n        /* \"#utility.yul\":3063:3185   */\n    tag_140:\n        /* \"#utility.yul\":3136:3160   */\n      tag_198\n        /* \"#utility.yul\":3154:3159   */\n      dup2\n        /* \"#utility.yul\":3136:3160   */\n      tag_139\n      jump\t// in\n    tag_198:\n        /* \"#utility.yul\":3129:3134   */\n      dup2\n        /* \"#utility.yul\":3126:3161   */\n      eq\n        /* \"#utility.yul\":3116:3179   */\n      tag_199\n      jumpi\n        /* \"#utility.yul\":3175:3176   */\n      0x00\n        /* \"#utility.yul\":3172:3173   */\n      dup1\n        /* \"#utility.yul\":3165:3177   */\n      revert\n        /* \"#utility.yul\":3116:3179   */\n    tag_199:\n        /* \"#utility.yul\":3063:3185   */\n      pop\n      jump\t// out\n        /* \"#utility.yul\":3191:3330   */\n    tag_141:\n        /* \"#utility.yul\":3237:3242   */\n      0x00\n        /* \"#utility.yul\":3275:3281   */\n      dup2\n        /* \"#utility.yul\":3262:3282   */\n      calldataload\n        /* \"#utility.yul\":3253:3282   */\n      swap1\n      pop\n        /* \"#utility.yul\":3291:3324   */\n      tag_201\n        /* \"#utility.yul\":3318:3323   */\n      dup2\n        /* \"#utility.yul\":3291:3324   */\n      tag_140\n      jump\t// in\n    tag_201:\n        /* \"#utility.yul\":3191:3330   */\n      swap3\n      swap2\n      pop\n      pop\n      jump\t// out\n        /* \"#utility.yul\":3336:3665   */\n    tag_40:\n        /* \"#utility.yul\":3395:3401   */\n      0x00\n        /* \"#utility.yul\":3444:3446   */\n      0x20\n        /* \"#utility.yul\":3432:3441   */\n      dup3\n        /* \"#utility.yul\":3423:3430   */\n      dup5\n        /* \"#utility.yul\":3419:3442   */\n      sub\n        /* \"#utility.yul\":3415:3447   */\n      slt\n        /* \"#utility.yul\":3412:3531   */\n      iszero\n      tag_203\n      jumpi\n        /* \"#utility.yul\":3450:3529   */\n      tag_204\n      tag_126\n      jump\t// in\n    tag_204:\n        /* \"#utility.yul\":3412:3531   */\n    tag_203:\n        /* \"#utility.yul\":3570:3571   */\n      0x00\n        /* \"#utility.yul\":3595:3648   */\n      tag_205\n        /* \"#utility.yul\":3640:3647   */\n      dup5\n        /* \"#utility.yul\":3631:3637   */\n      dup3\n        /* \"#utility.yul\":3620:3629   */\n      dup6\n        /* \"#utility.yul\":3616:3638   */\n      add\n        /* \"#utility.yul\":3595:3648   */\n      tag_141\n      jump\t// in\n    tag_205:\n        /* \"#utility.yul\":3585:3648   */\n      swap2\n      pop\n        /* \"#utility.yul\":3541:3658   */\n      pop\n        /* \"#utility.yul\":3336:3665   */\n      swap3\n      swap2\n      pop\n      pop\n      jump\t// out\n        /* \"#utility.yul\":3671:4003   */\n    tag_43:\n        /* \"#utility.yul\":3792:3796   */\n      0x00\n        /* \"#utility.yul\":3830:3832   */\n      0x40\n        /* \"#utility.yul\":3819:3828   */\n      dup3\n        /* \"#utility.yul\":3815:3833   */\n      add\n        /* \"#utility.yul\":3807:3833   */\n      swap1\n      pop\n        /* \"#utility.yul\":3843:3914   */\n      tag_207\n        /* \"#utility.yul\":3911:3912   */\n      0x00\n        /* \"#utility.yul\":3900:3909   */\n      dup4\n        /* \"#utility.yul\":3896:3913   */\n      add\n        /* \"#utility.yul\":3887:3893   */\n      dup6\n        /* \"#utility.yul\":3843:3914   */\n      tag_131\n      jump\t// in\n    tag_207:\n        /* \"#utility.yul\":3924:3996   */\n      tag_208\n        /* \"#utility.yul\":3992:3994   */\n      0x20\n        /* \"#utility.yul\":3981:3990   */\n      dup4\n        /* \"#utility.yul\":3977:3995   */\n      add\n        /* \"#utility.yul\":3968:3974   */\n      dup5\n        /* \"#utility.yul\":3924:3996   */\n      tag_131\n      jump\t// in\n    tag_208:\n        /* \"#utility.yul\":3671:4003   */\n      swap4\n      swap3\n      pop\n      pop\n      pop\n      jump\t// out\n        /* \"#utility.yul\":4009:4118   */\n    tag_142:\n        /* \"#utility.yul\":4090:4111   */\n      tag_210\n        /* \"#utility.yul\":4105:4110   */\n      dup2\n        /* \"#utility.yul\":4090:4111   */\n      tag_132\n      jump\t// in\n    tag_210:\n        /* \"#utility.yul\":4085:4088   */\n      dup3\n        /* \"#utility.yul\":4078:4112   */\n      mstore\n        /* \"#utility.yul\":4009:4118   */\n      pop\n      pop\n      jump\t// out\n        /* \"#utility.yul\":4124:4334   */\n    tag_52:\n        /* \"#utility.yul\":4211:4215   */\n      0x00\n        /* \"#utility.yul\":4249:4251   */\n      0x20\n        /* \"#utility.yul\":4238:4247   */\n      dup3\n        /* \"#utility.yul\":4234:4252   */\n      add\n        /* \"#utility.yul\":4226:4252   */\n      swap1\n      pop\n        /* \"#utility.yul\":4262:4327   */\n      tag_212\n        /* \"#utility.yul\":4324:4325   */\n      0x00\n        /* \"#utility.yul\":4313:4322   */\n      dup4\n        /* \"#utility.yul\":4309:4326   */\n      add\n        /* \"#utility.yul\":4300:4306   */\n      dup5\n        /* \"#utility.yul\":4262:4327   */\n      tag_142\n      jump\t// in\n    tag_212:\n        /* \"#utility.yul\":4124:4334   */\n      swap3\n      swap2\n      pop\n      pop\n      jump\t// out\n        /* \"#utility.yul\":4340:4441   */\n    tag_143:\n        /* \"#utility.yul\":4376:4383   */\n      0x00\n        /* \"#utility.yul\":4416:4434   */\n      0xffffffffffffffff\n        /* \"#utility.yul\":4409:4414   */\n      dup3\n        /* \"#utility.yul\":4405:4435   */\n      and\n        /* \"#utility.yul\":4394:4435   */\n      swap1\n      pop\n        /* \"#utility.yul\":4340:4441   */\n      swap2\n      swap1\n      pop\n      jump\t// out\n        /* \"#utility.yul\":4447:4567   */\n    tag_144:\n        /* \"#utility.yul\":4519:4542   */\n      tag_215\n        /* \"#utility.yul\":4536:4541   */\n      dup2\n        /* \"#utility.yul\":4519:4542   */\n      tag_143\n      jump\t// in\n    tag_215:\n        /* \"#utility.yul\":4512:4517   */\n      dup2\n        /* \"#utility.yul\":4509:4543   */\n      eq\n        /* \"#utility.yul\":4499:4561   */\n      tag_216\n      jumpi\n        /* \"#utility.yul\":4557:4558   */\n      0x00\n        /* \"#utility.yul\":4554:4555   */\n      dup1\n        /* \"#utility.yul\":4547:4559   */\n      revert\n        /* \"#utility.yul\":4499:4561   */\n    tag_216:\n        /* \"#utility.yul\":4447:4567   */\n      pop\n      jump\t// out\n        /* \"#utility.yul\":4573:4710   */\n    tag_145:\n        /* \"#utility.yul\":4618:4623   */\n      0x00\n        /* \"#utility.yul\":4656:4662   */\n      dup2\n        /* \"#utility.yul\":4643:4663   */\n      calldataload\n        /* \"#utility.yul\":4634:4663   */\n      swap1\n      pop\n        /* \"#utility.yul\":4672:4704   */\n      tag_218\n        /* \"#utility.yul\":4698:4703   */\n      dup2\n        /* \"#utility.yul\":4672:4704   */\n      tag_144\n      jump\t// in\n    tag_218:\n        /* \"#utility.yul\":4573:4710   */\n      swap3\n      swap2\n      pop\n      pop\n      jump\t// out\n        /* \"#utility.yul\":4716:5043   */\n    tag_58:\n        /* \"#utility.yul\":4774:4780   */\n      0x00\n        /* \"#utility.yul\":4823:4825   */\n      0x20\n        /* \"#utility.yul\":4811:4820   */\n      dup3\n        /* \"#utility.yul\":4802:4809   */\n      dup5\n        /* \"#utility.yul\":4798:4821   */\n      sub\n        /* \"#utility.yul\":4794:4826   */\n      slt\n        /* \"#utility.yul\":4791:4910   */\n      iszero\n      tag_220\n      jumpi\n        /* \"#utility.yul\":4829:4908   */\n      tag_221\n      tag_126\n      jump\t// in\n    tag_221:\n        /* \"#utility.yul\":4791:4910   */\n    tag_220:\n        /* \"#utility.yul\":4949:4950   */\n      0x00\n        /* \"#utility.yul\":4974:5026   */\n      tag_222\n        /* \"#utility.yul\":5018:5025   */\n      dup5\n        /* \"#utility.yul\":5009:5015   */\n      dup3\n        /* \"#utility.yul\":4998:5007   */\n      dup6\n        /* \"#utility.yul\":4994:5016   */\n      add\n        /* \"#utility.yul\":4974:5026   */\n      tag_145\n      jump\t// in\n    tag_222:\n        /* \"#utility.yul\":4964:5026   */\n      swap2\n      pop\n        /* \"#utility.yul\":4920:5036   */\n      pop\n        /* \"#utility.yul\":4716:5043   */\n      swap3\n      swap2\n      pop\n      pop\n      jump\t// out\n        /* \"#utility.yul\":5049:5539   */\n    tag_64:\n        /* \"#utility.yul\":5125:5131   */\n      0x00\n        /* \"#utility.yul\":5133:5139   */\n      dup1\n        /* \"#utility.yul\":5182:5184   */\n      0x40\n        /* \"#utility.yul\":5170:5179   */\n      dup4\n        /* \"#utility.yul\":5161:5168   */\n      dup6\n        /* \"#utility.yul\":5157:5180   */\n      sub\n        /* \"#utility.yul\":5153:5185   */\n      slt\n        /* \"#utility.yul\":5150:5269   */\n      iszero\n      tag_224\n      jumpi\n        /* \"#utility.yul\":5188:5267   */\n      tag_225\n      tag_126\n      jump\t// in\n    tag_225:\n        /* \"#utility.yul\":5150:5269   */\n    tag_224:\n        /* \"#utility.yul\":5308:5309   */\n      0x00\n        /* \"#utility.yul\":5333:5394   */\n      tag_226\n        /* \"#utility.yul\":5386:5393   */\n      dup6\n        /* \"#utility.yul\":5377:5383   */\n      dup3\n        /* \"#utility.yul\":5366:5375   */\n      dup7\n        /* \"#utility.yul\":5362:5384   */\n      add\n        /* \"#utility.yul\":5333:5394   */\n      tag_138\n      jump\t// in\n    tag_226:\n        /* \"#utility.yul\":5323:5394   */\n      swap3\n      pop\n        /* \"#utility.yul\":5279:5404   */\n      pop\n        /* \"#utility.yul\":5443:5445   */\n      0x20\n        /* \"#utility.yul\":5469:5522   */\n      tag_227\n        /* \"#utility.yul\":5514:5521   */\n      dup6\n        /* \"#utility.yul\":5505:5511   */\n      dup3\n        /* \"#utility.yul\":5494:5503   */\n      dup7\n        /* \"#utility.yul\":5490:5512   */\n      add\n        /* \"#utility.yul\":5469:5522   */\n      tag_130\n      jump\t// in\n    tag_227:\n        /* \"#utility.yul\":5459:5522   */\n      swap2\n      pop\n        /* \"#utility.yul\":5414:5532   */\n      pop\n        /* \"#utility.yul\":5049:5539   */\n      swap3\n      pop\n      swap3\n      swap1\n      pop\n      jump\t// out\n        /* \"#utility.yul\":5545:5714   */\n    tag_146:\n        /* \"#utility.yul\":5629:5640   */\n      0x00\n        /* \"#utility.yul\":5663:5669   */\n      dup3\n        /* \"#utility.yul\":5658:5661   */\n      dup3\n        /* \"#utility.yul\":5651:5670   */\n      mstore\n        /* \"#utility.yul\":5703:5707   */\n      0x20\n        /* \"#utility.yul\":5698:5701   */\n      dup3\n        /* \"#utility.yul\":5694:5708   */\n      add\n        /* \"#utility.yul\":5679:5708   */\n      swap1\n      pop\n        /* \"#utility.yul\":5545:5714   */\n      swap3\n      swap2\n      pop\n      pop\n      jump\t// out\n        /* \"#utility.yul\":5720:5876   */\n    tag_147:\n        /* \"#utility.yul\":5860:5868   */\n      0x5061757365640000000000000000000000000000000000000000000000000000\n        /* \"#utility.yul\":5856:5857   */\n      0x00\n        /* \"#utility.yul\":5848:5854   */\n      dup3\n        /* \"#utility.yul\":5844:5858   */\n      add\n        /* \"#utility.yul\":5837:5869   */\n      mstore\n        /* \"#utility.yul\":5720:5876   */\n      pop\n      jump\t// out\n        /* \"#utility.yul\":5882:6247   */\n    tag_148:\n        /* \"#utility.yul\":6024:6027   */\n      0x00\n        /* \"#utility.yul\":6045:6111   */\n      tag_231\n        /* \"#utility.yul\":6109:6110   */\n      0x06\n        /* \"#utility.yul\":6104:6107   */\n      dup4\n        /* \"#utility.yul\":6045:6111   */\n      tag_146\n      jump\t// in\n    tag_231:\n        /* \"#utility.yul\":6038:6111   */\n      swap2\n      pop\n        /* \"#utility.yul\":6120:6213   */\n      tag_232\n        /* \"#utility.yul\":6209:6212   */\n      dup3\n        /* \"#utility.yul\":6120:6213   */\n      tag_147\n      jump\t// in\n    tag_232:\n        /* \"#utility.yul\":6238:6240   */\n      0x20\n        /* \"#utility.yul\":6233:6236   */\n      dup3\n        /* \"#utility.yul\":6229:6241   */\n      add\n        /* \"#utility.yul\":6222:6241   */\n      swap1\n      pop\n        /* \"#utility.yul\":5882:6247   */\n      swap2\n      swap1\n      pop\n      jump\t// out\n        /* \"#utility.yul\":6253:6672   */\n    tag_69:\n        /* \"#utility.yul\":6419:6423   */\n      0x00\n        /* \"#utility.yul\":6457:6459   */\n      0x20\n        /* \"#utility.yul\":6446:6455   */\n      dup3\n        /* \"#utility.yul\":6442:6460   */\n      add\n        /* \"#utility.yul\":6434:6460   */\n      swap1\n      pop\n        /* \"#utility.yul\":6506:6515   */\n      dup2\n        /* \"#utility.yul\":6500:6504   */\n      dup2\n        /* \"#utility.yul\":6496:6516   */\n      sub\n        /* \"#utility.yul\":6492:6493   */\n      0x00\n        /* \"#utility.yul\":6481:6490   */\n      dup4\n        /* \"#utility.yul\":6477:6494   */\n      add\n        /* \"#utility.yul\":6470:6517   */\n      mstore\n        /* \"#utility.yul\":6534:6665   */\n      tag_234\n        /* \"#utility.yul\":6660:6664   */\n      dup2\n        /* \"#utility.yul\":6534:6665   */\n      tag_148\n      jump\t// in\n    tag_234:\n        /* \"#utility.yul\":6526:6665   */\n      swap1\n      pop\n        /* \"#utility.yul\":6253:6672   */\n      swap2\n      swap1\n      pop\n      jump\t// out\n        /* \"#utility.yul\":6678:6844   */\n    tag_149:\n        /* \"#utility.yul\":6818:6836   */\n      0x4e6f7420456e6f7567682046756e647300000000000000000000000000000000\n        /* \"#utility.yul\":6814:6815   */\n      0x00\n        /* \"#utility.yul\":6806:6812   */\n      dup3\n        /* \"#utility.yul\":6802:6816   */\n      add\n        /* \"#utility.yul\":6795:6837   */\n      mstore\n        /* \"#utility.yul\":6678:6844   */\n      pop\n      jump\t// out\n        /* \"#utility.yul\":6850:7216   */\n    tag_150:\n        /* \"#utility.yul\":6992:6995   */\n      0x00\n        /* \"#utility.yul\":7013:7080   */\n      tag_237\n        /* \"#utility.yul\":7077:7079   */\n      0x10\n        /* \"#utility.yul\":7072:7075   */\n      dup4\n        /* \"#utility.yul\":7013:7080   */\n      tag_146\n      jump\t// in\n    tag_237:\n        /* \"#utility.yul\":7006:7080   */\n      swap2\n      pop\n        /* \"#utility.yul\":7089:7182   */\n      tag_238\n        /* \"#utility.yul\":7178:7181   */\n      dup3\n        /* \"#utility.yul\":7089:7182   */\n      tag_149\n      jump\t// in\n    tag_238:\n        /* \"#utility.yul\":7207:7209   */\n      0x20\n        /* \"#utility.yul\":7202:7205   */\n      dup3\n        /* \"#utility.yul\":7198:7210   */\n      add\n        /* \"#utility.yul\":7191:7210   */\n      swap1\n      pop\n        /* \"#utility.yul\":6850:7216   */\n      swap2\n      swap1\n      pop\n      jump\t// out\n        /* \"#utility.yul\":7222:7641   */\n    tag_72:\n        /* \"#utility.yul\":7388:7392   */\n      0x00\n        /* \"#utility.yul\":7426:7428   */\n      0x20\n        /* \"#utility.yul\":7415:7424   */\n      dup3\n        /* \"#utility.yul\":7411:7429   */\n      add\n        /* \"#utility.yul\":7403:7429   */\n      swap1\n      pop\n        /* \"#utility.yul\":7475:7484   */\n      dup2\n        /* \"#utility.yul\":7469:7473   */\n      dup2\n        /* \"#utility.yul\":7465:7485   */\n      sub\n        /* \"#utility.yul\":7461:7462   */\n      0x00\n        /* \"#utility.yul\":7450:7459   */\n      dup4\n        /* \"#utility.yul\":7446:7463   */\n      add\n        /* \"#utility.yul\":7439:7486   */\n      mstore\n        /* \"#utility.yul\":7503:7634   */\n      tag_240\n        /* \"#utility.yul\":7629:7633   */\n      dup2\n        /* \"#utility.yul\":7503:7634   */\n      tag_150\n      jump\t// in\n    tag_240:\n        /* \"#utility.yul\":7495:7634   */\n      swap1\n      pop\n        /* \"#utility.yul\":7222:7641   */\n      swap2\n      swap1\n      pop\n      jump\t// out\n        /* \"#utility.yul\":7647:7827   */\n    tag_151:\n        /* \"#utility.yul\":7695:7772   */\n      0x4e487b7100000000000000000000000000000000000000000000000000000000\n        /* \"#utility.yul\":7692:7693   */\n      0x00\n        /* \"#utility.yul\":7685:7773   */\n      mstore\n        /* \"#utility.yul\":7792:7796   */\n      0x11\n        /* \"#utility.yul\":7789:7790   */\n      0x04\n        /* \"#utility.yul\":7782:7797   */\n      mstore\n        /* \"#utility.yul\":7816:7820   */\n      0x24\n        /* \"#utility.yul\":7813:7814   */\n      0x00\n        /* \"#utility.yul\":7806:7821   */\n      revert\n        /* \"#utility.yul\":7833:8024   */\n    tag_76:\n        /* \"#utility.yul\":7873:7877   */\n      0x00\n        /* \"#utility.yul\":7893:7913   */\n      tag_243\n        /* \"#utility.yul\":7911:7912   */\n      dup3\n        /* \"#utility.yul\":7893:7913   */\n      tag_128\n      jump\t// in\n    tag_243:\n        /* \"#utility.yul\":7888:7913   */\n      swap2\n      pop\n        /* \"#utility.yul\":7927:7947   */\n      tag_244\n        /* \"#utility.yul\":7945:7946   */\n      dup4\n        /* \"#utility.yul\":7927:7947   */\n      tag_128\n      jump\t// in\n    tag_244:\n        /* \"#utility.yul\":7922:7947   */\n      swap3\n      pop\n        /* \"#utility.yul\":7966:7967   */\n      dup3\n        /* \"#utility.yul\":7963:7964   */\n      dup3\n        /* \"#utility.yul\":7960:7968   */\n      lt\n        /* \"#utility.yul\":7957:7991   */\n      iszero\n      tag_245\n      jumpi\n        /* \"#utility.yul\":7971:7989   */\n      tag_246\n      tag_151\n      jump\t// in\n    tag_246:\n        /* \"#utility.yul\":7957:7991   */\n    tag_245:\n        /* \"#utility.yul\":8016:8017   */\n      dup3\n        /* \"#utility.yul\":8013:8014   */\n      dup3\n        /* \"#utility.yul\":8009:8018   */\n      sub\n        /* \"#utility.yul\":8001:8018   */\n      swap1\n      pop\n        /* \"#utility.yul\":7833:8024   */\n      swap3\n      swap2\n      pop\n      pop\n      jump\t// out\n        /* \"#utility.yul\":8030:8197   */\n    tag_152:\n        /* \"#utility.yul\":8170:8189   */\n      0x596f7520417265204e6f74204f776e6572000000000000000000000000000000\n        /* \"#utility.yul\":8166:8167   */\n      0x00\n        /* \"#utility.yul\":8158:8164   */\n      dup3\n        /* \"#utility.yul\":8154:8168   */\n      add\n        /* \"#utility.yul\":8147:8190   */\n      mstore\n        /* \"#utility.yul\":8030:8197   */\n      pop\n      jump\t// out\n        /* \"#utility.yul\":8203:8569   */\n    tag_153:\n        /* \"#utility.yul\":8345:8348   */\n      0x00\n        /* \"#utility.yul\":8366:8433   */\n      tag_249\n        /* \"#utility.yul\":8430:8432   */\n      0x11\n        /* \"#utility.yul\":8425:8428   */\n      dup4\n        /* \"#utility.yul\":8366:8433   */\n      tag_146\n      jump\t// in\n    tag_249:\n        /* \"#utility.yul\":8359:8433   */\n      swap2\n      pop\n        /* \"#utility.yul\":8442:8535   */\n      tag_250\n        /* \"#utility.yul\":8531:8534   */\n      dup3\n        /* \"#utility.yul\":8442:8535   */\n      tag_152\n      jump\t// in\n    tag_250:\n        /* \"#utility.yul\":8560:8562   */\n      0x20\n        /* \"#utility.yul\":8555:8558   */\n      dup3\n        /* \"#utility.yul\":8551:8563   */\n      add\n        /* \"#utility.yul\":8544:8563   */\n      swap1\n      pop\n        /* \"#utility.yul\":8203:8569   */\n      swap2\n      swap1\n      pop\n      jump\t// out\n        /* \"#utility.yul\":8575:8994   */\n    tag_81:\n        /* \"#utility.yul\":8741:8745   */\n      0x00\n        /* \"#utility.yul\":8779:8781   */\n      0x20\n        /* \"#utility.yul\":8768:8777   */\n      dup3\n        /* \"#utility.yul\":8764:8782   */\n      add\n        /* \"#utility.yul\":8756:8782   */\n      swap1\n      pop\n        /* \"#utility.yul\":8828:8837   */\n      dup2\n        /* \"#utility.yul\":8822:8826   */\n      dup2\n        /* \"#utility.yul\":8818:8838   */\n      sub\n        /* \"#utility.yul\":8814:8815   */\n      0x00\n        /* \"#utility.yul\":8803:8812   */\n      dup4\n        /* \"#utility.yul\":8799:8816   */\n      add\n        /* \"#utility.yul\":8792:8839   */\n      mstore\n        /* \"#utility.yul\":8856:8987   */\n      tag_252\n        /* \"#utility.yul\":8982:8986   */\n      dup2\n        /* \"#utility.yul\":8856:8987   */\n      tag_153\n      jump\t// in\n    tag_252:\n        /* \"#utility.yul\":8848:8987   */\n      swap1\n      pop\n        /* \"#utility.yul\":8575:8994   */\n      swap2\n      swap1\n      pop\n      jump\t// out\n        /* \"#utility.yul\":9000:9143   */\n    tag_154:\n        /* \"#utility.yul\":9057:9062   */\n      0x00\n        /* \"#utility.yul\":9088:9094   */\n      dup2\n        /* \"#utility.yul\":9082:9095   */\n      mload\n        /* \"#utility.yul\":9073:9095   */\n      swap1\n      pop\n        /* \"#utility.yul\":9104:9137   */\n      tag_254\n        /* \"#utility.yul\":9131:9136   */\n      dup2\n        /* \"#utility.yul\":9104:9137   */\n      tag_129\n      jump\t// in\n    tag_254:\n        /* \"#utility.yul\":9000:9143   */\n      swap3\n      swap2\n      pop\n      pop\n      jump\t// out\n        /* \"#utility.yul\":9149:9500   */\n    tag_90:\n        /* \"#utility.yul\":9219:9225   */\n      0x00\n        /* \"#utility.yul\":9268:9270   */\n      0x20\n        /* \"#utility.yul\":9256:9265   */\n      dup3\n        /* \"#utility.yul\":9247:9254   */\n      dup5\n        /* \"#utility.yul\":9243:9266   */\n      sub\n        /* \"#utility.yul\":9239:9271   */\n      slt\n        /* \"#utility.yul\":9236:9355   */\n      iszero\n      tag_256\n      jumpi\n        /* \"#utility.yul\":9274:9353   */\n      tag_257\n      tag_126\n      jump\t// in\n    tag_257:\n        /* \"#utility.yul\":9236:9355   */\n    tag_256:\n        /* \"#utility.yul\":9394:9395   */\n      0x00\n        /* \"#utility.yul\":9419:9483   */\n      tag_258\n        /* \"#utility.yul\":9475:9482   */\n      dup5\n        /* \"#utility.yul\":9466:9472   */\n      dup3\n        /* \"#utility.yul\":9455:9464   */\n      dup6\n        /* \"#utility.yul\":9451:9473   */\n      add\n        /* \"#utility.yul\":9419:9483   */\n      tag_154\n      jump\t// in\n    tag_258:\n        /* \"#utility.yul\":9409:9483   */\n      swap2\n      pop\n        /* \"#utility.yul\":9365:9493   */\n      pop\n        /* \"#utility.yul\":9149:9500   */\n      swap3\n      swap2\n      pop\n      pop\n      jump\t// out\n        /* \"#utility.yul\":9506:9811   */\n    tag_105:\n        /* \"#utility.yul\":9546:9549   */\n      0x00\n        /* \"#utility.yul\":9565:9585   */\n      tag_260\n        /* \"#utility.yul\":9583:9584   */\n      dup3\n        /* \"#utility.yul\":9565:9585   */\n      tag_128\n      jump\t// in\n    tag_260:\n        /* \"#utility.yul\":9560:9585   */\n      swap2\n      pop\n        /* \"#utility.yul\":9599:9619   */\n      tag_261\n        /* \"#utility.yul\":9617:9618   */\n      dup4\n        /* \"#utility.yul\":9599:9619   */\n      tag_128\n      jump\t// in\n    tag_261:\n        /* \"#utility.yul\":9594:9619   */\n      swap3\n      pop\n        /* \"#utility.yul\":9753:9754   */\n      dup3\n        /* \"#utility.yul\":9685:9751   */\n      0xffffffffffffffffffffffffffffffffffffffffffffffffffffffffffffffff\n        /* \"#utility.yul\":9681:9755   */\n      sub\n        /* \"#utility.yul\":9678:9679   */\n      dup3\n        /* \"#utility.yul\":9675:9756   */\n      gt\n        /* \"#utility.yul\":9672:9779   */\n      iszero\n      tag_262\n      jumpi\n        /* \"#utility.yul\":9759:9777   */\n      tag_263\n      tag_151\n      jump\t// in\n    tag_263:\n        /* \"#utility.yul\":9672:9779   */\n    tag_262:\n        /* \"#utility.yul\":9803:9804   */\n      dup3\n        /* \"#utility.yul\":9800:9801   */\n      dup3\n        /* \"#utility.yul\":9796:9805   */\n      add\n        /* \"#utility.yul\":9789:9805   */\n      swap1\n      pop\n        /* \"#utility.yul\":9506:9811   */\n      swap3\n      swap2\n      pop\n      pop\n      jump\t// out\n        /* \"#utility.yul\":9817:9997   */\n    tag_108:\n        /* \"#utility.yul\":9865:9942   */\n      0x4e487b7100000000000000000000000000000000000000000000000000000000\n        /* \"#utility.yul\":9862:9863   */\n      0x00\n        /* \"#utility.yul\":9855:9943   */\n      mstore\n        /* \"#utility.yul\":9962:9966   */\n      0x01\n        /* \"#utility.yul\":9959:9960   */\n      0x04\n        /* \"#utility.yul\":9952:9967   */\n      mstore\n        /* \"#utility.yul\":9986:9990   */\n      0x24\n        /* \"#utility.yul\":9983:9984   */\n      0x00\n        /* \"#utility.yul\":9976:9991   */\n      revert\n        /* \"#utility.yul\":10003:10236   */\n    tag_111:\n        /* \"#utility.yul\":10042:10045   */\n      0x00\n        /* \"#utility.yul\":10065:10089   */\n      tag_266\n        /* \"#utility.yul\":10083:10088   */\n      dup3\n        /* \"#utility.yul\":10065:10089   */\n      tag_128\n      jump\t// in\n    tag_266:\n        /* \"#utility.yul\":10056:10089   */\n      swap2\n      pop\n        /* \"#utility.yul\":10111:10177   */\n      0xffffffffffffffffffffffffffffffffffffffffffffffffffffffffffffffff\n        /* \"#utility.yul\":10104:10109   */\n      dup3\n        /* \"#utility.yul\":10101:10178   */\n      sub\n        /* \"#utility.yul\":10098:10201   */\n      tag_267\n      jumpi\n        /* \"#utility.yul\":10181:10199   */\n      tag_268\n      tag_151\n      jump\t// in\n    tag_268:\n        /* \"#utility.yul\":10098:10201   */\n    tag_267:\n        /* \"#utility.yul\":10228:10229   */\n      0x01\n        /* \"#utility.yul\":10221:10226   */\n      dup3\n        /* \"#utility.yul\":10217:10230   */\n      add\n        /* \"#utility.yul\":10210:10230   */\n      swap1\n      pop\n        /* \"#utility.yul\":10003:10236   */\n      swap2\n      swap1\n      pop\n      jump\t// out\n        /* \"#utility.yul\":10242:10539   */\n    tag_114:\n        /* \"#utility.yul\":10281:10288   */\n      0x00\n        /* \"#utility.yul\":10304:10323   */\n      tag_270\n        /* \"#utility.yul\":10321:10322   */\n      dup3\n        /* \"#utility.yul\":10304:10323   */\n      tag_143\n      jump\t// in\n    tag_270:\n        /* \"#utility.yul\":10299:10323   */\n      swap2\n      pop\n        /* \"#utility.yul\":10337:10356   */\n      tag_271\n        /* \"#utility.yul\":10354:10355   */\n      dup4\n        /* \"#utility.yul\":10337:10356   */\n      tag_143\n      jump\t// in\n    tag_271:\n        /* \"#utility.yul\":10332:10356   */\n      swap3\n      pop\n        /* \"#utility.yul\":10476:10477   */\n      dup2\n        /* \"#utility.yul\":10456:10474   */\n      0xffffffffffffffff\n        /* \"#utility.yul\":10452:10478   */\n      div\n        /* \"#utility.yul\":10449:10450   */\n      dup4\n        /* \"#utility.yul\":10446:10479   */\n      gt\n        /* \"#utility.yul\":10441:10442   */\n      dup3\n        /* \"#utility.yul\":10434:10443   */\n      iszero\n        /* \"#utility.yul\":10427:10444   */\n      iszero\n        /* \"#utility.yul\":10423:10480   */\n      and\n        /* \"#utility.yul\":10420:10503   */\n      iszero\n      tag_272\n      jumpi\n        /* \"#utility.yul\":10483:10501   */\n      tag_273\n      tag_151\n      jump\t// in\n    tag_273:\n        /* \"#utility.yul\":10420:10503   */\n    tag_272:\n        /* \"#utility.yul\":10531:10532   */\n      dup3\n        /* \"#utility.yul\":10528:10529   */\n      dup3\n        /* \"#utility.yul\":10524:10533   */\n      mul\n        /* \"#utility.yul\":10513:10533   */\n      swap1\n      pop\n        /* \"#utility.yul\":10242:10539   */\n      swap3\n      swap2\n      pop\n      pop\n      jump\t// out\n\n    auxdata: 0xa26469706673582212208c09de59554cd3ece65959014eecb53ba82c3e41fcb8334372752389fc25a9eb64736f6c634300080f0033\n}\n",
				"bytecode": {
					"linkReferences": {},
					"object": "608060405234801561001057600080fd5b50336000806101000a81548173ffffffffffffffffffffffffffffffffffffffff021916908373ffffffffffffffffffffffffffffffffffffffff160217905550611306806100606000396000f3fe60806040526004361061009c5760003560e01c806355f18c681161006457806355f18c681461015e57806359f7f0681461019c5780635c975abb146101c55780636d26ec18146101f057806371dd7158146101fa578063e434a871146102375761009c565b80630562b9f7146100a157806312065fe0146100ca57806316c38b3c146100f55780632e4a47e11461011e5780633ccfd60b14610147575b600080fd5b3480156100ad57600080fd5b506100c860048036038101906100c39190610d15565b610260565b005b3480156100d657600080fd5b506100df6103de565b6040516100ec9190610d51565b60405180910390f35b34801561010157600080fd5b5061011c60048036038101906101179190610da4565b6103e6565b005b34801561012a57600080fd5b5061014560048036038101906101409190610e2f565b610491565b005b34801561015357600080fd5b5061015c610627565b005b34801561016a57600080fd5b5061018560048036038101906101809190610e9a565b610750565b604051610193929190610ec7565b60405180910390f35b3480156101a857600080fd5b506101c360048036038101906101be9190610e2f565b610774565b005b3480156101d157600080fd5b506101da61081b565b6040516101e79190610eff565b60405180910390f35b6101f861082e565b005b34801561020657600080fd5b50610221600480360381019061021c9190610f5a565b610aac565b60405161022e9190610d51565b60405180910390f35b34801561024357600080fd5b5061025e60048036038101906102599190610f87565b610ad3565b005b600060149054906101000a900460ff16156102b0576040517f08c379a00000000000000000000000000000000000000000000000000000000081526004016102a790611024565b60405180910390fd5b600033905081600160008373ffffffffffffffffffffffffffffffffffffffff1673ffffffffffffffffffffffffffffffffffffffff16815260200190815260200160002060000154101561033a576040517f08c379a000000000000000000000000000000000000000000000000000000000815260040161033190611090565b60405180910390fd5b8073ffffffffffffffffffffffffffffffffffffffff166108fc839081150290604051600060405180830381858888f19350505050158015610380573d6000803e3d6000fd5b5081600160003373ffffffffffffffffffffffffffffffffffffffff1673ffffffffffffffffffffffffffffffffffffffff16815260200190815260200160002060000160008282546103d391906110df565b925050819055505050565b600047905090565b3373ffffffffffffffffffffffffffffffffffffffff1660008054906101000a900473ffffffffffffffffffffffffffffffffffffffff1673ffffffffffffffffffffffffffffffffffffffff1614610474576040517f08c379a000000000000000000000000000000000000000000000000000000000815260040161046b9061115f565b60405180910390fd5b80600060146101000a81548160ff02191690831515021790555050565b3373ffffffffffffffffffffffffffffffffffffffff1660008054906101000a900473ffffffffffffffffffffffffffffffffffffffff1673ffffffffffffffffffffffffffffffffffffffff161461051f576040517f08c379a00000000000000000000000000000000000000000000000000000000081526004016105169061115f565b60405180910390fd5b600060149054906101000a900460ff161561056f576040517f08c379a000000000000000000000000000000000000000000000000000000000815260040161056690611024565b60405180910390fd5b8073ffffffffffffffffffffffffffffffffffffffff166108fc3073ffffffffffffffffffffffffffffffffffffffff166312065fe06040518163ffffffff1660e01b8152600401602060405180830381865afa1580156105d4573d6000803e3d6000fd5b505050506040513d601f19601f820116820180604052508101906105f89190611194565b9081150290604051600060405180830381858888f19350505050158015610623573d6000803e3d6000fd5b5050565b600060149054906101000a900460ff1615610677576040517f08c379a000000000000000000000000000000000000000000000000000000000815260040161066e90611024565b60405180910390fd5b60003390508073ffffffffffffffffffffffffffffffffffffffff166108fc600160003373ffffffffffffffffffffffffffffffffffffffff1673ffffffffffffffffffffffffffffffffffffffff168152602001908152602001600020600001549081150290604051600060405180830381858888f19350505050158015610704573d6000803e3d6000fd5b506000600160003373ffffffffffffffffffffffffffffffffffffffff1673ffffffffffffffffffffffffffffffffffffffff1681526020019081526020016000206000018190555050565b60016020528060005260406000206000915090508060000154908060010154905082565b3373ffffffffffffffffffffffffffffffffffffffff1660008054906101000a900473ffffffffffffffffffffffffffffffffffffffff1673ffffffffffffffffffffffffffffffffffffffff1614610802576040517f08c379a00000000000000000000000000000000000000000000000000000000081526004016107f99061115f565b60405180910390fd5b8073ffffffffffffffffffffffffffffffffffffffff16ff5b600060149054906101000a900460ff1681565b600060149054906101000a900460ff161561087e576040517f08c379a000000000000000000000000000000000000000000000000000000000815260040161087590611024565b60405180910390fd5b600160003373ffffffffffffffffffffffffffffffffffffffff1673ffffffffffffffffffffffffffffffffffffffff168152602001908152602001600020600001543467ffffffffffffffff16600160003373ffffffffffffffffffffffffffffffffffffffff1673ffffffffffffffffffffffffffffffffffffffff1681526020019081526020016000206000015461091991906111c1565b101561092857610927611217565b5b3467ffffffffffffffff16600160003373ffffffffffffffffffffffffffffffffffffffff1673ffffffffffffffffffffffffffffffffffffffff168152602001908152602001600020600001600082825461098491906111c1565b925050819055506000604051806040016040528034815260200142815250905080600160003373ffffffffffffffffffffffffffffffffffffffff1673ffffffffffffffffffffffffffffffffffffffff1681526020019081526020016000206002016000600160003373ffffffffffffffffffffffffffffffffffffffff1673ffffffffffffffffffffffffffffffffffffffff1681526020019081526020016000206001015481526020019081526020016000206000820151816000015560208201518160010155905050600160003373ffffffffffffffffffffffffffffffffffffffff1673ffffffffffffffffffffffffffffffffffffffff1681526020019081526020016000206001016000815480929190610aa490611246565b919050555050565b6000670de0b6b3a764000082610ac2919061128e565b67ffffffffffffffff169050919050565b80600160008473ffffffffffffffffffffffffffffffffffffffff1673ffffffffffffffffffffffffffffffffffffffff168152602001908152602001600020600001541015610b58576040517f08c379a0000000000000000000000000000000000000000000000000000000008152600401610b4f90611090565b60405180910390fd5b3373ffffffffffffffffffffffffffffffffffffffff1660008054906101000a900473ffffffffffffffffffffffffffffffffffffffff1673ffffffffffffffffffffffffffffffffffffffff1614610be6576040517f08c379a0000000000000000000000000000000000000000000000000000000008152600401610bdd9061115f565b60405180910390fd5b600060149054906101000a900460ff1615610c36576040517f08c379a0000000000000000000000000000000000000000000000000000000008152600401610c2d90611024565b60405180910390fd5b8173ffffffffffffffffffffffffffffffffffffffff166108fc829081150290604051600060405180830381858888f19350505050158015610c7c573d6000803e3d6000fd5b5080600160003373ffffffffffffffffffffffffffffffffffffffff1673ffffffffffffffffffffffffffffffffffffffff1681526020019081526020016000206000016000828254610ccf91906110df565b925050819055505050565b600080fd5b6000819050919050565b610cf281610cdf565b8114610cfd57600080fd5b50565b600081359050610d0f81610ce9565b92915050565b600060208284031215610d2b57610d2a610cda565b5b6000610d3984828501610d00565b91505092915050565b610d4b81610cdf565b82525050565b6000602082019050610d666000830184610d42565b92915050565b60008115159050919050565b610d8181610d6c565b8114610d8c57600080fd5b50565b600081359050610d9e81610d78565b92915050565b600060208284031215610dba57610db9610cda565b5b6000610dc884828501610d8f565b91505092915050565b600073ffffffffffffffffffffffffffffffffffffffff82169050919050565b6000610dfc82610dd1565b9050919050565b610e0c81610df1565b8114610e1757600080fd5b50565b600081359050610e2981610e03565b92915050565b600060208284031215610e4557610e44610cda565b5b6000610e5384828501610e1a565b91505092915050565b6000610e6782610dd1565b9050919050565b610e7781610e5c565b8114610e8257600080fd5b50565b600081359050610e9481610e6e565b92915050565b600060208284031215610eb057610eaf610cda565b5b6000610ebe84828501610e85565b91505092915050565b6000604082019050610edc6000830185610d42565b610ee96020830184610d42565b9392505050565b610ef981610d6c565b82525050565b6000602082019050610f146000830184610ef0565b92915050565b600067ffffffffffffffff82169050919050565b610f3781610f1a565b8114610f4257600080fd5b50565b600081359050610f5481610f2e565b92915050565b600060208284031215610f7057610f6f610cda565b5b6000610f7e84828501610f45565b91505092915050565b60008060408385031215610f9e57610f9d610cda565b5b6000610fac85828601610e1a565b9250506020610fbd85828601610d00565b9150509250929050565b600082825260208201905092915050565b7f5061757365640000000000000000000000000000000000000000000000000000600082015250565b600061100e600683610fc7565b915061101982610fd8565b602082019050919050565b6000602082019050818103600083015261103d81611001565b9050919050565b7f4e6f7420456e6f7567682046756e647300000000000000000000000000000000600082015250565b600061107a601083610fc7565b915061108582611044565b602082019050919050565b600060208201905081810360008301526110a98161106d565b9050919050565b7f4e487b7100000000000000000000000000000000000000000000000000000000600052601160045260246000fd5b60006110ea82610cdf565b91506110f583610cdf565b925082821015611108576111076110b0565b5b828203905092915050565b7f596f7520417265204e6f74204f776e6572000000000000000000000000000000600082015250565b6000611149601183610fc7565b915061115482611113565b602082019050919050565b600060208201905081810360008301526111788161113c565b9050919050565b60008151905061118e81610ce9565b92915050565b6000602082840312156111aa576111a9610cda565b5b60006111b88482850161117f565b91505092915050565b60006111cc82610cdf565b91506111d783610cdf565b9250827fffffffffffffffffffffffffffffffffffffffffffffffffffffffffffffffff0382111561120c5761120b6110b0565b5b828201905092915050565b7f4e487b7100000000000000000000000000000000000000000000000000000000600052600160045260246000fd5b600061125182610cdf565b91507fffffffffffffffffffffffffffffffffffffffffffffffffffffffffffffffff8203611283576112826110b0565b5b600182019050919050565b600061129982610f1a565b91506112a483610f1a565b92508167ffffffffffffffff04831182151516156112c5576112c46110b0565b5b82820290509291505056fea26469706673582212208c09de59554cd3ece65959014eecb53ba82c3e41fcb8334372752389fc25a9eb64736f6c634300080f0033",
					"opcodes": "PUSH1 0x80 PUSH1 0x40 MSTORE CALLVALUE DUP1 ISZERO PUSH2 0x10 JUMPI PUSH1 0x0 DUP1 REVERT JUMPDEST POP CALLER PUSH1 0x0 DUP1 PUSH2 0x100 EXP DUP2 SLOAD DUP2 PUSH20 0xFFFFFFFFFFFFFFFFFFFFFFFFFFFFFFFFFFFFFFFF MUL NOT AND SWAP1 DUP4 PUSH20 0xFFFFFFFFFFFFFFFFFFFFFFFFFFFFFFFFFFFFFFFF AND MUL OR SWAP1 SSTORE POP PUSH2 0x1306 DUP1 PUSH2 0x60 PUSH1 0x0 CODECOPY PUSH1 0x0 RETURN INVALID PUSH1 0x80 PUSH1 0x40 MSTORE PUSH1 0x4 CALLDATASIZE LT PUSH2 0x9C JUMPI PUSH1 0x0 CALLDATALOAD PUSH1 0xE0 SHR DUP1 PUSH4 0x55F18C68 GT PUSH2 0x64 JUMPI DUP1 PUSH4 0x55F18C68 EQ PUSH2 0x15E JUMPI DUP1 PUSH4 0x59F7F068 EQ PUSH2 0x19C JUMPI DUP1 PUSH4 0x5C975ABB EQ PUSH2 0x1C5 JUMPI DUP1 PUSH4 0x6D26EC18 EQ PUSH2 0x1F0 JUMPI DUP1 PUSH4 0x71DD7158 EQ PUSH2 0x1FA JUMPI DUP1 PUSH4 0xE434A871 EQ PUSH2 0x237 JUMPI PUSH2 0x9C JUMP JUMPDEST DUP1 PUSH4 0x562B9F7 EQ PUSH2 0xA1 JUMPI DUP1 PUSH4 0x12065FE0 EQ PUSH2 0xCA JUMPI DUP1 PUSH4 0x16C38B3C EQ PUSH2 0xF5 JUMPI DUP1 PUSH4 0x2E4A47E1 EQ PUSH2 0x11E JUMPI DUP1 PUSH4 0x3CCFD60B EQ PUSH2 0x147 JUMPI JUMPDEST PUSH1 0x0 DUP1 REVERT JUMPDEST CALLVALUE DUP1 ISZERO PUSH2 0xAD JUMPI PUSH1 0x0 DUP1 REVERT JUMPDEST POP PUSH2 0xC8 PUSH1 0x4 DUP1 CALLDATASIZE SUB DUP2 ADD SWAP1 PUSH2 0xC3 SWAP2 SWAP1 PUSH2 0xD15 JUMP JUMPDEST PUSH2 0x260 JUMP JUMPDEST STOP JUMPDEST CALLVALUE DUP1 ISZERO PUSH2 0xD6 JUMPI PUSH1 0x0 DUP1 REVERT JUMPDEST POP PUSH2 0xDF PUSH2 0x3DE JUMP JUMPDEST PUSH1 0x40 MLOAD PUSH2 0xEC SWAP2 SWAP1 PUSH2 0xD51 JUMP JUMPDEST PUSH1 0x40 MLOAD DUP1 SWAP2 SUB SWAP1 RETURN JUMPDEST CALLVALUE DUP1 ISZERO PUSH2 0x101 JUMPI PUSH1 0x0 DUP1 REVERT JUMPDEST POP PUSH2 0x11C PUSH1 0x4 DUP1 CALLDATASIZE SUB DUP2 ADD SWAP1 PUSH2 0x117 SWAP2 SWAP1 PUSH2 0xDA4 JUMP JUMPDEST PUSH2 0x3E6 JUMP JUMPDEST STOP JUMPDEST CALLVALUE DUP1 ISZERO PUSH2 0x12A JUMPI PUSH1 0x0 DUP1 REVERT JUMPDEST POP PUSH2 0x145 PUSH1 0x4 DUP1 CALLDATASIZE SUB DUP2 ADD SWAP1 PUSH2 0x140 SWAP2 SWAP1 PUSH2 0xE2F JUMP JUMPDEST PUSH2 0x491 JUMP JUMPDEST STOP JUMPDEST CALLVALUE DUP1 ISZERO PUSH2 0x153 JUMPI PUSH1 0x0 DUP1 REVERT JUMPDEST POP PUSH2 0x15C PUSH2 0x627 JUMP JUMPDEST STOP JUMPDEST CALLVALUE DUP1 ISZERO PUSH2 0x16A JUMPI PUSH1 0x0 DUP1 REVERT JUMPDEST POP PUSH2 0x185 PUSH1 0x4 DUP1 CALLDATASIZE SUB DUP2 ADD SWAP1 PUSH2 0x180 SWAP2 SWAP1 PUSH2 0xE9A JUMP JUMPDEST PUSH2 0x750 JUMP JUMPDEST PUSH1 0x40 MLOAD PUSH2 0x193 SWAP3 SWAP2 SWAP1 PUSH2 0xEC7 JUMP JUMPDEST PUSH1 0x40 MLOAD DUP1 SWAP2 SUB SWAP1 RETURN JUMPDEST CALLVALUE DUP1 ISZERO PUSH2 0x1A8 JUMPI PUSH1 0x0 DUP1 REVERT JUMPDEST POP PUSH2 0x1C3 PUSH1 0x4 DUP1 CALLDATASIZE SUB DUP2 ADD SWAP1 PUSH2 0x1BE SWAP2 SWAP1 PUSH2 0xE2F JUMP JUMPDEST PUSH2 0x774 JUMP JUMPDEST STOP JUMPDEST CALLVALUE DUP1 ISZERO PUSH2 0x1D1 JUMPI PUSH1 0x0 DUP1 REVERT JUMPDEST POP PUSH2 0x1DA PUSH2 0x81B JUMP JUMPDEST PUSH1 0x40 MLOAD PUSH2 0x1E7 SWAP2 SWAP1 PUSH2 0xEFF JUMP JUMPDEST PUSH1 0x40 MLOAD DUP1 SWAP2 SUB SWAP1 RETURN JUMPDEST PUSH2 0x1F8 PUSH2 0x82E JUMP JUMPDEST STOP JUMPDEST CALLVALUE DUP1 ISZERO PUSH2 0x206 JUMPI PUSH1 0x0 DUP1 REVERT JUMPDEST POP PUSH2 0x221 PUSH1 0x4 DUP1 CALLDATASIZE SUB DUP2 ADD SWAP1 PUSH2 0x21C SWAP2 SWAP1 PUSH2 0xF5A JUMP JUMPDEST PUSH2 0xAAC JUMP JUMPDEST PUSH1 0x40 MLOAD PUSH2 0x22E SWAP2 SWAP1 PUSH2 0xD51 JUMP JUMPDEST PUSH1 0x40 MLOAD DUP1 SWAP2 SUB SWAP1 RETURN JUMPDEST CALLVALUE DUP1 ISZERO PUSH2 0x243 JUMPI PUSH1 0x0 DUP1 REVERT JUMPDEST POP PUSH2 0x25E PUSH1 0x4 DUP1 CALLDATASIZE SUB DUP2 ADD SWAP1 PUSH2 0x259 SWAP2 SWAP1 PUSH2 0xF87 JUMP JUMPDEST PUSH2 0xAD3 JUMP JUMPDEST STOP JUMPDEST PUSH1 0x0 PUSH1 0x14 SWAP1 SLOAD SWAP1 PUSH2 0x100 EXP SWAP1 DIV PUSH1 0xFF AND ISZERO PUSH2 0x2B0 JUMPI PUSH1 0x40 MLOAD PUSH32 0x8C379A000000000000000000000000000000000000000000000000000000000 DUP2 MSTORE PUSH1 0x4 ADD PUSH2 0x2A7 SWAP1 PUSH2 0x1024 JUMP JUMPDEST PUSH1 0x40 MLOAD DUP1 SWAP2 SUB SWAP1 REVERT JUMPDEST PUSH1 0x0 CALLER SWAP1 POP DUP2 PUSH1 0x1 PUSH1 0x0 DUP4 PUSH20 0xFFFFFFFFFFFFFFFFFFFFFFFFFFFFFFFFFFFFFFFF AND PUSH20 0xFFFFFFFFFFFFFFFFFFFFFFFFFFFFFFFFFFFFFFFF AND DUP2 MSTORE PUSH1 0x20 ADD SWAP1 DUP2 MSTORE PUSH1 0x20 ADD PUSH1 0x0 KECCAK256 PUSH1 0x0 ADD SLOAD LT ISZERO PUSH2 0x33A JUMPI PUSH1 0x40 MLOAD PUSH32 0x8C379A000000000000000000000000000000000000000000000000000000000 DUP2 MSTORE PUSH1 0x4 ADD PUSH2 0x331 SWAP1 PUSH2 0x1090 JUMP JUMPDEST PUSH1 0x40 MLOAD DUP1 SWAP2 SUB SWAP1 REVERT JUMPDEST DUP1 PUSH20 0xFFFFFFFFFFFFFFFFFFFFFFFFFFFFFFFFFFFFFFFF AND PUSH2 0x8FC DUP4 SWAP1 DUP2 ISZERO MUL SWAP1 PUSH1 0x40 MLOAD PUSH1 0x0 PUSH1 0x40 MLOAD DUP1 DUP4 SUB DUP2 DUP6 DUP9 DUP9 CALL SWAP4 POP POP POP POP ISZERO DUP1 ISZERO PUSH2 0x380 JUMPI RETURNDATASIZE PUSH1 0x0 DUP1 RETURNDATACOPY RETURNDATASIZE PUSH1 0x0 REVERT JUMPDEST POP DUP2 PUSH1 0x1 PUSH1 0x0 CALLER PUSH20 0xFFFFFFFFFFFFFFFFFFFFFFFFFFFFFFFFFFFFFFFF AND PUSH20 0xFFFFFFFFFFFFFFFFFFFFFFFFFFFFFFFFFFFFFFFF AND DUP2 MSTORE PUSH1 0x20 ADD SWAP1 DUP2 MSTORE PUSH1 0x20 ADD PUSH1 0x0 KECCAK256 PUSH1 0x0 ADD PUSH1 0x0 DUP3 DUP3 SLOAD PUSH2 0x3D3 SWAP2 SWAP1 PUSH2 0x10DF JUMP JUMPDEST SWAP3 POP POP DUP2 SWAP1 SSTORE POP POP POP JUMP JUMPDEST PUSH1 0x0 SELFBALANCE SWAP1 POP SWAP1 JUMP JUMPDEST CALLER PUSH20 0xFFFFFFFFFFFFFFFFFFFFFFFFFFFFFFFFFFFFFFFF AND PUSH1 0x0 DUP1 SLOAD SWAP1 PUSH2 0x100 EXP SWAP1 DIV PUSH20 0xFFFFFFFFFFFFFFFFFFFFFFFFFFFFFFFFFFFFFFFF AND PUSH20 0xFFFFFFFFFFFFFFFFFFFFFFFFFFFFFFFFFFFFFFFF AND EQ PUSH2 0x474 JUMPI PUSH1 0x40 MLOAD PUSH32 0x8C379A000000000000000000000000000000000000000000000000000000000 DUP2 MSTORE PUSH1 0x4 ADD PUSH2 0x46B SWAP1 PUSH2 0x115F JUMP JUMPDEST PUSH1 0x40 MLOAD DUP1 SWAP2 SUB SWAP1 REVERT JUMPDEST DUP1 PUSH1 0x0 PUSH1 0x14 PUSH2 0x100 EXP DUP2 SLOAD DUP2 PUSH1 0xFF MUL NOT AND SWAP1 DUP4 ISZERO ISZERO MUL OR SWAP1 SSTORE POP POP JUMP JUMPDEST CALLER PUSH20 0xFFFFFFFFFFFFFFFFFFFFFFFFFFFFFFFFFFFFFFFF AND PUSH1 0x0 DUP1 SLOAD SWAP1 PUSH2 0x100 EXP SWAP1 DIV PUSH20 0xFFFFFFFFFFFFFFFFFFFFFFFFFFFFFFFFFFFFFFFF AND PUSH20 0xFFFFFFFFFFFFFFFFFFFFFFFFFFFFFFFFFFFFFFFF AND EQ PUSH2 0x51F JUMPI PUSH1 0x40 MLOAD PUSH32 0x8C379A000000000000000000000000000000000000000000000000000000000 DUP2 MSTORE PUSH1 0x4 ADD PUSH2 0x516 SWAP1 PUSH2 0x115F JUMP JUMPDEST PUSH1 0x40 MLOAD DUP1 SWAP2 SUB SWAP1 REVERT JUMPDEST PUSH1 0x0 PUSH1 0x14 SWAP1 SLOAD SWAP1 PUSH2 0x100 EXP SWAP1 DIV PUSH1 0xFF AND ISZERO PUSH2 0x56F JUMPI PUSH1 0x40 MLOAD PUSH32 0x8C379A000000000000000000000000000000000000000000000000000000000 DUP2 MSTORE PUSH1 0x4 ADD PUSH2 0x566 SWAP1 PUSH2 0x1024 JUMP JUMPDEST PUSH1 0x40 MLOAD DUP1 SWAP2 SUB SWAP1 REVERT JUMPDEST DUP1 PUSH20 0xFFFFFFFFFFFFFFFFFFFFFFFFFFFFFFFFFFFFFFFF AND PUSH2 0x8FC ADDRESS PUSH20 0xFFFFFFFFFFFFFFFFFFFFFFFFFFFFFFFFFFFFFFFF AND PUSH4 0x12065FE0 PUSH1 0x40 MLOAD DUP2 PUSH4 0xFFFFFFFF AND PUSH1 0xE0 SHL DUP2 MSTORE PUSH1 0x4 ADD PUSH1 0x20 PUSH1 0x40 MLOAD DUP1 DUP4 SUB DUP2 DUP7 GAS STATICCALL ISZERO DUP1 ISZERO PUSH2 0x5D4 JUMPI RETURNDATASIZE PUSH1 0x0 DUP1 RETURNDATACOPY RETURNDATASIZE PUSH1 0x0 REVERT JUMPDEST POP POP POP POP PUSH1 0x40 MLOAD RETURNDATASIZE PUSH1 0x1F NOT PUSH1 0x1F DUP3 ADD AND DUP3 ADD DUP1 PUSH1 0x40 MSTORE POP DUP2 ADD SWAP1 PUSH2 0x5F8 SWAP2 SWAP1 PUSH2 0x1194 JUMP JUMPDEST SWAP1 DUP2 ISZERO MUL SWAP1 PUSH1 0x40 MLOAD PUSH1 0x0 PUSH1 0x40 MLOAD DUP1 DUP4 SUB DUP2 DUP6 DUP9 DUP9 CALL SWAP4 POP POP POP POP ISZERO DUP1 ISZERO PUSH2 0x623 JUMPI RETURNDATASIZE PUSH1 0x0 DUP1 RETURNDATACOPY RETURNDATASIZE PUSH1 0x0 REVERT JUMPDEST POP POP JUMP JUMPDEST PUSH1 0x0 PUSH1 0x14 SWAP1 SLOAD SWAP1 PUSH2 0x100 EXP SWAP1 DIV PUSH1 0xFF AND ISZERO PUSH2 0x677 JUMPI PUSH1 0x40 MLOAD PUSH32 0x8C379A000000000000000000000000000000000000000000000000000000000 DUP2 MSTORE PUSH1 0x4 ADD PUSH2 0x66E SWAP1 PUSH2 0x1024 JUMP JUMPDEST PUSH1 0x40 MLOAD DUP1 SWAP2 SUB SWAP1 REVERT JUMPDEST PUSH1 0x0 CALLER SWAP1 POP DUP1 PUSH20 0xFFFFFFFFFFFFFFFFFFFFFFFFFFFFFFFFFFFFFFFF AND PUSH2 0x8FC PUSH1 0x1 PUSH1 0x0 CALLER PUSH20 0xFFFFFFFFFFFFFFFFFFFFFFFFFFFFFFFFFFFFFFFF AND PUSH20 0xFFFFFFFFFFFFFFFFFFFFFFFFFFFFFFFFFFFFFFFF AND DUP2 MSTORE PUSH1 0x20 ADD SWAP1 DUP2 MSTORE PUSH1 0x20 ADD PUSH1 0x0 KECCAK256 PUSH1 0x0 ADD SLOAD SWAP1 DUP2 ISZERO MUL SWAP1 PUSH1 0x40 MLOAD PUSH1 0x0 PUSH1 0x40 MLOAD DUP1 DUP4 SUB DUP2 DUP6 DUP9 DUP9 CALL SWAP4 POP POP POP POP ISZERO DUP1 ISZERO PUSH2 0x704 JUMPI RETURNDATASIZE PUSH1 0x0 DUP1 RETURNDATACOPY RETURNDATASIZE PUSH1 0x0 REVERT JUMPDEST POP PUSH1 0x0 PUSH1 0x1 PUSH1 0x0 CALLER PUSH20 0xFFFFFFFFFFFFFFFFFFFFFFFFFFFFFFFFFFFFFFFF AND PUSH20 0xFFFFFFFFFFFFFFFFFFFFFFFFFFFFFFFFFFFFFFFF AND DUP2 MSTORE PUSH1 0x20 ADD SWAP1 DUP2 MSTORE PUSH1 0x20 ADD PUSH1 0x0 KECCAK256 PUSH1 0x0 ADD DUP2 SWAP1 SSTORE POP POP JUMP JUMPDEST PUSH1 0x1 PUSH1 0x20 MSTORE DUP1 PUSH1 0x0 MSTORE PUSH1 0x40 PUSH1 0x0 KECCAK256 PUSH1 0x0 SWAP2 POP SWAP1 POP DUP1 PUSH1 0x0 ADD SLOAD SWAP1 DUP1 PUSH1 0x1 ADD SLOAD SWAP1 POP DUP3 JUMP JUMPDEST CALLER PUSH20 0xFFFFFFFFFFFFFFFFFFFFFFFFFFFFFFFFFFFFFFFF AND PUSH1 0x0 DUP1 SLOAD SWAP1 PUSH2 0x100 EXP SWAP1 DIV PUSH20 0xFFFFFFFFFFFFFFFFFFFFFFFFFFFFFFFFFFFFFFFF AND PUSH20 0xFFFFFFFFFFFFFFFFFFFFFFFFFFFFFFFFFFFFFFFF AND EQ PUSH2 0x802 JUMPI PUSH1 0x40 MLOAD PUSH32 0x8C379A000000000000000000000000000000000000000000000000000000000 DUP2 MSTORE PUSH1 0x4 ADD PUSH2 0x7F9 SWAP1 PUSH2 0x115F JUMP JUMPDEST PUSH1 0x40 MLOAD DUP1 SWAP2 SUB SWAP1 REVERT JUMPDEST DUP1 PUSH20 0xFFFFFFFFFFFFFFFFFFFFFFFFFFFFFFFFFFFFFFFF AND SELFDESTRUCT JUMPDEST PUSH1 0x0 PUSH1 0x14 SWAP1 SLOAD SWAP1 PUSH2 0x100 EXP SWAP1 DIV PUSH1 0xFF AND DUP2 JUMP JUMPDEST PUSH1 0x0 PUSH1 0x14 SWAP1 SLOAD SWAP1 PUSH2 0x100 EXP SWAP1 DIV PUSH1 0xFF AND ISZERO PUSH2 0x87E JUMPI PUSH1 0x40 MLOAD PUSH32 0x8C379A000000000000000000000000000000000000000000000000000000000 DUP2 MSTORE PUSH1 0x4 ADD PUSH2 0x875 SWAP1 PUSH2 0x1024 JUMP JUMPDEST PUSH1 0x40 MLOAD DUP1 SWAP2 SUB SWAP1 REVERT JUMPDEST PUSH1 0x1 PUSH1 0x0 CALLER PUSH20 0xFFFFFFFFFFFFFFFFFFFFFFFFFFFFFFFFFFFFFFFF AND PUSH20 0xFFFFFFFFFFFFFFFFFFFFFFFFFFFFFFFFFFFFFFFF AND DUP2 MSTORE PUSH1 0x20 ADD SWAP1 DUP2 MSTORE PUSH1 0x20 ADD PUSH1 0x0 KECCAK256 PUSH1 0x0 ADD SLOAD CALLVALUE PUSH8 0xFFFFFFFFFFFFFFFF AND PUSH1 0x1 PUSH1 0x0 CALLER PUSH20 0xFFFFFFFFFFFFFFFFFFFFFFFFFFFFFFFFFFFFFFFF AND PUSH20 0xFFFFFFFFFFFFFFFFFFFFFFFFFFFFFFFFFFFFFFFF AND DUP2 MSTORE PUSH1 0x20 ADD SWAP1 DUP2 MSTORE PUSH1 0x20 ADD PUSH1 0x0 KECCAK256 PUSH1 0x0 ADD SLOAD PUSH2 0x919 SWAP2 SWAP1 PUSH2 0x11C1 JUMP JUMPDEST LT ISZERO PUSH2 0x928 JUMPI PUSH2 0x927 PUSH2 0x1217 JUMP JUMPDEST JUMPDEST CALLVALUE PUSH8 0xFFFFFFFFFFFFFFFF AND PUSH1 0x1 PUSH1 0x0 CALLER PUSH20 0xFFFFFFFFFFFFFFFFFFFFFFFFFFFFFFFFFFFFFFFF AND PUSH20 0xFFFFFFFFFFFFFFFFFFFFFFFFFFFFFFFFFFFFFFFF AND DUP2 MSTORE PUSH1 0x20 ADD SWAP1 DUP2 MSTORE PUSH1 0x20 ADD PUSH1 0x0 KECCAK256 PUSH1 0x0 ADD PUSH1 0x0 DUP3 DUP3 SLOAD PUSH2 0x984 SWAP2 SWAP1 PUSH2 0x11C1 JUMP JUMPDEST SWAP3 POP POP DUP2 SWAP1 SSTORE POP PUSH1 0x0 PUSH1 0x40 MLOAD DUP1 PUSH1 0x40 ADD PUSH1 0x40 MSTORE DUP1 CALLVALUE DUP2 MSTORE PUSH1 0x20 ADD TIMESTAMP DUP2 MSTORE POP SWAP1 POP DUP1 PUSH1 0x1 PUSH1 0x0 CALLER PUSH20 0xFFFFFFFFFFFFFFFFFFFFFFFFFFFFFFFFFFFFFFFF AND PUSH20 0xFFFFFFFFFFFFFFFFFFFFFFFFFFFFFFFFFFFFFFFF AND DUP2 MSTORE PUSH1 0x20 ADD SWAP1 DUP2 MSTORE PUSH1 0x20 ADD PUSH1 0x0 KECCAK256 PUSH1 0x2 ADD PUSH1 0x0 PUSH1 0x1 PUSH1 0x0 CALLER PUSH20 0xFFFFFFFFFFFFFFFFFFFFFFFFFFFFFFFFFFFFFFFF AND PUSH20 0xFFFFFFFFFFFFFFFFFFFFFFFFFFFFFFFFFFFFFFFF AND DUP2 MSTORE PUSH1 0x20 ADD SWAP1 DUP2 MSTORE PUSH1 0x20 ADD PUSH1 0x0 KECCAK256 PUSH1 0x1 ADD SLOAD DUP2 MSTORE PUSH1 0x20 ADD SWAP1 DUP2 MSTORE PUSH1 0x20 ADD PUSH1 0x0 KECCAK256 PUSH1 0x0 DUP3 ADD MLOAD DUP2 PUSH1 0x0 ADD SSTORE PUSH1 0x20 DUP3 ADD MLOAD DUP2 PUSH1 0x1 ADD SSTORE SWAP1 POP POP PUSH1 0x1 PUSH1 0x0 CALLER PUSH20 0xFFFFFFFFFFFFFFFFFFFFFFFFFFFFFFFFFFFFFFFF AND PUSH20 0xFFFFFFFFFFFFFFFFFFFFFFFFFFFFFFFFFFFFFFFF AND DUP2 MSTORE PUSH1 0x20 ADD SWAP1 DUP2 MSTORE PUSH1 0x20 ADD PUSH1 0x0 KECCAK256 PUSH1 0x1 ADD PUSH1 0x0 DUP2 SLOAD DUP1 SWAP3 SWAP2 SWAP1 PUSH2 0xAA4 SWAP1 PUSH2 0x1246 JUMP JUMPDEST SWAP2 SWAP1 POP SSTORE POP POP JUMP JUMPDEST PUSH1 0x0 PUSH8 0xDE0B6B3A7640000 DUP3 PUSH2 0xAC2 SWAP2 SWAP1 PUSH2 0x128E JUMP JUMPDEST PUSH8 0xFFFFFFFFFFFFFFFF AND SWAP1 POP SWAP2 SWAP1 POP JUMP JUMPDEST DUP1 PUSH1 0x1 PUSH1 0x0 DUP5 PUSH20 0xFFFFFFFFFFFFFFFFFFFFFFFFFFFFFFFFFFFFFFFF AND PUSH20 0xFFFFFFFFFFFFFFFFFFFFFFFFFFFFFFFFFFFFFFFF AND DUP2 MSTORE PUSH1 0x20 ADD SWAP1 DUP2 MSTORE PUSH1 0x20 ADD PUSH1 0x0 KECCAK256 PUSH1 0x0 ADD SLOAD LT ISZERO PUSH2 0xB58 JUMPI PUSH1 0x40 MLOAD PUSH32 0x8C379A000000000000000000000000000000000000000000000000000000000 DUP2 MSTORE PUSH1 0x4 ADD PUSH2 0xB4F SWAP1 PUSH2 0x1090 JUMP JUMPDEST PUSH1 0x40 MLOAD DUP1 SWAP2 SUB SWAP1 REVERT JUMPDEST CALLER PUSH20 0xFFFFFFFFFFFFFFFFFFFFFFFFFFFFFFFFFFFFFFFF AND PUSH1 0x0 DUP1 SLOAD SWAP1 PUSH2 0x100 EXP SWAP1 DIV PUSH20 0xFFFFFFFFFFFFFFFFFFFFFFFFFFFFFFFFFFFFFFFF AND PUSH20 0xFFFFFFFFFFFFFFFFFFFFFFFFFFFFFFFFFFFFFFFF AND EQ PUSH2 0xBE6 JUMPI PUSH1 0x40 MLOAD PUSH32 0x8C379A000000000000000000000000000000000000000000000000000000000 DUP2 MSTORE PUSH1 0x4 ADD PUSH2 0xBDD SWAP1 PUSH2 0x115F JUMP JUMPDEST PUSH1 0x40 MLOAD DUP1 SWAP2 SUB SWAP1 REVERT JUMPDEST PUSH1 0x0 PUSH1 0x14 SWAP1 SLOAD SWAP1 PUSH2 0x100 EXP SWAP1 DIV PUSH1 0xFF AND ISZERO PUSH2 0xC36 JUMPI PUSH1 0x40 MLOAD PUSH32 0x8C379A000000000000000000000000000000000000000000000000000000000 DUP2 MSTORE PUSH1 0x4 ADD PUSH2 0xC2D SWAP1 PUSH2 0x1024 JUMP JUMPDEST PUSH1 0x40 MLOAD DUP1 SWAP2 SUB SWAP1 REVERT JUMPDEST DUP2 PUSH20 0xFFFFFFFFFFFFFFFFFFFFFFFFFFFFFFFFFFFFFFFF AND PUSH2 0x8FC DUP3 SWAP1 DUP2 ISZERO MUL SWAP1 PUSH1 0x40 MLOAD PUSH1 0x0 PUSH1 0x40 MLOAD DUP1 DUP4 SUB DUP2 DUP6 DUP9 DUP9 CALL SWAP4 POP POP POP POP ISZERO DUP1 ISZERO PUSH2 0xC7C JUMPI RETURNDATASIZE PUSH1 0x0 DUP1 RETURNDATACOPY RETURNDATASIZE PUSH1 0x0 REVERT JUMPDEST POP DUP1 PUSH1 0x1 PUSH1 0x0 CALLER PUSH20 0xFFFFFFFFFFFFFFFFFFFFFFFFFFFFFFFFFFFFFFFF AND PUSH20 0xFFFFFFFFFFFFFFFFFFFFFFFFFFFFFFFFFFFFFFFF AND DUP2 MSTORE PUSH1 0x20 ADD SWAP1 DUP2 MSTORE PUSH1 0x20 ADD PUSH1 0x0 KECCAK256 PUSH1 0x0 ADD PUSH1 0x0 DUP3 DUP3 SLOAD PUSH2 0xCCF SWAP2 SWAP1 PUSH2 0x10DF JUMP JUMPDEST SWAP3 POP POP DUP2 SWAP1 SSTORE POP POP POP JUMP JUMPDEST PUSH1 0x0 DUP1 REVERT JUMPDEST PUSH1 0x0 DUP2 SWAP1 POP SWAP2 SWAP1 POP JUMP JUMPDEST PUSH2 0xCF2 DUP2 PUSH2 0xCDF JUMP JUMPDEST DUP2 EQ PUSH2 0xCFD JUMPI PUSH1 0x0 DUP1 REVERT JUMPDEST POP JUMP JUMPDEST PUSH1 0x0 DUP2 CALLDATALOAD SWAP1 POP PUSH2 0xD0F DUP2 PUSH2 0xCE9 JUMP JUMPDEST SWAP3 SWAP2 POP POP JUMP JUMPDEST PUSH1 0x0 PUSH1 0x20 DUP3 DUP5 SUB SLT ISZERO PUSH2 0xD2B JUMPI PUSH2 0xD2A PUSH2 0xCDA JUMP JUMPDEST JUMPDEST PUSH1 0x0 PUSH2 0xD39 DUP5 DUP3 DUP6 ADD PUSH2 0xD00 JUMP JUMPDEST SWAP2 POP POP SWAP3 SWAP2 POP POP JUMP JUMPDEST PUSH2 0xD4B DUP2 PUSH2 0xCDF JUMP JUMPDEST DUP3 MSTORE POP POP JUMP JUMPDEST PUSH1 0x0 PUSH1 0x20 DUP3 ADD SWAP1 POP PUSH2 0xD66 PUSH1 0x0 DUP4 ADD DUP5 PUSH2 0xD42 JUMP JUMPDEST SWAP3 SWAP2 POP POP JUMP JUMPDEST PUSH1 0x0 DUP2 ISZERO ISZERO SWAP1 POP SWAP2 SWAP1 POP JUMP JUMPDEST PUSH2 0xD81 DUP2 PUSH2 0xD6C JUMP JUMPDEST DUP2 EQ PUSH2 0xD8C JUMPI PUSH1 0x0 DUP1 REVERT JUMPDEST POP JUMP JUMPDEST PUSH1 0x0 DUP2 CALLDATALOAD SWAP1 POP PUSH2 0xD9E DUP2 PUSH2 0xD78 JUMP JUMPDEST SWAP3 SWAP2 POP POP JUMP JUMPDEST PUSH1 0x0 PUSH1 0x20 DUP3 DUP5 SUB SLT ISZERO PUSH2 0xDBA JUMPI PUSH2 0xDB9 PUSH2 0xCDA JUMP JUMPDEST JUMPDEST PUSH1 0x0 PUSH2 0xDC8 DUP5 DUP3 DUP6 ADD PUSH2 0xD8F JUMP JUMPDEST SWAP2 POP POP SWAP3 SWAP2 POP POP JUMP JUMPDEST PUSH1 0x0 PUSH20 0xFFFFFFFFFFFFFFFFFFFFFFFFFFFFFFFFFFFFFFFF DUP3 AND SWAP1 POP SWAP2 SWAP1 POP JUMP JUMPDEST PUSH1 0x0 PUSH2 0xDFC DUP3 PUSH2 0xDD1 JUMP JUMPDEST SWAP1 POP SWAP2 SWAP1 POP JUMP JUMPDEST PUSH2 0xE0C DUP2 PUSH2 0xDF1 JUMP JUMPDEST DUP2 EQ PUSH2 0xE17 JUMPI PUSH1 0x0 DUP1 REVERT JUMPDEST POP JUMP JUMPDEST PUSH1 0x0 DUP2 CALLDATALOAD SWAP1 POP PUSH2 0xE29 DUP2 PUSH2 0xE03 JUMP JUMPDEST SWAP3 SWAP2 POP POP JUMP JUMPDEST PUSH1 0x0 PUSH1 0x20 DUP3 DUP5 SUB SLT ISZERO PUSH2 0xE45 JUMPI PUSH2 0xE44 PUSH2 0xCDA JUMP JUMPDEST JUMPDEST PUSH1 0x0 PUSH2 0xE53 DUP5 DUP3 DUP6 ADD PUSH2 0xE1A JUMP JUMPDEST SWAP2 POP POP SWAP3 SWAP2 POP POP JUMP JUMPDEST PUSH1 0x0 PUSH2 0xE67 DUP3 PUSH2 0xDD1 JUMP JUMPDEST SWAP1 POP SWAP2 SWAP1 POP JUMP JUMPDEST PUSH2 0xE77 DUP2 PUSH2 0xE5C JUMP JUMPDEST DUP2 EQ PUSH2 0xE82 JUMPI PUSH1 0x0 DUP1 REVERT JUMPDEST POP JUMP JUMPDEST PUSH1 0x0 DUP2 CALLDATALOAD SWAP1 POP PUSH2 0xE94 DUP2 PUSH2 0xE6E JUMP JUMPDEST SWAP3 SWAP2 POP POP JUMP JUMPDEST PUSH1 0x0 PUSH1 0x20 DUP3 DUP5 SUB SLT ISZERO PUSH2 0xEB0 JUMPI PUSH2 0xEAF PUSH2 0xCDA JUMP JUMPDEST JUMPDEST PUSH1 0x0 PUSH2 0xEBE DUP5 DUP3 DUP6 ADD PUSH2 0xE85 JUMP JUMPDEST SWAP2 POP POP SWAP3 SWAP2 POP POP JUMP JUMPDEST PUSH1 0x0 PUSH1 0x40 DUP3 ADD SWAP1 POP PUSH2 0xEDC PUSH1 0x0 DUP4 ADD DUP6 PUSH2 0xD42 JUMP JUMPDEST PUSH2 0xEE9 PUSH1 0x20 DUP4 ADD DUP5 PUSH2 0xD42 JUMP JUMPDEST SWAP4 SWAP3 POP POP POP JUMP JUMPDEST PUSH2 0xEF9 DUP2 PUSH2 0xD6C JUMP JUMPDEST DUP3 MSTORE POP POP JUMP JUMPDEST PUSH1 0x0 PUSH1 0x20 DUP3 ADD SWAP1 POP PUSH2 0xF14 PUSH1 0x0 DUP4 ADD DUP5 PUSH2 0xEF0 JUMP JUMPDEST SWAP3 SWAP2 POP POP JUMP JUMPDEST PUSH1 0x0 PUSH8 0xFFFFFFFFFFFFFFFF DUP3 AND SWAP1 POP SWAP2 SWAP1 POP JUMP JUMPDEST PUSH2 0xF37 DUP2 PUSH2 0xF1A JUMP JUMPDEST DUP2 EQ PUSH2 0xF42 JUMPI PUSH1 0x0 DUP1 REVERT JUMPDEST POP JUMP JUMPDEST PUSH1 0x0 DUP2 CALLDATALOAD SWAP1 POP PUSH2 0xF54 DUP2 PUSH2 0xF2E JUMP JUMPDEST SWAP3 SWAP2 POP POP JUMP JUMPDEST PUSH1 0x0 PUSH1 0x20 DUP3 DUP5 SUB SLT ISZERO PUSH2 0xF70 JUMPI PUSH2 0xF6F PUSH2 0xCDA JUMP JUMPDEST JUMPDEST PUSH1 0x0 PUSH2 0xF7E DUP5 DUP3 DUP6 ADD PUSH2 0xF45 JUMP JUMPDEST SWAP2 POP POP SWAP3 SWAP2 POP POP JUMP JUMPDEST PUSH1 0x0 DUP1 PUSH1 0x40 DUP4 DUP6 SUB SLT ISZERO PUSH2 0xF9E JUMPI PUSH2 0xF9D PUSH2 0xCDA JUMP JUMPDEST JUMPDEST PUSH1 0x0 PUSH2 0xFAC DUP6 DUP3 DUP7 ADD PUSH2 0xE1A JUMP JUMPDEST SWAP3 POP POP PUSH1 0x20 PUSH2 0xFBD DUP6 DUP3 DUP7 ADD PUSH2 0xD00 JUMP JUMPDEST SWAP2 POP POP SWAP3 POP SWAP3 SWAP1 POP JUMP JUMPDEST PUSH1 0x0 DUP3 DUP3 MSTORE PUSH1 0x20 DUP3 ADD SWAP1 POP SWAP3 SWAP2 POP POP JUMP JUMPDEST PUSH32 0x5061757365640000000000000000000000000000000000000000000000000000 PUSH1 0x0 DUP3 ADD MSTORE POP JUMP JUMPDEST PUSH1 0x0 PUSH2 0x100E PUSH1 0x6 DUP4 PUSH2 0xFC7 JUMP JUMPDEST SWAP2 POP PUSH2 0x1019 DUP3 PUSH2 0xFD8 JUMP JUMPDEST PUSH1 0x20 DUP3 ADD SWAP1 POP SWAP2 SWAP1 POP JUMP JUMPDEST PUSH1 0x0 PUSH1 0x20 DUP3 ADD SWAP1 POP DUP2 DUP2 SUB PUSH1 0x0 DUP4 ADD MSTORE PUSH2 0x103D DUP2 PUSH2 0x1001 JUMP JUMPDEST SWAP1 POP SWAP2 SWAP1 POP JUMP JUMPDEST PUSH32 0x4E6F7420456E6F7567682046756E647300000000000000000000000000000000 PUSH1 0x0 DUP3 ADD MSTORE POP JUMP JUMPDEST PUSH1 0x0 PUSH2 0x107A PUSH1 0x10 DUP4 PUSH2 0xFC7 JUMP JUMPDEST SWAP2 POP PUSH2 0x1085 DUP3 PUSH2 0x1044 JUMP JUMPDEST PUSH1 0x20 DUP3 ADD SWAP1 POP SWAP2 SWAP1 POP JUMP JUMPDEST PUSH1 0x0 PUSH1 0x20 DUP3 ADD SWAP1 POP DUP2 DUP2 SUB PUSH1 0x0 DUP4 ADD MSTORE PUSH2 0x10A9 DUP2 PUSH2 0x106D JUMP JUMPDEST SWAP1 POP SWAP2 SWAP1 POP JUMP JUMPDEST PUSH32 0x4E487B7100000000000000000000000000000000000000000000000000000000 PUSH1 0x0 MSTORE PUSH1 0x11 PUSH1 0x4 MSTORE PUSH1 0x24 PUSH1 0x0 REVERT JUMPDEST PUSH1 0x0 PUSH2 0x10EA DUP3 PUSH2 0xCDF JUMP JUMPDEST SWAP2 POP PUSH2 0x10F5 DUP4 PUSH2 0xCDF JUMP JUMPDEST SWAP3 POP DUP3 DUP3 LT ISZERO PUSH2 0x1108 JUMPI PUSH2 0x1107 PUSH2 0x10B0 JUMP JUMPDEST JUMPDEST DUP3 DUP3 SUB SWAP1 POP SWAP3 SWAP2 POP POP JUMP JUMPDEST PUSH32 0x596F7520417265204E6F74204F776E6572000000000000000000000000000000 PUSH1 0x0 DUP3 ADD MSTORE POP JUMP JUMPDEST PUSH1 0x0 PUSH2 0x1149 PUSH1 0x11 DUP4 PUSH2 0xFC7 JUMP JUMPDEST SWAP2 POP PUSH2 0x1154 DUP3 PUSH2 0x1113 JUMP JUMPDEST PUSH1 0x20 DUP3 ADD SWAP1 POP SWAP2 SWAP1 POP JUMP JUMPDEST PUSH1 0x0 PUSH1 0x20 DUP3 ADD SWAP1 POP DUP2 DUP2 SUB PUSH1 0x0 DUP4 ADD MSTORE PUSH2 0x1178 DUP2 PUSH2 0x113C JUMP JUMPDEST SWAP1 POP SWAP2 SWAP1 POP JUMP JUMPDEST PUSH1 0x0 DUP2 MLOAD SWAP1 POP PUSH2 0x118E DUP2 PUSH2 0xCE9 JUMP JUMPDEST SWAP3 SWAP2 POP POP JUMP JUMPDEST PUSH1 0x0 PUSH1 0x20 DUP3 DUP5 SUB SLT ISZERO PUSH2 0x11AA JUMPI PUSH2 0x11A9 PUSH2 0xCDA JUMP JUMPDEST JUMPDEST PUSH1 0x0 PUSH2 0x11B8 DUP5 DUP3 DUP6 ADD PUSH2 0x117F JUMP JUMPDEST SWAP2 POP POP SWAP3 SWAP2 POP POP JUMP JUMPDEST PUSH1 0x0 PUSH2 0x11CC DUP3 PUSH2 0xCDF JUMP JUMPDEST SWAP2 POP PUSH2 0x11D7 DUP4 PUSH2 0xCDF JUMP JUMPDEST SWAP3 POP DUP3 PUSH32 0xFFFFFFFFFFFFFFFFFFFFFFFFFFFFFFFFFFFFFFFFFFFFFFFFFFFFFFFFFFFFFFFF SUB DUP3 GT ISZERO PUSH2 0x120C JUMPI PUSH2 0x120B PUSH2 0x10B0 JUMP JUMPDEST JUMPDEST DUP3 DUP3 ADD SWAP1 POP SWAP3 SWAP2 POP POP JUMP JUMPDEST PUSH32 0x4E487B7100000000000000000000000000000000000000000000000000000000 PUSH1 0x0 MSTORE PUSH1 0x1 PUSH1 0x4 MSTORE PUSH1 0x24 PUSH1 0x0 REVERT JUMPDEST PUSH1 0x0 PUSH2 0x1251 DUP3 PUSH2 0xCDF JUMP JUMPDEST SWAP2 POP PUSH32 0xFFFFFFFFFFFFFFFFFFFFFFFFFFFFFFFFFFFFFFFFFFFFFFFFFFFFFFFFFFFFFFFF DUP3 SUB PUSH2 0x1283 JUMPI PUSH2 0x1282 PUSH2 0x10B0 JUMP JUMPDEST JUMPDEST PUSH1 0x1 DUP3 ADD SWAP1 POP SWAP2 SWAP1 POP JUMP JUMPDEST PUSH1 0x0 PUSH2 0x1299 DUP3 PUSH2 0xF1A JUMP JUMPDEST SWAP2 POP PUSH2 0x12A4 DUP4 PUSH2 0xF1A JUMP JUMPDEST SWAP3 POP DUP2 PUSH8 0xFFFFFFFFFFFFFFFF DIV DUP4 GT DUP3 ISZERO ISZERO AND ISZERO PUSH2 0x12C5 JUMPI PUSH2 0x12C4 PUSH2 0x10B0 JUMP JUMPDEST JUMPDEST DUP3 DUP3 MUL SWAP1 POP SWAP3 SWAP2 POP POP JUMP INVALID LOG2 PUSH5 0x6970667358 0x22 SLT KECCAK256 DUP13 MULMOD 0xDE MSIZE SSTORE 0x4C 0xD3 0xEC 0xE6 MSIZE MSIZE ADD 0x4E 0xEC 0xB5 EXTCODESIZE 0xA8 0x2C RETURNDATACOPY COINBASE 0xFC 0xB8 CALLER NUMBER PUSH19 0x752389FC25A9EB64736F6C634300080F003300 "
				},
				"gasEstimates": {
					"creation": {
						"codeDepositCost": "974000",
						"executionCost": "25280",
						"totalCost": "999280"
					},
					"external": {
						"destroyThis(address)": "30242",
						"getBalance()": "362",
						"paused()": "2565",
						"receiveMoney()": "infinite",
						"senderAddresses(address)": "infinite",
						"setPaused(bool)": "26941",
						"towei(uint64)": "infinite",
						"withdraw()": "infinite",
						"withdrawAmount(uint256)": "infinite",
						"withdrawToAnotherAddress(address)": "infinite",
						"withdrawToAnotherAddressWithAmount(address,uint256)": "infinite"
					}
				},
				"methodIdentifiers": {
					"destroyThis(address)": "59f7f068",
					"getBalance()": "12065fe0",
					"paused()": "5c975abb",
					"receiveMoney()": "6d26ec18",
					"senderAddresses(address)": "55f18c68",
					"setPaused(bool)": "16c38b3c",
					"towei(uint64)": "71dd7158",
					"withdraw()": "3ccfd60b",
					"withdrawAmount(uint256)": "0562b9f7",
					"withdrawToAnotherAddress(address)": "2e4a47e1",
					"withdrawToAnotherAddressWithAmount(address,uint256)": "e434a871"
				}
			},
			"storageLayout": {
				"storage": [
					{
						"astId": 18,
						"contract": "contracts/Require.sol:Require",
						"label": "owner",
						"offset": 0,
						"slot": "0",
						"type": "t_address"
					},
					{
						"astId": 20,
						"contract": "contracts/Require.sol:Require",
						"label": "paused",
						"offset": 20,
						"slot": "0",
						"type": "t_bool"
					},
					{
						"astId": 25,
						"contract": "contracts/Require.sol:Require",
						"label": "senderAddresses",
						"offset": 0,
						"slot": "1",
						"type": "t_mapping(t_address,t_struct(Balance)16_storage)"
					}
				],
				"types": {
					"t_address": {
						"encoding": "inplace",
						"label": "address",
						"numberOfBytes": "20"
					},
					"t_bool": {
						"encoding": "inplace",
						"label": "bool",
						"numberOfBytes": "1"
					},
					"t_mapping(t_address,t_struct(Balance)16_storage)": {
						"encoding": "mapping",
						"key": "t_address",
						"label": "mapping(address => struct Require.Balance)",
						"numberOfBytes": "32",
						"value": "t_struct(Balance)16_storage"
					},
					"t_mapping(t_uint256,t_struct(Payment)6_storage)": {
						"encoding": "mapping",
						"key": "t_uint256",
						"label": "mapping(uint256 => struct Require.Payment)",
						"numberOfBytes": "32",
						"value": "t_struct(Payment)6_storage"
					},
					"t_struct(Balance)16_storage": {
						"encoding": "inplace",
						"label": "struct Require.Balance",
						"members": [
							{
								"astId": 8,
								"contract": "contracts/Require.sol:Require",
								"label": "totalBalance",
								"offset": 0,
								"slot": "0",
								"type": "t_uint256"
							},
							{
								"astId": 10,
								"contract": "contracts/Require.sol:Require",
								"label": "numPayments",
								"offset": 0,
								"slot": "1",
								"type": "t_uint256"
							},
							{
								"astId": 15,
								"contract": "contracts/Require.sol:Require",
								"label": "payments",
								"offset": 0,
								"slot": "2",
								"type": "t_mapping(t_uint256,t_struct(Payment)6_storage)"
							}
						],
						"numberOfBytes": "96"
					},
					"t_struct(Payment)6_storage": {
						"encoding": "inplace",
						"label": "struct Require.Payment",
						"members": [
							{
								"astId": 3,
								"contract": "contracts/Require.sol:Require",
								"label": "amount",
								"offset": 0,
								"slot": "0",
								"type": "t_uint256"
							},
							{
								"astId": 5,
								"contract": "contracts/Require.sol:Require",
								"label": "time",
								"offset": 0,
								"slot": "1",
								"type": "t_uint256"
							}
						],
						"numberOfBytes": "64"
					},
					"t_uint256": {
						"encoding": "inplace",
						"label": "uint256",
						"numberOfBytes": "32"
					}
				}
			},
			"userdoc": {
				"kind": "user",
				"methods": {},
				"version": 1
			}
		}
	}
}