{
	"contracts/Require.sol": {
		"Require": {
			"abi": [
				{
					"inputs": [],
					"stateMutability": "nonpayable",
					"type": "constructor"
				},
				{
					"inputs": [
						{
							"internalType": "address payable",
							"name": "_to",
							"type": "address"
						}
					],
					"name": "destroyThis",
					"outputs": [],
					"stateMutability": "nonpayable",
					"type": "function"
				},
				{
					"inputs": [],
					"name": "getBalance",
					"outputs": [
						{
							"internalType": "uint256",
							"name": "",
							"type": "uint256"
						}
					],
					"stateMutability": "view",
					"type": "function"
				},
				{
					"inputs": [],
					"name": "paused",
					"outputs": [
						{
							"internalType": "bool",
							"name": "",
							"type": "bool"
						}
					],
					"stateMutability": "view",
					"type": "function"
				},
				{
					"inputs": [],
					"name": "receiveMoney",
					"outputs": [],
					"stateMutability": "payable",
					"type": "function"
				},
				{
					"inputs": [
						{
							"internalType": "address",
							"name": "",
							"type": "address"
						}
					],
					"name": "senderAddresses",
					"outputs": [
						{
							"internalType": "uint256",
							"name": "totalBalance",
							"type": "uint256"
						},
						{
							"internalType": "uint256",
							"name": "numPayments",
							"type": "uint256"
						}
					],
					"stateMutability": "view",
					"type": "function"
				},
				{
					"inputs": [
						{
							"internalType": "bool",
							"name": "_paused",
							"type": "bool"
						}
					],
					"name": "setPaused",
					"outputs": [],
					"stateMutability": "nonpayable",
					"type": "function"
				},
				{
					"inputs": [
						{
							"internalType": "uint256",
							"name": "amount",
							"type": "uint256"
						}
					],
					"name": "towei",
					"outputs": [
						{
							"internalType": "uint256",
							"name": "",
							"type": "uint256"
						}
					],
					"stateMutability": "pure",
					"type": "function"
				},
				{
					"inputs": [],
					"name": "withdraw",
					"outputs": [],
					"stateMutability": "nonpayable",
					"type": "function"
				},
				{
					"inputs": [
						{
							"internalType": "uint256",
							"name": "amount",
							"type": "uint256"
						}
					],
					"name": "withdrawAmount",
					"outputs": [],
					"stateMutability": "nonpayable",
					"type": "function"
				},
				{
					"inputs": [
						{
							"internalType": "address payable",
							"name": "to",
							"type": "address"
						}
					],
					"name": "withdrawToAnotherAddress",
					"outputs": [],
					"stateMutability": "nonpayable",
					"type": "function"
				},
				{
					"inputs": [
						{
							"internalType": "address payable",
							"name": "to",
							"type": "address"
						},
						{
							"internalType": "uint256",
							"name": "amount",
							"type": "uint256"
						}
					],
					"name": "withdrawToAnotherAddressWithAmount",
					"outputs": [],
					"stateMutability": "nonpayable",
					"type": "function"
				}
			],
			"devdoc": {
				"kind": "dev",
				"methods": {},
				"version": 1
			},
			"evm": {
				"assembly": "    /* \"contracts/Require.sol\":57:2586  contract Require{... */\n  mstore(0x40, 0x80)\n    /* \"contracts/Require.sol\":505:554  constructor() {... */\n  callvalue\n  dup1\n  iszero\n  tag_1\n  jumpi\n  0x00\n  dup1\n  revert\ntag_1:\n  pop\n    /* \"contracts/Require.sol\":537:547  msg.sender */\n  caller\n    /* \"contracts/Require.sol\":529:534  owner */\n  0x00\n  dup1\n    /* \"contracts/Require.sol\":529:547  owner = msg.sender */\n  0x0100\n  exp\n  dup2\n  sload\n  dup2\n  0xffffffffffffffffffffffffffffffffffffffff\n  mul\n  not\n  and\n  swap1\n  dup4\n  0xffffffffffffffffffffffffffffffffffffffff\n  and\n  mul\n  or\n  swap1\n  sstore\n  pop\n    /* \"contracts/Require.sol\":57:2586  contract Require{... */\n  dataSize(sub_0)\n  dup1\n  dataOffset(sub_0)\n  0x00\n  codecopy\n  0x00\n  return\nstop\n\nsub_0: assembly {\n        /* \"contracts/Require.sol\":57:2586  contract Require{... */\n      mstore(0x40, 0x80)\n      jumpi(tag_1, lt(calldatasize, 0x04))\n      shr(0xe0, calldataload(0x00))\n      dup1\n      0x4c64d36b\n      gt\n      tag_13\n      jumpi\n      dup1\n      0x4c64d36b\n      eq\n      tag_7\n      jumpi\n      dup1\n      0x55f18c68\n      eq\n      tag_8\n      jumpi\n      dup1\n      0x59f7f068\n      eq\n      tag_9\n      jumpi\n      dup1\n      0x5c975abb\n      eq\n      tag_10\n      jumpi\n      dup1\n      0x6d26ec18\n      eq\n      tag_11\n      jumpi\n      dup1\n      0xe434a871\n      eq\n      tag_12\n      jumpi\n      jump(tag_1)\n    tag_13:\n      dup1\n      0x0562b9f7\n      eq\n      tag_2\n      jumpi\n      dup1\n      0x12065fe0\n      eq\n      tag_3\n      jumpi\n      dup1\n      0x16c38b3c\n      eq\n      tag_4\n      jumpi\n      dup1\n      0x2e4a47e1\n      eq\n      tag_5\n      jumpi\n      dup1\n      0x3ccfd60b\n      eq\n      tag_6\n      jumpi\n    tag_1:\n      0x00\n      dup1\n      revert\n        /* \"contracts/Require.sol\":1544:1852  function withdrawAmount(uint amount) public{... */\n    tag_2:\n      callvalue\n      dup1\n      iszero\n      tag_14\n      jumpi\n      0x00\n      dup1\n      revert\n    tag_14:\n      pop\n      tag_15\n      0x04\n      dup1\n      calldatasize\n      sub\n      dup2\n      add\n      swap1\n      tag_16\n      swap2\n      swap1\n      tag_17\n      jump\t// in\n    tag_16:\n      tag_18\n      jump\t// in\n    tag_15:\n      stop\n        /* \"contracts/Require.sol\":1203:1295  function getBalance() public view returns(uint){... */\n    tag_3:\n      callvalue\n      dup1\n      iszero\n      tag_19\n      jumpi\n      0x00\n      dup1\n      revert\n    tag_19:\n      pop\n      tag_20\n      tag_21\n      jump\t// in\n    tag_20:\n      mload(0x40)\n      tag_22\n      swap2\n      swap1\n      tag_23\n      jump\t// in\n    tag_22:\n      mload(0x40)\n      dup1\n      swap2\n      sub\n      swap1\n      return\n        /* \"contracts/Require.sol\":1064:1197  function setPaused(bool _paused) public {... */\n    tag_4:\n      callvalue\n      dup1\n      iszero\n      tag_24\n      jumpi\n      0x00\n      dup1\n      revert\n    tag_24:\n      pop\n      tag_25\n      0x04\n      dup1\n      calldatasize\n      sub\n      dup2\n      add\n      swap1\n      tag_26\n      swap2\n      swap1\n      tag_27\n      jump\t// in\n    tag_26:\n      tag_28\n      jump\t// in\n    tag_25:\n      stop\n        /* \"contracts/Require.sol\":2223:2378  function withdrawToAnotherAddress(address payable to) public checkOwner{... */\n    tag_5:\n      callvalue\n      dup1\n      iszero\n      tag_29\n      jumpi\n      0x00\n      dup1\n      revert\n    tag_29:\n      pop\n      tag_30\n      0x04\n      dup1\n      calldatasize\n      sub\n      dup2\n      add\n      swap1\n      tag_31\n      swap2\n      swap1\n      tag_32\n      jump\t// in\n    tag_31:\n      tag_33\n      jump\t// in\n    tag_30:\n      stop\n        /* \"contracts/Require.sol\":1301:1538  function withdraw() public{... */\n    tag_6:\n      callvalue\n      dup1\n      iszero\n      tag_34\n      jumpi\n      0x00\n      dup1\n      revert\n    tag_34:\n      pop\n      tag_35\n      tag_36\n      jump\t// in\n    tag_35:\n      stop\n        /* \"contracts/Require.sol\":2485:2584  function towei(uint256 amount) public pure returns(uint256){... */\n    tag_7:\n      callvalue\n      dup1\n      iszero\n      tag_37\n      jumpi\n      0x00\n      dup1\n      revert\n    tag_37:\n      pop\n      tag_38\n      0x04\n      dup1\n      calldatasize\n      sub\n      dup2\n      add\n      swap1\n      tag_39\n      swap2\n      swap1\n      tag_17\n      jump\t// in\n    tag_39:\n      tag_40\n      jump\t// in\n    tag_38:\n      mload(0x40)\n      tag_41\n      swap2\n      swap1\n      tag_23\n      jump\t// in\n    tag_41:\n      mload(0x40)\n      dup1\n      swap2\n      sub\n      swap1\n      return\n        /* \"contracts/Require.sol\":448:498  mapping(address => Balance) public senderAddresses */\n    tag_8:\n      callvalue\n      dup1\n      iszero\n      tag_42\n      jumpi\n      0x00\n      dup1\n      revert\n    tag_42:\n      pop\n      tag_43\n      0x04\n      dup1\n      calldatasize\n      sub\n      dup2\n      add\n      swap1\n      tag_44\n      swap2\n      swap1\n      tag_45\n      jump\t// in\n    tag_44:\n      tag_46\n      jump\t// in\n    tag_43:\n      mload(0x40)\n      tag_47\n      swap3\n      swap2\n      swap1\n      tag_48\n      jump\t// in\n    tag_47:\n      mload(0x40)\n      dup1\n      swap2\n      sub\n      swap1\n      return\n        /* \"contracts/Require.sol\":2384:2479  function destroyThis (address payable _to) public checkOwner {... */\n    tag_9:\n      callvalue\n      dup1\n      iszero\n      tag_49\n      jumpi\n      0x00\n      dup1\n      revert\n    tag_49:\n      pop\n      tag_50\n      0x04\n      dup1\n      calldatasize\n      sub\n      dup2\n      add\n      swap1\n      tag_51\n      swap2\n      swap1\n      tag_32\n      jump\t// in\n    tag_51:\n      tag_52\n      jump\t// in\n    tag_50:\n      stop\n        /* \"contracts/Require.sol\":424:442  bool public paused */\n    tag_10:\n      callvalue\n      dup1\n      iszero\n      tag_53\n      jumpi\n      0x00\n      dup1\n      revert\n    tag_53:\n      pop\n      tag_54\n      tag_55\n      jump\t// in\n    tag_54:\n      mload(0x40)\n      tag_56\n      swap2\n      swap1\n      tag_57\n      jump\t// in\n    tag_56:\n      mload(0x40)\n      dup1\n      swap2\n      sub\n      swap1\n      return\n        /* \"contracts/Require.sol\":565:1058  function receiveMoney() public payable{... */\n    tag_11:\n      tag_58\n      tag_59\n      jump\t// in\n    tag_58:\n      stop\n        /* \"contracts/Require.sol\":1858:2217  function withdrawToAnotherAddressWithAmount(address payable to , uint amount) public{... */\n    tag_12:\n      callvalue\n      dup1\n      iszero\n      tag_60\n      jumpi\n      0x00\n      dup1\n      revert\n    tag_60:\n      pop\n      tag_61\n      0x04\n      dup1\n      calldatasize\n      sub\n      dup2\n      add\n      swap1\n      tag_62\n      swap2\n      swap1\n      tag_63\n      jump\t// in\n    tag_62:\n      tag_64\n      jump\t// in\n    tag_61:\n      stop\n        /* \"contracts/Require.sol\":1544:1852  function withdrawAmount(uint amount) public{... */\n    tag_18:\n        /* \"contracts/Require.sol\":1606:1612  paused */\n      0x00\n      0x14\n      swap1\n      sload\n      swap1\n      0x0100\n      exp\n      swap1\n      div\n      0xff\n      and\n        /* \"contracts/Require.sol\":1605:1612  !paused */\n      iszero\n        /* \"contracts/Require.sol\":1597:1624  require(!paused , \"Paused\") */\n      tag_66\n      jumpi\n      mload(0x40)\n      0x08c379a000000000000000000000000000000000000000000000000000000000\n      dup2\n      mstore\n      0x04\n      add\n      tag_67\n      swap1\n      tag_68\n      jump\t// in\n    tag_67:\n      mload(0x40)\n      dup1\n      swap2\n      sub\n      swap1\n      revert\n    tag_66:\n        /* \"contracts/Require.sol\":1634:1652  address payable to */\n      0x00\n        /* \"contracts/Require.sol\":1663:1673  msg.sender */\n      caller\n        /* \"contracts/Require.sol\":1634:1674  address payable to = payable(msg.sender) */\n      swap1\n      pop\n        /* \"contracts/Require.sol\":1728:1734  amount */\n      dup2\n        /* \"contracts/Require.sol\":1692:1707  senderAddresses */\n      0x01\n        /* \"contracts/Require.sol\":1692:1711  senderAddresses[to] */\n      0x00\n        /* \"contracts/Require.sol\":1708:1710  to */\n      dup4\n        /* \"contracts/Require.sol\":1692:1711  senderAddresses[to] */\n      0xffffffffffffffffffffffffffffffffffffffff\n      and\n      0xffffffffffffffffffffffffffffffffffffffff\n      and\n      dup2\n      mstore\n      0x20\n      add\n      swap1\n      dup2\n      mstore\n      0x20\n      add\n      0x00\n      keccak256\n        /* \"contracts/Require.sol\":1692:1724  senderAddresses[to].totalBalance */\n      0x00\n      add\n      sload\n        /* \"contracts/Require.sol\":1692:1734  senderAddresses[to].totalBalance >= amount */\n      lt\n      iszero\n        /* \"contracts/Require.sol\":1684:1756  require(senderAddresses[to].totalBalance >= amount , \"Not Enough Funds\") */\n      tag_69\n      jumpi\n      mload(0x40)\n      0x08c379a000000000000000000000000000000000000000000000000000000000\n      dup2\n      mstore\n      0x04\n      add\n      tag_70\n      swap1\n      tag_71\n      jump\t// in\n    tag_70:\n      mload(0x40)\n      dup1\n      swap2\n      sub\n      swap1\n      revert\n    tag_69:\n        /* \"contracts/Require.sol\":1766:1768  to */\n      dup1\n        /* \"contracts/Require.sol\":1766:1777  to.transfer */\n      0xffffffffffffffffffffffffffffffffffffffff\n      and\n        /* \"contracts/Require.sol\":1766:1785  to.transfer(amount) */\n      0x08fc\n        /* \"contracts/Require.sol\":1778:1784  amount */\n      dup4\n        /* \"contracts/Require.sol\":1766:1785  to.transfer(amount) */\n      swap1\n      dup2\n      iszero\n      mul\n      swap1\n      mload(0x40)\n      0x00\n      mload(0x40)\n      dup1\n      dup4\n      sub\n      dup2\n      dup6\n      dup9\n      dup9\n      call\n      swap4\n      pop\n      pop\n      pop\n      pop\n      iszero\n      dup1\n      iszero\n      tag_73\n      jumpi\n      returndatasize\n      0x00\n      dup1\n      returndatacopy\n      revert(0x00, returndatasize)\n    tag_73:\n      pop\n        /* \"contracts/Require.sol\":1839:1845  amount */\n      dup2\n        /* \"contracts/Require.sol\":1795:1810  senderAddresses */\n      0x01\n        /* \"contracts/Require.sol\":1795:1822  senderAddresses[msg.sender] */\n      0x00\n        /* \"contracts/Require.sol\":1811:1821  msg.sender */\n      caller\n        /* \"contracts/Require.sol\":1795:1822  senderAddresses[msg.sender] */\n      0xffffffffffffffffffffffffffffffffffffffff\n      and\n      0xffffffffffffffffffffffffffffffffffffffff\n      and\n      dup2\n      mstore\n      0x20\n      add\n      swap1\n      dup2\n      mstore\n      0x20\n      add\n      0x00\n      keccak256\n        /* \"contracts/Require.sol\":1795:1835  senderAddresses[msg.sender].totalBalance */\n      0x00\n      add\n      0x00\n        /* \"contracts/Require.sol\":1795:1845  senderAddresses[msg.sender].totalBalance -= amount */\n      dup3\n      dup3\n      sload\n      tag_74\n      swap2\n      swap1\n      tag_75\n      jump\t// in\n    tag_74:\n      swap3\n      pop\n      pop\n      dup2\n      swap1\n      sstore\n      pop\n        /* \"contracts/Require.sol\":1587:1852  {... */\n      pop\n        /* \"contracts/Require.sol\":1544:1852  function withdrawAmount(uint amount) public{... */\n      pop\n      jump\t// out\n        /* \"contracts/Require.sol\":1203:1295  function getBalance() public view returns(uint){... */\n    tag_21:\n        /* \"contracts/Require.sol\":1245:1249  uint */\n      0x00\n        /* \"contracts/Require.sol\":1267:1288  address(this).balance */\n      selfbalance\n        /* \"contracts/Require.sol\":1260:1288  return address(this).balance */\n      swap1\n      pop\n        /* \"contracts/Require.sol\":1203:1295  function getBalance() public view returns(uint){... */\n      swap1\n      jump\t// out\n        /* \"contracts/Require.sol\":1064:1197  function setPaused(bool _paused) public {... */\n    tag_28:\n        /* \"contracts/Require.sol\":1131:1141  msg.sender */\n      caller\n        /* \"contracts/Require.sol\":1122:1141  owner == msg.sender */\n      0xffffffffffffffffffffffffffffffffffffffff\n      and\n        /* \"contracts/Require.sol\":1122:1127  owner */\n      0x00\n      dup1\n      sload\n      swap1\n      0x0100\n      exp\n      swap1\n      div\n      0xffffffffffffffffffffffffffffffffffffffff\n      and\n        /* \"contracts/Require.sol\":1122:1141  owner == msg.sender */\n      0xffffffffffffffffffffffffffffffffffffffff\n      and\n      eq\n        /* \"contracts/Require.sol\":1114:1164  require(owner == msg.sender , \"You Are Not Owner\") */\n      tag_78\n      jumpi\n      mload(0x40)\n      0x08c379a000000000000000000000000000000000000000000000000000000000\n      dup2\n      mstore\n      0x04\n      add\n      tag_79\n      swap1\n      tag_80\n      jump\t// in\n    tag_79:\n      mload(0x40)\n      dup1\n      swap2\n      sub\n      swap1\n      revert\n    tag_78:\n        /* \"contracts/Require.sol\":1183:1190  _paused */\n      dup1\n        /* \"contracts/Require.sol\":1174:1180  paused */\n      0x00\n      0x14\n        /* \"contracts/Require.sol\":1174:1190  paused = _paused */\n      0x0100\n      exp\n      dup2\n      sload\n      dup2\n      0xff\n      mul\n      not\n      and\n      swap1\n      dup4\n      iszero\n      iszero\n      mul\n      or\n      swap1\n      sstore\n      pop\n        /* \"contracts/Require.sol\":1064:1197  function setPaused(bool _paused) public {... */\n      pop\n      jump\t// out\n        /* \"contracts/Require.sol\":2223:2378  function withdrawToAnotherAddress(address payable to) public checkOwner{... */\n    tag_33:\n        /* \"contracts/Require.sol\":2313:2319  paused */\n      0x00\n      0x14\n      swap1\n      sload\n      swap1\n      0x0100\n      exp\n      swap1\n      div\n      0xff\n      and\n        /* \"contracts/Require.sol\":2312:2319  !paused */\n      iszero\n        /* \"contracts/Require.sol\":2304:2331  require(!paused , \"Paused\") */\n      tag_83\n      jumpi\n      mload(0x40)\n      0x08c379a000000000000000000000000000000000000000000000000000000000\n      dup2\n      mstore\n      0x04\n      add\n      tag_84\n      swap1\n      tag_68\n      jump\t// in\n    tag_84:\n      mload(0x40)\n      dup1\n      swap2\n      sub\n      swap1\n      revert\n    tag_83:\n        /* \"contracts/Require.sol\":2341:2343  to */\n      dup1\n        /* \"contracts/Require.sol\":2341:2352  to.transfer */\n      0xffffffffffffffffffffffffffffffffffffffff\n      and\n        /* \"contracts/Require.sol\":2341:2371  to.transfer(this.getBalance()) */\n      0x08fc\n        /* \"contracts/Require.sol\":2353:2357  this */\n      address\n        /* \"contracts/Require.sol\":2353:2368  this.getBalance */\n      0xffffffffffffffffffffffffffffffffffffffff\n      and\n      0x12065fe0\n        /* \"contracts/Require.sol\":2353:2370  this.getBalance() */\n      mload(0x40)\n      dup2\n      0xffffffff\n      and\n      0xe0\n      shl\n      dup2\n      mstore\n      0x04\n      add\n      0x20\n      mload(0x40)\n      dup1\n      dup4\n      sub\n      dup2\n      dup7\n      gas\n      staticcall\n      iszero\n      dup1\n      iszero\n      tag_86\n      jumpi\n      returndatasize\n      0x00\n      dup1\n      returndatacopy\n      revert(0x00, returndatasize)\n    tag_86:\n      pop\n      pop\n      pop\n      pop\n      mload(0x40)\n      returndatasize\n      not(0x1f)\n      0x1f\n      dup3\n      add\n      and\n      dup3\n      add\n      dup1\n      0x40\n      mstore\n      pop\n      dup2\n      add\n      swap1\n      tag_87\n      swap2\n      swap1\n      tag_88\n      jump\t// in\n    tag_87:\n        /* \"contracts/Require.sol\":2341:2371  to.transfer(this.getBalance()) */\n      swap1\n      dup2\n      iszero\n      mul\n      swap1\n      mload(0x40)\n      0x00\n      mload(0x40)\n      dup1\n      dup4\n      sub\n      dup2\n      dup6\n      dup9\n      dup9\n      call\n      swap4\n      pop\n      pop\n      pop\n      pop\n      iszero\n      dup1\n      iszero\n      tag_90\n      jumpi\n      returndatasize\n      0x00\n      dup1\n      returndatacopy\n      revert(0x00, returndatasize)\n    tag_90:\n      pop\n        /* \"contracts/Require.sol\":2223:2378  function withdrawToAnotherAddress(address payable to) public checkOwner{... */\n      pop\n      jump\t// out\n        /* \"contracts/Require.sol\":1301:1538  function withdraw() public{... */\n    tag_36:\n        /* \"contracts/Require.sol\":1346:1352  paused */\n      0x00\n      0x14\n      swap1\n      sload\n      swap1\n      0x0100\n      exp\n      swap1\n      div\n      0xff\n      and\n        /* \"contracts/Require.sol\":1345:1352  !paused */\n      iszero\n        /* \"contracts/Require.sol\":1337:1364  require(!paused , \"Paused\") */\n      tag_92\n      jumpi\n      mload(0x40)\n      0x08c379a000000000000000000000000000000000000000000000000000000000\n      dup2\n      mstore\n      0x04\n      add\n      tag_93\n      swap1\n      tag_68\n      jump\t// in\n    tag_93:\n      mload(0x40)\n      dup1\n      swap2\n      sub\n      swap1\n      revert\n    tag_92:\n        /* \"contracts/Require.sol\":1374:1392  address payable to */\n      0x00\n        /* \"contracts/Require.sol\":1403:1413  msg.sender */\n      caller\n        /* \"contracts/Require.sol\":1374:1414  address payable to = payable(msg.sender) */\n      swap1\n      pop\n        /* \"contracts/Require.sol\":1424:1426  to */\n      dup1\n        /* \"contracts/Require.sol\":1424:1435  to.transfer */\n      0xffffffffffffffffffffffffffffffffffffffff\n      and\n        /* \"contracts/Require.sol\":1424:1477  to.transfer(senderAddresses[msg.sender].totalBalance) */\n      0x08fc\n        /* \"contracts/Require.sol\":1436:1451  senderAddresses */\n      0x01\n        /* \"contracts/Require.sol\":1436:1463  senderAddresses[msg.sender] */\n      0x00\n        /* \"contracts/Require.sol\":1452:1462  msg.sender */\n      caller\n        /* \"contracts/Require.sol\":1436:1463  senderAddresses[msg.sender] */\n      0xffffffffffffffffffffffffffffffffffffffff\n      and\n      0xffffffffffffffffffffffffffffffffffffffff\n      and\n      dup2\n      mstore\n      0x20\n      add\n      swap1\n      dup2\n      mstore\n      0x20\n      add\n      0x00\n      keccak256\n        /* \"contracts/Require.sol\":1436:1476  senderAddresses[msg.sender].totalBalance */\n      0x00\n      add\n      sload\n        /* \"contracts/Require.sol\":1424:1477  to.transfer(senderAddresses[msg.sender].totalBalance) */\n      swap1\n      dup2\n      iszero\n      mul\n      swap1\n      mload(0x40)\n      0x00\n      mload(0x40)\n      dup1\n      dup4\n      sub\n      dup2\n      dup6\n      dup9\n      dup9\n      call\n      swap4\n      pop\n      pop\n      pop\n      pop\n      iszero\n      dup1\n      iszero\n      tag_95\n      jumpi\n      returndatasize\n      0x00\n      dup1\n      returndatacopy\n      revert(0x00, returndatasize)\n    tag_95:\n      pop\n        /* \"contracts/Require.sol\":1530:1531  0 */\n      0x00\n        /* \"contracts/Require.sol\":1487:1502  senderAddresses */\n      0x01\n        /* \"contracts/Require.sol\":1487:1514  senderAddresses[msg.sender] */\n      0x00\n        /* \"contracts/Require.sol\":1503:1513  msg.sender */\n      caller\n        /* \"contracts/Require.sol\":1487:1514  senderAddresses[msg.sender] */\n      0xffffffffffffffffffffffffffffffffffffffff\n      and\n      0xffffffffffffffffffffffffffffffffffffffff\n      and\n      dup2\n      mstore\n      0x20\n      add\n      swap1\n      dup2\n      mstore\n      0x20\n      add\n      0x00\n      keccak256\n        /* \"contracts/Require.sol\":1487:1527  senderAddresses[msg.sender].totalBalance */\n      0x00\n      add\n        /* \"contracts/Require.sol\":1487:1531  senderAddresses[msg.sender].totalBalance = 0 */\n      dup2\n      swap1\n      sstore\n      pop\n        /* \"contracts/Require.sol\":1327:1538  {... */\n      pop\n        /* \"contracts/Require.sol\":1301:1538  function withdraw() public{... */\n      jump\t// out\n        /* \"contracts/Require.sol\":2485:2584  function towei(uint256 amount) public pure returns(uint256){... */\n    tag_40:\n        /* \"contracts/Require.sol\":2536:2543  uint256 */\n      0x00\n        /* \"contracts/Require.sol\":2570:2577  1 ether */\n      0x0de0b6b3a7640000\n        /* \"contracts/Require.sol\":2561:2567  amount */\n      dup3\n        /* \"contracts/Require.sol\":2561:2577  amount * 1 ether */\n      tag_97\n      swap2\n      swap1\n      tag_98\n      jump\t// in\n    tag_97:\n        /* \"contracts/Require.sol\":2554:2577  return amount * 1 ether */\n      swap1\n      pop\n        /* \"contracts/Require.sol\":2485:2584  function towei(uint256 amount) public pure returns(uint256){... */\n      swap2\n      swap1\n      pop\n      jump\t// out\n        /* \"contracts/Require.sol\":448:498  mapping(address => Balance) public senderAddresses */\n    tag_46:\n      mstore(0x20, 0x01)\n      dup1\n      0x00\n      mstore\n      keccak256(0x00, 0x40)\n      0x00\n      swap2\n      pop\n      swap1\n      pop\n      dup1\n      0x00\n      add\n      sload\n      swap1\n      dup1\n      0x01\n      add\n      sload\n      swap1\n      pop\n      dup3\n      jump\t// out\n        /* \"contracts/Require.sol\":2384:2479  function destroyThis (address payable _to) public checkOwner {... */\n    tag_52:\n        /* \"contracts/Require.sol\":2468:2471  _to */\n      dup1\n        /* \"contracts/Require.sol\":2455:2472  selfdestruct(_to) */\n      0xffffffffffffffffffffffffffffffffffffffff\n      and\n      selfdestruct\n        /* \"contracts/Require.sol\":424:442  bool public paused */\n    tag_55:\n      0x00\n      0x14\n      swap1\n      sload\n      swap1\n      0x0100\n      exp\n      swap1\n      div\n      0xff\n      and\n      dup2\n      jump\t// out\n        /* \"contracts/Require.sol\":565:1058  function receiveMoney() public payable{... */\n    tag_59:\n        /* \"contracts/Require.sol\":622:628  paused */\n      0x00\n      0x14\n      swap1\n      sload\n      swap1\n      0x0100\n      exp\n      swap1\n      div\n      0xff\n      and\n        /* \"contracts/Require.sol\":621:628  !paused */\n      iszero\n        /* \"contracts/Require.sol\":613:640  require(!paused , \"Paused\") */\n      tag_102\n      jumpi\n      mload(0x40)\n      0x08c379a000000000000000000000000000000000000000000000000000000000\n      dup2\n      mstore\n      0x04\n      add\n      tag_103\n      swap1\n      tag_68\n      jump\t// in\n    tag_103:\n      mload(0x40)\n      dup1\n      swap2\n      sub\n      swap1\n      revert\n    tag_102:\n        /* \"contracts/Require.sol\":721:736  senderAddresses */\n      0x01\n        /* \"contracts/Require.sol\":721:748  senderAddresses[msg.sender] */\n      0x00\n        /* \"contracts/Require.sol\":737:747  msg.sender */\n      caller\n        /* \"contracts/Require.sol\":721:748  senderAddresses[msg.sender] */\n      0xffffffffffffffffffffffffffffffffffffffff\n      and\n      0xffffffffffffffffffffffffffffffffffffffff\n      and\n      dup2\n      mstore\n      0x20\n      add\n      swap1\n      dup2\n      mstore\n      0x20\n      add\n      0x00\n      keccak256\n        /* \"contracts/Require.sol\":721:761  senderAddresses[msg.sender].totalBalance */\n      0x00\n      add\n      sload\n        /* \"contracts/Require.sol\":707:716  msg.value */\n      callvalue\n        /* \"contracts/Require.sol\":657:717  senderAddresses[msg.sender].totalBalance + uint64(msg.value) */\n      0xffffffffffffffff\n      and\n        /* \"contracts/Require.sol\":657:672  senderAddresses */\n      0x01\n        /* \"contracts/Require.sol\":657:684  senderAddresses[msg.sender] */\n      0x00\n        /* \"contracts/Require.sol\":673:683  msg.sender */\n      caller\n        /* \"contracts/Require.sol\":657:684  senderAddresses[msg.sender] */\n      0xffffffffffffffffffffffffffffffffffffffff\n      and\n      0xffffffffffffffffffffffffffffffffffffffff\n      and\n      dup2\n      mstore\n      0x20\n      add\n      swap1\n      dup2\n      mstore\n      0x20\n      add\n      0x00\n      keccak256\n        /* \"contracts/Require.sol\":657:697  senderAddresses[msg.sender].totalBalance */\n      0x00\n      add\n      sload\n        /* \"contracts/Require.sol\":657:717  senderAddresses[msg.sender].totalBalance + uint64(msg.value) */\n      tag_104\n      swap2\n      swap1\n      tag_105\n      jump\t// in\n    tag_104:\n        /* \"contracts/Require.sol\":657:761  senderAddresses[msg.sender].totalBalance + uint64(msg.value) >= senderAddresses[msg.sender].totalBalance */\n      lt\n      iszero\n        /* \"contracts/Require.sol\":650:762  assert(senderAddresses[msg.sender].totalBalance + uint64(msg.value) >= senderAddresses[msg.sender].totalBalance) */\n      tag_106\n      jumpi\n      tag_107\n      tag_108\n      jump\t// in\n    tag_107:\n    tag_106:\n        /* \"contracts/Require.sol\":823:832  msg.value */\n      callvalue\n        /* \"contracts/Require.sol\":772:833  senderAddresses[msg.sender].totalBalance += uint64(msg.value) */\n      0xffffffffffffffff\n      and\n        /* \"contracts/Require.sol\":772:787  senderAddresses */\n      0x01\n        /* \"contracts/Require.sol\":772:799  senderAddresses[msg.sender] */\n      0x00\n        /* \"contracts/Require.sol\":788:798  msg.sender */\n      caller\n        /* \"contracts/Require.sol\":772:799  senderAddresses[msg.sender] */\n      0xffffffffffffffffffffffffffffffffffffffff\n      and\n      0xffffffffffffffffffffffffffffffffffffffff\n      and\n      dup2\n      mstore\n      0x20\n      add\n      swap1\n      dup2\n      mstore\n      0x20\n      add\n      0x00\n      keccak256\n        /* \"contracts/Require.sol\":772:812  senderAddresses[msg.sender].totalBalance */\n      0x00\n      add\n      0x00\n        /* \"contracts/Require.sol\":772:833  senderAddresses[msg.sender].totalBalance += uint64(msg.value) */\n      dup3\n      dup3\n      sload\n      tag_109\n      swap2\n      swap1\n      tag_105\n      jump\t// in\n    tag_109:\n      swap3\n      pop\n      pop\n      dup2\n      swap1\n      sstore\n      pop\n        /* \"contracts/Require.sol\":843:865  Payment memory payment */\n      0x00\n        /* \"contracts/Require.sol\":869:903  Payment(msg.value,block.timestamp) */\n      mload(0x40)\n      dup1\n      0x40\n      add\n      0x40\n      mstore\n      dup1\n        /* \"contracts/Require.sol\":877:886  msg.value */\n      callvalue\n        /* \"contracts/Require.sol\":869:903  Payment(msg.value,block.timestamp) */\n      dup2\n      mstore\n      0x20\n      add\n        /* \"contracts/Require.sol\":887:902  block.timestamp */\n      timestamp\n        /* \"contracts/Require.sol\":869:903  Payment(msg.value,block.timestamp) */\n      dup2\n      mstore\n      pop\n        /* \"contracts/Require.sol\":843:903  Payment memory payment =  Payment(msg.value,block.timestamp) */\n      swap1\n      pop\n        /* \"contracts/Require.sol\":993:1000  payment */\n      dup1\n        /* \"contracts/Require.sol\":913:928  senderAddresses */\n      0x01\n        /* \"contracts/Require.sol\":913:940  senderAddresses[msg.sender] */\n      0x00\n        /* \"contracts/Require.sol\":929:939  msg.sender */\n      caller\n        /* \"contracts/Require.sol\":913:940  senderAddresses[msg.sender] */\n      0xffffffffffffffffffffffffffffffffffffffff\n      and\n      0xffffffffffffffffffffffffffffffffffffffff\n      and\n      dup2\n      mstore\n      0x20\n      add\n      swap1\n      dup2\n      mstore\n      0x20\n      add\n      0x00\n      keccak256\n        /* \"contracts/Require.sol\":913:949  senderAddresses[msg.sender].payments */\n      0x02\n      add\n        /* \"contracts/Require.sol\":913:990  senderAddresses[msg.sender].payments[senderAddresses[msg.sender].numPayments] */\n      0x00\n        /* \"contracts/Require.sol\":950:965  senderAddresses */\n      0x01\n        /* \"contracts/Require.sol\":950:977  senderAddresses[msg.sender] */\n      0x00\n        /* \"contracts/Require.sol\":966:976  msg.sender */\n      caller\n        /* \"contracts/Require.sol\":950:977  senderAddresses[msg.sender] */\n      0xffffffffffffffffffffffffffffffffffffffff\n      and\n      0xffffffffffffffffffffffffffffffffffffffff\n      and\n      dup2\n      mstore\n      0x20\n      add\n      swap1\n      dup2\n      mstore\n      0x20\n      add\n      0x00\n      keccak256\n        /* \"contracts/Require.sol\":950:989  senderAddresses[msg.sender].numPayments */\n      0x01\n      add\n      sload\n        /* \"contracts/Require.sol\":913:990  senderAddresses[msg.sender].payments[senderAddresses[msg.sender].numPayments] */\n      dup2\n      mstore\n      0x20\n      add\n      swap1\n      dup2\n      mstore\n      0x20\n      add\n      0x00\n      keccak256\n        /* \"contracts/Require.sol\":913:1000  senderAddresses[msg.sender].payments[senderAddresses[msg.sender].numPayments] = payment */\n      0x00\n      dup3\n      add\n      mload\n      dup2\n      0x00\n      add\n      sstore\n      0x20\n      dup3\n      add\n      mload\n      dup2\n      0x01\n      add\n      sstore\n      swap1\n      pop\n      pop\n        /* \"contracts/Require.sol\":1010:1025  senderAddresses */\n      0x01\n        /* \"contracts/Require.sol\":1010:1037  senderAddresses[msg.sender] */\n      0x00\n        /* \"contracts/Require.sol\":1026:1036  msg.sender */\n      caller\n        /* \"contracts/Require.sol\":1010:1037  senderAddresses[msg.sender] */\n      0xffffffffffffffffffffffffffffffffffffffff\n      and\n      0xffffffffffffffffffffffffffffffffffffffff\n      and\n      dup2\n      mstore\n      0x20\n      add\n      swap1\n      dup2\n      mstore\n      0x20\n      add\n      0x00\n      keccak256\n        /* \"contracts/Require.sol\":1010:1049  senderAddresses[msg.sender].numPayments */\n      0x01\n      add\n      0x00\n        /* \"contracts/Require.sol\":1010:1051  senderAddresses[msg.sender].numPayments++ */\n      dup2\n      sload\n      dup1\n      swap3\n      swap2\n      swap1\n      tag_110\n      swap1\n      tag_111\n      jump\t// in\n    tag_110:\n      swap2\n      swap1\n      pop\n      sstore\n      pop\n        /* \"contracts/Require.sol\":603:1058  {... */\n      pop\n        /* \"contracts/Require.sol\":565:1058  function receiveMoney() public payable{... */\n      jump\t// out\n        /* \"contracts/Require.sol\":1858:2217  function withdrawToAnotherAddressWithAmount(address payable to , uint amount) public{... */\n    tag_64:\n        /* \"contracts/Require.sol\":1996:2002  amount */\n      dup1\n        /* \"contracts/Require.sol\":1960:1975  senderAddresses */\n      0x01\n        /* \"contracts/Require.sol\":1960:1979  senderAddresses[to] */\n      0x00\n        /* \"contracts/Require.sol\":1976:1978  to */\n      dup5\n        /* \"contracts/Require.sol\":1960:1979  senderAddresses[to] */\n      0xffffffffffffffffffffffffffffffffffffffff\n      and\n      0xffffffffffffffffffffffffffffffffffffffff\n      and\n      dup2\n      mstore\n      0x20\n      add\n      swap1\n      dup2\n      mstore\n      0x20\n      add\n      0x00\n      keccak256\n        /* \"contracts/Require.sol\":1960:1992  senderAddresses[to].totalBalance */\n      0x00\n      add\n      sload\n        /* \"contracts/Require.sol\":1960:2002  senderAddresses[to].totalBalance >= amount */\n      lt\n      iszero\n        /* \"contracts/Require.sol\":1952:2024  require(senderAddresses[to].totalBalance >= amount , \"Not Enough Funds\") */\n      tag_113\n      jumpi\n      mload(0x40)\n      0x08c379a000000000000000000000000000000000000000000000000000000000\n      dup2\n      mstore\n      0x04\n      add\n      tag_114\n      swap1\n      tag_71\n      jump\t// in\n    tag_114:\n      mload(0x40)\n      dup1\n      swap2\n      sub\n      swap1\n      revert\n    tag_113:\n        /* \"contracts/Require.sol\":2051:2061  msg.sender */\n      caller\n        /* \"contracts/Require.sol\":2042:2061  owner == msg.sender */\n      0xffffffffffffffffffffffffffffffffffffffff\n      and\n        /* \"contracts/Require.sol\":2042:2047  owner */\n      0x00\n      dup1\n      sload\n      swap1\n      0x0100\n      exp\n      swap1\n      div\n      0xffffffffffffffffffffffffffffffffffffffff\n      and\n        /* \"contracts/Require.sol\":2042:2061  owner == msg.sender */\n      0xffffffffffffffffffffffffffffffffffffffff\n      and\n      eq\n        /* \"contracts/Require.sol\":2034:2084  require(owner == msg.sender , \"You Are Not Owner\") */\n      tag_115\n      jumpi\n      mload(0x40)\n      0x08c379a000000000000000000000000000000000000000000000000000000000\n      dup2\n      mstore\n      0x04\n      add\n      tag_116\n      swap1\n      tag_80\n      jump\t// in\n    tag_116:\n      mload(0x40)\n      dup1\n      swap2\n      sub\n      swap1\n      revert\n    tag_115:\n        /* \"contracts/Require.sol\":2103:2109  paused */\n      0x00\n      0x14\n      swap1\n      sload\n      swap1\n      0x0100\n      exp\n      swap1\n      div\n      0xff\n      and\n        /* \"contracts/Require.sol\":2102:2109  !paused */\n      iszero\n        /* \"contracts/Require.sol\":2094:2121  require(!paused , \"Paused\") */\n      tag_117\n      jumpi\n      mload(0x40)\n      0x08c379a000000000000000000000000000000000000000000000000000000000\n      dup2\n      mstore\n      0x04\n      add\n      tag_118\n      swap1\n      tag_68\n      jump\t// in\n    tag_118:\n      mload(0x40)\n      dup1\n      swap2\n      sub\n      swap1\n      revert\n    tag_117:\n        /* \"contracts/Require.sol\":2131:2133  to */\n      dup2\n        /* \"contracts/Require.sol\":2131:2142  to.transfer */\n      0xffffffffffffffffffffffffffffffffffffffff\n      and\n        /* \"contracts/Require.sol\":2131:2150  to.transfer(amount) */\n      0x08fc\n        /* \"contracts/Require.sol\":2143:2149  amount */\n      dup3\n        /* \"contracts/Require.sol\":2131:2150  to.transfer(amount) */\n      swap1\n      dup2\n      iszero\n      mul\n      swap1\n      mload(0x40)\n      0x00\n      mload(0x40)\n      dup1\n      dup4\n      sub\n      dup2\n      dup6\n      dup9\n      dup9\n      call\n      swap4\n      pop\n      pop\n      pop\n      pop\n      iszero\n      dup1\n      iszero\n      tag_120\n      jumpi\n      returndatasize\n      0x00\n      dup1\n      returndatacopy\n      revert(0x00, returndatasize)\n    tag_120:\n      pop\n        /* \"contracts/Require.sol\":2204:2210  amount */\n      dup1\n        /* \"contracts/Require.sol\":2160:2175  senderAddresses */\n      0x01\n        /* \"contracts/Require.sol\":2160:2187  senderAddresses[msg.sender] */\n      0x00\n        /* \"contracts/Require.sol\":2176:2186  msg.sender */\n      caller\n        /* \"contracts/Require.sol\":2160:2187  senderAddresses[msg.sender] */\n      0xffffffffffffffffffffffffffffffffffffffff\n      and\n      0xffffffffffffffffffffffffffffffffffffffff\n      and\n      dup2\n      mstore\n      0x20\n      add\n      swap1\n      dup2\n      mstore\n      0x20\n      add\n      0x00\n      keccak256\n        /* \"contracts/Require.sol\":2160:2200  senderAddresses[msg.sender].totalBalance */\n      0x00\n      add\n      0x00\n        /* \"contracts/Require.sol\":2160:2210  senderAddresses[msg.sender].totalBalance -= amount */\n      dup3\n      dup3\n      sload\n      tag_121\n      swap2\n      swap1\n      tag_75\n      jump\t// in\n    tag_121:\n      swap3\n      pop\n      pop\n      dup2\n      swap1\n      sstore\n      pop\n        /* \"contracts/Require.sol\":1858:2217  function withdrawToAnotherAddressWithAmount(address payable to , uint amount) public{... */\n      pop\n      pop\n      jump\t// out\n        /* \"#utility.yul\":88:205   */\n    tag_123:\n        /* \"#utility.yul\":197:198   */\n      0x00\n        /* \"#utility.yul\":194:195   */\n      dup1\n        /* \"#utility.yul\":187:199   */\n      revert\n        /* \"#utility.yul\":334:411   */\n    tag_125:\n        /* \"#utility.yul\":371:378   */\n      0x00\n        /* \"#utility.yul\":400:405   */\n      dup2\n        /* \"#utility.yul\":389:405   */\n      swap1\n      pop\n        /* \"#utility.yul\":334:411   */\n      swap2\n      swap1\n      pop\n      jump\t// out\n        /* \"#utility.yul\":417:539   */\n    tag_126:\n        /* \"#utility.yul\":490:514   */\n      tag_155\n        /* \"#utility.yul\":508:513   */\n      dup2\n        /* \"#utility.yul\":490:514   */\n      tag_125\n      jump\t// in\n    tag_155:\n        /* \"#utility.yul\":483:488   */\n      dup2\n        /* \"#utility.yul\":480:515   */\n      eq\n        /* \"#utility.yul\":470:533   */\n      tag_156\n      jumpi\n        /* \"#utility.yul\":529:530   */\n      0x00\n        /* \"#utility.yul\":526:527   */\n      dup1\n        /* \"#utility.yul\":519:531   */\n      revert\n        /* \"#utility.yul\":470:533   */\n    tag_156:\n        /* \"#utility.yul\":417:539   */\n      pop\n      jump\t// out\n        /* \"#utility.yul\":545:684   */\n    tag_127:\n        /* \"#utility.yul\":591:596   */\n      0x00\n        /* \"#utility.yul\":629:635   */\n      dup2\n        /* \"#utility.yul\":616:636   */\n      calldataload\n        /* \"#utility.yul\":607:636   */\n      swap1\n      pop\n        /* \"#utility.yul\":645:678   */\n      tag_158\n        /* \"#utility.yul\":672:677   */\n      dup2\n        /* \"#utility.yul\":645:678   */\n      tag_126\n      jump\t// in\n    tag_158:\n        /* \"#utility.yul\":545:684   */\n      swap3\n      swap2\n      pop\n      pop\n      jump\t// out\n        /* \"#utility.yul\":690:1019   */\n    tag_17:\n        /* \"#utility.yul\":749:755   */\n      0x00\n        /* \"#utility.yul\":798:800   */\n      0x20\n        /* \"#utility.yul\":786:795   */\n      dup3\n        /* \"#utility.yul\":777:784   */\n      dup5\n        /* \"#utility.yul\":773:796   */\n      sub\n        /* \"#utility.yul\":769:801   */\n      slt\n        /* \"#utility.yul\":766:885   */\n      iszero\n      tag_160\n      jumpi\n        /* \"#utility.yul\":804:883   */\n      tag_161\n      tag_123\n      jump\t// in\n    tag_161:\n        /* \"#utility.yul\":766:885   */\n    tag_160:\n        /* \"#utility.yul\":924:925   */\n      0x00\n        /* \"#utility.yul\":949:1002   */\n      tag_162\n        /* \"#utility.yul\":994:1001   */\n      dup5\n        /* \"#utility.yul\":985:991   */\n      dup3\n        /* \"#utility.yul\":974:983   */\n      dup6\n        /* \"#utility.yul\":970:992   */\n      add\n        /* \"#utility.yul\":949:1002   */\n      tag_127\n      jump\t// in\n    tag_162:\n        /* \"#utility.yul\":939:1002   */\n      swap2\n      pop\n        /* \"#utility.yul\":895:1012   */\n      pop\n        /* \"#utility.yul\":690:1019   */\n      swap3\n      swap2\n      pop\n      pop\n      jump\t// out\n        /* \"#utility.yul\":1025:1143   */\n    tag_128:\n        /* \"#utility.yul\":1112:1136   */\n      tag_164\n        /* \"#utility.yul\":1130:1135   */\n      dup2\n        /* \"#utility.yul\":1112:1136   */\n      tag_125\n      jump\t// in\n    tag_164:\n        /* \"#utility.yul\":1107:1110   */\n      dup3\n        /* \"#utility.yul\":1100:1137   */\n      mstore\n        /* \"#utility.yul\":1025:1143   */\n      pop\n      pop\n      jump\t// out\n        /* \"#utility.yul\":1149:1371   */\n    tag_23:\n        /* \"#utility.yul\":1242:1246   */\n      0x00\n        /* \"#utility.yul\":1280:1282   */\n      0x20\n        /* \"#utility.yul\":1269:1278   */\n      dup3\n        /* \"#utility.yul\":1265:1283   */\n      add\n        /* \"#utility.yul\":1257:1283   */\n      swap1\n      pop\n        /* \"#utility.yul\":1293:1364   */\n      tag_166\n        /* \"#utility.yul\":1361:1362   */\n      0x00\n        /* \"#utility.yul\":1350:1359   */\n      dup4\n        /* \"#utility.yul\":1346:1363   */\n      add\n        /* \"#utility.yul\":1337:1343   */\n      dup5\n        /* \"#utility.yul\":1293:1364   */\n      tag_128\n      jump\t// in\n    tag_166:\n        /* \"#utility.yul\":1149:1371   */\n      swap3\n      swap2\n      pop\n      pop\n      jump\t// out\n        /* \"#utility.yul\":1377:1467   */\n    tag_129:\n        /* \"#utility.yul\":1411:1418   */\n      0x00\n        /* \"#utility.yul\":1454:1459   */\n      dup2\n        /* \"#utility.yul\":1447:1460   */\n      iszero\n        /* \"#utility.yul\":1440:1461   */\n      iszero\n        /* \"#utility.yul\":1429:1461   */\n      swap1\n      pop\n        /* \"#utility.yul\":1377:1467   */\n      swap2\n      swap1\n      pop\n      jump\t// out\n        /* \"#utility.yul\":1473:1589   */\n    tag_130:\n        /* \"#utility.yul\":1543:1564   */\n      tag_169\n        /* \"#utility.yul\":1558:1563   */\n      dup2\n        /* \"#utility.yul\":1543:1564   */\n      tag_129\n      jump\t// in\n    tag_169:\n        /* \"#utility.yul\":1536:1541   */\n      dup2\n        /* \"#utility.yul\":1533:1565   */\n      eq\n        /* \"#utility.yul\":1523:1583   */\n      tag_170\n      jumpi\n        /* \"#utility.yul\":1579:1580   */\n      0x00\n        /* \"#utility.yul\":1576:1577   */\n      dup1\n        /* \"#utility.yul\":1569:1581   */\n      revert\n        /* \"#utility.yul\":1523:1583   */\n    tag_170:\n        /* \"#utility.yul\":1473:1589   */\n      pop\n      jump\t// out\n        /* \"#utility.yul\":1595:1728   */\n    tag_131:\n        /* \"#utility.yul\":1638:1643   */\n      0x00\n        /* \"#utility.yul\":1676:1682   */\n      dup2\n        /* \"#utility.yul\":1663:1683   */\n      calldataload\n        /* \"#utility.yul\":1654:1683   */\n      swap1\n      pop\n        /* \"#utility.yul\":1692:1722   */\n      tag_172\n        /* \"#utility.yul\":1716:1721   */\n      dup2\n        /* \"#utility.yul\":1692:1722   */\n      tag_130\n      jump\t// in\n    tag_172:\n        /* \"#utility.yul\":1595:1728   */\n      swap3\n      swap2\n      pop\n      pop\n      jump\t// out\n        /* \"#utility.yul\":1734:2057   */\n    tag_27:\n        /* \"#utility.yul\":1790:1796   */\n      0x00\n        /* \"#utility.yul\":1839:1841   */\n      0x20\n        /* \"#utility.yul\":1827:1836   */\n      dup3\n        /* \"#utility.yul\":1818:1825   */\n      dup5\n        /* \"#utility.yul\":1814:1837   */\n      sub\n        /* \"#utility.yul\":1810:1842   */\n      slt\n        /* \"#utility.yul\":1807:1926   */\n      iszero\n      tag_174\n      jumpi\n        /* \"#utility.yul\":1845:1924   */\n      tag_175\n      tag_123\n      jump\t// in\n    tag_175:\n        /* \"#utility.yul\":1807:1926   */\n    tag_174:\n        /* \"#utility.yul\":1965:1966   */\n      0x00\n        /* \"#utility.yul\":1990:2040   */\n      tag_176\n        /* \"#utility.yul\":2032:2039   */\n      dup5\n        /* \"#utility.yul\":2023:2029   */\n      dup3\n        /* \"#utility.yul\":2012:2021   */\n      dup6\n        /* \"#utility.yul\":2008:2030   */\n      add\n        /* \"#utility.yul\":1990:2040   */\n      tag_131\n      jump\t// in\n    tag_176:\n        /* \"#utility.yul\":1980:2040   */\n      swap2\n      pop\n        /* \"#utility.yul\":1936:2050   */\n      pop\n        /* \"#utility.yul\":1734:2057   */\n      swap3\n      swap2\n      pop\n      pop\n      jump\t// out\n        /* \"#utility.yul\":2063:2189   */\n    tag_132:\n        /* \"#utility.yul\":2100:2107   */\n      0x00\n        /* \"#utility.yul\":2140:2182   */\n      0xffffffffffffffffffffffffffffffffffffffff\n        /* \"#utility.yul\":2133:2138   */\n      dup3\n        /* \"#utility.yul\":2129:2183   */\n      and\n        /* \"#utility.yul\":2118:2183   */\n      swap1\n      pop\n        /* \"#utility.yul\":2063:2189   */\n      swap2\n      swap1\n      pop\n      jump\t// out\n        /* \"#utility.yul\":2195:2299   */\n    tag_133:\n        /* \"#utility.yul\":2240:2247   */\n      0x00\n        /* \"#utility.yul\":2269:2293   */\n      tag_179\n        /* \"#utility.yul\":2287:2292   */\n      dup3\n        /* \"#utility.yul\":2269:2293   */\n      tag_132\n      jump\t// in\n    tag_179:\n        /* \"#utility.yul\":2258:2293   */\n      swap1\n      pop\n        /* \"#utility.yul\":2195:2299   */\n      swap2\n      swap1\n      pop\n      jump\t// out\n        /* \"#utility.yul\":2305:2443   */\n    tag_134:\n        /* \"#utility.yul\":2386:2418   */\n      tag_181\n        /* \"#utility.yul\":2412:2417   */\n      dup2\n        /* \"#utility.yul\":2386:2418   */\n      tag_133\n      jump\t// in\n    tag_181:\n        /* \"#utility.yul\":2379:2384   */\n      dup2\n        /* \"#utility.yul\":2376:2419   */\n      eq\n        /* \"#utility.yul\":2366:2437   */\n      tag_182\n      jumpi\n        /* \"#utility.yul\":2433:2434   */\n      0x00\n        /* \"#utility.yul\":2430:2431   */\n      dup1\n        /* \"#utility.yul\":2423:2435   */\n      revert\n        /* \"#utility.yul\":2366:2437   */\n    tag_182:\n        /* \"#utility.yul\":2305:2443   */\n      pop\n      jump\t// out\n        /* \"#utility.yul\":2449:2604   */\n    tag_135:\n        /* \"#utility.yul\":2503:2508   */\n      0x00\n        /* \"#utility.yul\":2541:2547   */\n      dup2\n        /* \"#utility.yul\":2528:2548   */\n      calldataload\n        /* \"#utility.yul\":2519:2548   */\n      swap1\n      pop\n        /* \"#utility.yul\":2557:2598   */\n      tag_184\n        /* \"#utility.yul\":2592:2597   */\n      dup2\n        /* \"#utility.yul\":2557:2598   */\n      tag_134\n      jump\t// in\n    tag_184:\n        /* \"#utility.yul\":2449:2604   */\n      swap3\n      swap2\n      pop\n      pop\n      jump\t// out\n        /* \"#utility.yul\":2610:2955   */\n    tag_32:\n        /* \"#utility.yul\":2677:2683   */\n      0x00\n        /* \"#utility.yul\":2726:2728   */\n      0x20\n        /* \"#utility.yul\":2714:2723   */\n      dup3\n        /* \"#utility.yul\":2705:2712   */\n      dup5\n        /* \"#utility.yul\":2701:2724   */\n      sub\n        /* \"#utility.yul\":2697:2729   */\n      slt\n        /* \"#utility.yul\":2694:2813   */\n      iszero\n      tag_186\n      jumpi\n        /* \"#utility.yul\":2732:2811   */\n      tag_187\n      tag_123\n      jump\t// in\n    tag_187:\n        /* \"#utility.yul\":2694:2813   */\n    tag_186:\n        /* \"#utility.yul\":2852:2853   */\n      0x00\n        /* \"#utility.yul\":2877:2938   */\n      tag_188\n        /* \"#utility.yul\":2930:2937   */\n      dup5\n        /* \"#utility.yul\":2921:2927   */\n      dup3\n        /* \"#utility.yul\":2910:2919   */\n      dup6\n        /* \"#utility.yul\":2906:2928   */\n      add\n        /* \"#utility.yul\":2877:2938   */\n      tag_135\n      jump\t// in\n    tag_188:\n        /* \"#utility.yul\":2867:2938   */\n      swap2\n      pop\n        /* \"#utility.yul\":2823:2948   */\n      pop\n        /* \"#utility.yul\":2610:2955   */\n      swap3\n      swap2\n      pop\n      pop\n      jump\t// out\n        /* \"#utility.yul\":2961:3057   */\n    tag_136:\n        /* \"#utility.yul\":2998:3005   */\n      0x00\n        /* \"#utility.yul\":3027:3051   */\n      tag_190\n        /* \"#utility.yul\":3045:3050   */\n      dup3\n        /* \"#utility.yul\":3027:3051   */\n      tag_132\n      jump\t// in\n    tag_190:\n        /* \"#utility.yul\":3016:3051   */\n      swap1\n      pop\n        /* \"#utility.yul\":2961:3057   */\n      swap2\n      swap1\n      pop\n      jump\t// out\n        /* \"#utility.yul\":3063:3185   */\n    tag_137:\n        /* \"#utility.yul\":3136:3160   */\n      tag_192\n        /* \"#utility.yul\":3154:3159   */\n      dup2\n        /* \"#utility.yul\":3136:3160   */\n      tag_136\n      jump\t// in\n    tag_192:\n        /* \"#utility.yul\":3129:3134   */\n      dup2\n        /* \"#utility.yul\":3126:3161   */\n      eq\n        /* \"#utility.yul\":3116:3179   */\n      tag_193\n      jumpi\n        /* \"#utility.yul\":3175:3176   */\n      0x00\n        /* \"#utility.yul\":3172:3173   */\n      dup1\n        /* \"#utility.yul\":3165:3177   */\n      revert\n        /* \"#utility.yul\":3116:3179   */\n    tag_193:\n        /* \"#utility.yul\":3063:3185   */\n      pop\n      jump\t// out\n        /* \"#utility.yul\":3191:3330   */\n    tag_138:\n        /* \"#utility.yul\":3237:3242   */\n      0x00\n        /* \"#utility.yul\":3275:3281   */\n      dup2\n        /* \"#utility.yul\":3262:3282   */\n      calldataload\n        /* \"#utility.yul\":3253:3282   */\n      swap1\n      pop\n        /* \"#utility.yul\":3291:3324   */\n      tag_195\n        /* \"#utility.yul\":3318:3323   */\n      dup2\n        /* \"#utility.yul\":3291:3324   */\n      tag_137\n      jump\t// in\n    tag_195:\n        /* \"#utility.yul\":3191:3330   */\n      swap3\n      swap2\n      pop\n      pop\n      jump\t// out\n        /* \"#utility.yul\":3336:3665   */\n    tag_45:\n        /* \"#utility.yul\":3395:3401   */\n      0x00\n        /* \"#utility.yul\":3444:3446   */\n      0x20\n        /* \"#utility.yul\":3432:3441   */\n      dup3\n        /* \"#utility.yul\":3423:3430   */\n      dup5\n        /* \"#utility.yul\":3419:3442   */\n      sub\n        /* \"#utility.yul\":3415:3447   */\n      slt\n        /* \"#utility.yul\":3412:3531   */\n      iszero\n      tag_197\n      jumpi\n        /* \"#utility.yul\":3450:3529   */\n      tag_198\n      tag_123\n      jump\t// in\n    tag_198:\n        /* \"#utility.yul\":3412:3531   */\n    tag_197:\n        /* \"#utility.yul\":3570:3571   */\n      0x00\n        /* \"#utility.yul\":3595:3648   */\n      tag_199\n        /* \"#utility.yul\":3640:3647   */\n      dup5\n        /* \"#utility.yul\":3631:3637   */\n      dup3\n        /* \"#utility.yul\":3620:3629   */\n      dup6\n        /* \"#utility.yul\":3616:3638   */\n      add\n        /* \"#utility.yul\":3595:3648   */\n      tag_138\n      jump\t// in\n    tag_199:\n        /* \"#utility.yul\":3585:3648   */\n      swap2\n      pop\n        /* \"#utility.yul\":3541:3658   */\n      pop\n        /* \"#utility.yul\":3336:3665   */\n      swap3\n      swap2\n      pop\n      pop\n      jump\t// out\n        /* \"#utility.yul\":3671:4003   */\n    tag_48:\n        /* \"#utility.yul\":3792:3796   */\n      0x00\n        /* \"#utility.yul\":3830:3832   */\n      0x40\n        /* \"#utility.yul\":3819:3828   */\n      dup3\n        /* \"#utility.yul\":3815:3833   */\n      add\n        /* \"#utility.yul\":3807:3833   */\n      swap1\n      pop\n        /* \"#utility.yul\":3843:3914   */\n      tag_201\n        /* \"#utility.yul\":3911:3912   */\n      0x00\n        /* \"#utility.yul\":3900:3909   */\n      dup4\n        /* \"#utility.yul\":3896:3913   */\n      add\n        /* \"#utility.yul\":3887:3893   */\n      dup6\n        /* \"#utility.yul\":3843:3914   */\n      tag_128\n      jump\t// in\n    tag_201:\n        /* \"#utility.yul\":3924:3996   */\n      tag_202\n        /* \"#utility.yul\":3992:3994   */\n      0x20\n        /* \"#utility.yul\":3981:3990   */\n      dup4\n        /* \"#utility.yul\":3977:3995   */\n      add\n        /* \"#utility.yul\":3968:3974   */\n      dup5\n        /* \"#utility.yul\":3924:3996   */\n      tag_128\n      jump\t// in\n    tag_202:\n        /* \"#utility.yul\":3671:4003   */\n      swap4\n      swap3\n      pop\n      pop\n      pop\n      jump\t// out\n        /* \"#utility.yul\":4009:4118   */\n    tag_139:\n        /* \"#utility.yul\":4090:4111   */\n      tag_204\n        /* \"#utility.yul\":4105:4110   */\n      dup2\n        /* \"#utility.yul\":4090:4111   */\n      tag_129\n      jump\t// in\n    tag_204:\n        /* \"#utility.yul\":4085:4088   */\n      dup3\n        /* \"#utility.yul\":4078:4112   */\n      mstore\n        /* \"#utility.yul\":4009:4118   */\n      pop\n      pop\n      jump\t// out\n        /* \"#utility.yul\":4124:4334   */\n    tag_57:\n        /* \"#utility.yul\":4211:4215   */\n      0x00\n        /* \"#utility.yul\":4249:4251   */\n      0x20\n        /* \"#utility.yul\":4238:4247   */\n      dup3\n        /* \"#utility.yul\":4234:4252   */\n      add\n        /* \"#utility.yul\":4226:4252   */\n      swap1\n      pop\n        /* \"#utility.yul\":4262:4327   */\n      tag_206\n        /* \"#utility.yul\":4324:4325   */\n      0x00\n        /* \"#utility.yul\":4313:4322   */\n      dup4\n        /* \"#utility.yul\":4309:4326   */\n      add\n        /* \"#utility.yul\":4300:4306   */\n      dup5\n        /* \"#utility.yul\":4262:4327   */\n      tag_139\n      jump\t// in\n    tag_206:\n        /* \"#utility.yul\":4124:4334   */\n      swap3\n      swap2\n      pop\n      pop\n      jump\t// out\n        /* \"#utility.yul\":4340:4830   */\n    tag_63:\n        /* \"#utility.yul\":4416:4422   */\n      0x00\n        /* \"#utility.yul\":4424:4430   */\n      dup1\n        /* \"#utility.yul\":4473:4475   */\n      0x40\n        /* \"#utility.yul\":4461:4470   */\n      dup4\n        /* \"#utility.yul\":4452:4459   */\n      dup6\n        /* \"#utility.yul\":4448:4471   */\n      sub\n        /* \"#utility.yul\":4444:4476   */\n      slt\n        /* \"#utility.yul\":4441:4560   */\n      iszero\n      tag_208\n      jumpi\n        /* \"#utility.yul\":4479:4558   */\n      tag_209\n      tag_123\n      jump\t// in\n    tag_209:\n        /* \"#utility.yul\":4441:4560   */\n    tag_208:\n        /* \"#utility.yul\":4599:4600   */\n      0x00\n        /* \"#utility.yul\":4624:4685   */\n      tag_210\n        /* \"#utility.yul\":4677:4684   */\n      dup6\n        /* \"#utility.yul\":4668:4674   */\n      dup3\n        /* \"#utility.yul\":4657:4666   */\n      dup7\n        /* \"#utility.yul\":4653:4675   */\n      add\n        /* \"#utility.yul\":4624:4685   */\n      tag_135\n      jump\t// in\n    tag_210:\n        /* \"#utility.yul\":4614:4685   */\n      swap3\n      pop\n        /* \"#utility.yul\":4570:4695   */\n      pop\n        /* \"#utility.yul\":4734:4736   */\n      0x20\n        /* \"#utility.yul\":4760:4813   */\n      tag_211\n        /* \"#utility.yul\":4805:4812   */\n      dup6\n        /* \"#utility.yul\":4796:4802   */\n      dup3\n        /* \"#utility.yul\":4785:4794   */\n      dup7\n        /* \"#utility.yul\":4781:4803   */\n      add\n        /* \"#utility.yul\":4760:4813   */\n      tag_127\n      jump\t// in\n    tag_211:\n        /* \"#utility.yul\":4750:4813   */\n      swap2\n      pop\n        /* \"#utility.yul\":4705:4823   */\n      pop\n        /* \"#utility.yul\":4340:4830   */\n      swap3\n      pop\n      swap3\n      swap1\n      pop\n      jump\t// out\n        /* \"#utility.yul\":4836:5005   */\n    tag_140:\n        /* \"#utility.yul\":4920:4931   */\n      0x00\n        /* \"#utility.yul\":4954:4960   */\n      dup3\n        /* \"#utility.yul\":4949:4952   */\n      dup3\n        /* \"#utility.yul\":4942:4961   */\n      mstore\n        /* \"#utility.yul\":4994:4998   */\n      0x20\n        /* \"#utility.yul\":4989:4992   */\n      dup3\n        /* \"#utility.yul\":4985:4999   */\n      add\n        /* \"#utility.yul\":4970:4999   */\n      swap1\n      pop\n        /* \"#utility.yul\":4836:5005   */\n      swap3\n      swap2\n      pop\n      pop\n      jump\t// out\n        /* \"#utility.yul\":5011:5167   */\n    tag_141:\n        /* \"#utility.yul\":5151:5159   */\n      0x5061757365640000000000000000000000000000000000000000000000000000\n        /* \"#utility.yul\":5147:5148   */\n      0x00\n        /* \"#utility.yul\":5139:5145   */\n      dup3\n        /* \"#utility.yul\":5135:5149   */\n      add\n        /* \"#utility.yul\":5128:5160   */\n      mstore\n        /* \"#utility.yul\":5011:5167   */\n      pop\n      jump\t// out\n        /* \"#utility.yul\":5173:5538   */\n    tag_142:\n        /* \"#utility.yul\":5315:5318   */\n      0x00\n        /* \"#utility.yul\":5336:5402   */\n      tag_215\n        /* \"#utility.yul\":5400:5401   */\n      0x06\n        /* \"#utility.yul\":5395:5398   */\n      dup4\n        /* \"#utility.yul\":5336:5402   */\n      tag_140\n      jump\t// in\n    tag_215:\n        /* \"#utility.yul\":5329:5402   */\n      swap2\n      pop\n        /* \"#utility.yul\":5411:5504   */\n      tag_216\n        /* \"#utility.yul\":5500:5503   */\n      dup3\n        /* \"#utility.yul\":5411:5504   */\n      tag_141\n      jump\t// in\n    tag_216:\n        /* \"#utility.yul\":5529:5531   */\n      0x20\n        /* \"#utility.yul\":5524:5527   */\n      dup3\n        /* \"#utility.yul\":5520:5532   */\n      add\n        /* \"#utility.yul\":5513:5532   */\n      swap1\n      pop\n        /* \"#utility.yul\":5173:5538   */\n      swap2\n      swap1\n      pop\n      jump\t// out\n        /* \"#utility.yul\":5544:5963   */\n    tag_68:\n        /* \"#utility.yul\":5710:5714   */\n      0x00\n        /* \"#utility.yul\":5748:5750   */\n      0x20\n        /* \"#utility.yul\":5737:5746   */\n      dup3\n        /* \"#utility.yul\":5733:5751   */\n      add\n        /* \"#utility.yul\":5725:5751   */\n      swap1\n      pop\n        /* \"#utility.yul\":5797:5806   */\n      dup2\n        /* \"#utility.yul\":5791:5795   */\n      dup2\n        /* \"#utility.yul\":5787:5807   */\n      sub\n        /* \"#utility.yul\":5783:5784   */\n      0x00\n        /* \"#utility.yul\":5772:5781   */\n      dup4\n        /* \"#utility.yul\":5768:5785   */\n      add\n        /* \"#utility.yul\":5761:5808   */\n      mstore\n        /* \"#utility.yul\":5825:5956   */\n      tag_218\n        /* \"#utility.yul\":5951:5955   */\n      dup2\n        /* \"#utility.yul\":5825:5956   */\n      tag_142\n      jump\t// in\n    tag_218:\n        /* \"#utility.yul\":5817:5956   */\n      swap1\n      pop\n        /* \"#utility.yul\":5544:5963   */\n      swap2\n      swap1\n      pop\n      jump\t// out\n        /* \"#utility.yul\":5969:6135   */\n    tag_143:\n        /* \"#utility.yul\":6109:6127   */\n      0x4e6f7420456e6f7567682046756e647300000000000000000000000000000000\n        /* \"#utility.yul\":6105:6106   */\n      0x00\n        /* \"#utility.yul\":6097:6103   */\n      dup3\n        /* \"#utility.yul\":6093:6107   */\n      add\n        /* \"#utility.yul\":6086:6128   */\n      mstore\n        /* \"#utility.yul\":5969:6135   */\n      pop\n      jump\t// out\n        /* \"#utility.yul\":6141:6507   */\n    tag_144:\n        /* \"#utility.yul\":6283:6286   */\n      0x00\n        /* \"#utility.yul\":6304:6371   */\n      tag_221\n        /* \"#utility.yul\":6368:6370   */\n      0x10\n        /* \"#utility.yul\":6363:6366   */\n      dup4\n        /* \"#utility.yul\":6304:6371   */\n      tag_140\n      jump\t// in\n    tag_221:\n        /* \"#utility.yul\":6297:6371   */\n      swap2\n      pop\n        /* \"#utility.yul\":6380:6473   */\n      tag_222\n        /* \"#utility.yul\":6469:6472   */\n      dup3\n        /* \"#utility.yul\":6380:6473   */\n      tag_143\n      jump\t// in\n    tag_222:\n        /* \"#utility.yul\":6498:6500   */\n      0x20\n        /* \"#utility.yul\":6493:6496   */\n      dup3\n        /* \"#utility.yul\":6489:6501   */\n      add\n        /* \"#utility.yul\":6482:6501   */\n      swap1\n      pop\n        /* \"#utility.yul\":6141:6507   */\n      swap2\n      swap1\n      pop\n      jump\t// out\n        /* \"#utility.yul\":6513:6932   */\n    tag_71:\n        /* \"#utility.yul\":6679:6683   */\n      0x00\n        /* \"#utility.yul\":6717:6719   */\n      0x20\n        /* \"#utility.yul\":6706:6715   */\n      dup3\n        /* \"#utility.yul\":6702:6720   */\n      add\n        /* \"#utility.yul\":6694:6720   */\n      swap1\n      pop\n        /* \"#utility.yul\":6766:6775   */\n      dup2\n        /* \"#utility.yul\":6760:6764   */\n      dup2\n        /* \"#utility.yul\":6756:6776   */\n      sub\n        /* \"#utility.yul\":6752:6753   */\n      0x00\n        /* \"#utility.yul\":6741:6750   */\n      dup4\n        /* \"#utility.yul\":6737:6754   */\n      add\n        /* \"#utility.yul\":6730:6777   */\n      mstore\n        /* \"#utility.yul\":6794:6925   */\n      tag_224\n        /* \"#utility.yul\":6920:6924   */\n      dup2\n        /* \"#utility.yul\":6794:6925   */\n      tag_144\n      jump\t// in\n    tag_224:\n        /* \"#utility.yul\":6786:6925   */\n      swap1\n      pop\n        /* \"#utility.yul\":6513:6932   */\n      swap2\n      swap1\n      pop\n      jump\t// out\n        /* \"#utility.yul\":6938:7118   */\n    tag_145:\n        /* \"#utility.yul\":6986:7063   */\n      0x4e487b7100000000000000000000000000000000000000000000000000000000\n        /* \"#utility.yul\":6983:6984   */\n      0x00\n        /* \"#utility.yul\":6976:7064   */\n      mstore\n        /* \"#utility.yul\":7083:7087   */\n      0x11\n        /* \"#utility.yul\":7080:7081   */\n      0x04\n        /* \"#utility.yul\":7073:7088   */\n      mstore\n        /* \"#utility.yul\":7107:7111   */\n      0x24\n        /* \"#utility.yul\":7104:7105   */\n      0x00\n        /* \"#utility.yul\":7097:7112   */\n      revert\n        /* \"#utility.yul\":7124:7315   */\n    tag_75:\n        /* \"#utility.yul\":7164:7168   */\n      0x00\n        /* \"#utility.yul\":7184:7204   */\n      tag_227\n        /* \"#utility.yul\":7202:7203   */\n      dup3\n        /* \"#utility.yul\":7184:7204   */\n      tag_125\n      jump\t// in\n    tag_227:\n        /* \"#utility.yul\":7179:7204   */\n      swap2\n      pop\n        /* \"#utility.yul\":7218:7238   */\n      tag_228\n        /* \"#utility.yul\":7236:7237   */\n      dup4\n        /* \"#utility.yul\":7218:7238   */\n      tag_125\n      jump\t// in\n    tag_228:\n        /* \"#utility.yul\":7213:7238   */\n      swap3\n      pop\n        /* \"#utility.yul\":7257:7258   */\n      dup3\n        /* \"#utility.yul\":7254:7255   */\n      dup3\n        /* \"#utility.yul\":7251:7259   */\n      lt\n        /* \"#utility.yul\":7248:7282   */\n      iszero\n      tag_229\n      jumpi\n        /* \"#utility.yul\":7262:7280   */\n      tag_230\n      tag_145\n      jump\t// in\n    tag_230:\n        /* \"#utility.yul\":7248:7282   */\n    tag_229:\n        /* \"#utility.yul\":7307:7308   */\n      dup3\n        /* \"#utility.yul\":7304:7305   */\n      dup3\n        /* \"#utility.yul\":7300:7309   */\n      sub\n        /* \"#utility.yul\":7292:7309   */\n      swap1\n      pop\n        /* \"#utility.yul\":7124:7315   */\n      swap3\n      swap2\n      pop\n      pop\n      jump\t// out\n        /* \"#utility.yul\":7321:7488   */\n    tag_146:\n        /* \"#utility.yul\":7461:7480   */\n      0x596f7520417265204e6f74204f776e6572000000000000000000000000000000\n        /* \"#utility.yul\":7457:7458   */\n      0x00\n        /* \"#utility.yul\":7449:7455   */\n      dup3\n        /* \"#utility.yul\":7445:7459   */\n      add\n        /* \"#utility.yul\":7438:7481   */\n      mstore\n        /* \"#utility.yul\":7321:7488   */\n      pop\n      jump\t// out\n        /* \"#utility.yul\":7494:7860   */\n    tag_147:\n        /* \"#utility.yul\":7636:7639   */\n      0x00\n        /* \"#utility.yul\":7657:7724   */\n      tag_233\n        /* \"#utility.yul\":7721:7723   */\n      0x11\n        /* \"#utility.yul\":7716:7719   */\n      dup4\n        /* \"#utility.yul\":7657:7724   */\n      tag_140\n      jump\t// in\n    tag_233:\n        /* \"#utility.yul\":7650:7724   */\n      swap2\n      pop\n        /* \"#utility.yul\":7733:7826   */\n      tag_234\n        /* \"#utility.yul\":7822:7825   */\n      dup3\n        /* \"#utility.yul\":7733:7826   */\n      tag_146\n      jump\t// in\n    tag_234:\n        /* \"#utility.yul\":7851:7853   */\n      0x20\n        /* \"#utility.yul\":7846:7849   */\n      dup3\n        /* \"#utility.yul\":7842:7854   */\n      add\n        /* \"#utility.yul\":7835:7854   */\n      swap1\n      pop\n        /* \"#utility.yul\":7494:7860   */\n      swap2\n      swap1\n      pop\n      jump\t// out\n        /* \"#utility.yul\":7866:8285   */\n    tag_80:\n        /* \"#utility.yul\":8032:8036   */\n      0x00\n        /* \"#utility.yul\":8070:8072   */\n      0x20\n        /* \"#utility.yul\":8059:8068   */\n      dup3\n        /* \"#utility.yul\":8055:8073   */\n      add\n        /* \"#utility.yul\":8047:8073   */\n      swap1\n      pop\n        /* \"#utility.yul\":8119:8128   */\n      dup2\n        /* \"#utility.yul\":8113:8117   */\n      dup2\n        /* \"#utility.yul\":8109:8129   */\n      sub\n        /* \"#utility.yul\":8105:8106   */\n      0x00\n        /* \"#utility.yul\":8094:8103   */\n      dup4\n        /* \"#utility.yul\":8090:8107   */\n      add\n        /* \"#utility.yul\":8083:8130   */\n      mstore\n        /* \"#utility.yul\":8147:8278   */\n      tag_236\n        /* \"#utility.yul\":8273:8277   */\n      dup2\n        /* \"#utility.yul\":8147:8278   */\n      tag_147\n      jump\t// in\n    tag_236:\n        /* \"#utility.yul\":8139:8278   */\n      swap1\n      pop\n        /* \"#utility.yul\":7866:8285   */\n      swap2\n      swap1\n      pop\n      jump\t// out\n        /* \"#utility.yul\":8291:8434   */\n    tag_148:\n        /* \"#utility.yul\":8348:8353   */\n      0x00\n        /* \"#utility.yul\":8379:8385   */\n      dup2\n        /* \"#utility.yul\":8373:8386   */\n      mload\n        /* \"#utility.yul\":8364:8386   */\n      swap1\n      pop\n        /* \"#utility.yul\":8395:8428   */\n      tag_238\n        /* \"#utility.yul\":8422:8427   */\n      dup2\n        /* \"#utility.yul\":8395:8428   */\n      tag_126\n      jump\t// in\n    tag_238:\n        /* \"#utility.yul\":8291:8434   */\n      swap3\n      swap2\n      pop\n      pop\n      jump\t// out\n        /* \"#utility.yul\":8440:8791   */\n    tag_88:\n        /* \"#utility.yul\":8510:8516   */\n      0x00\n        /* \"#utility.yul\":8559:8561   */\n      0x20\n        /* \"#utility.yul\":8547:8556   */\n      dup3\n        /* \"#utility.yul\":8538:8545   */\n      dup5\n        /* \"#utility.yul\":8534:8557   */\n      sub\n        /* \"#utility.yul\":8530:8562   */\n      slt\n        /* \"#utility.yul\":8527:8646   */\n      iszero\n      tag_240\n      jumpi\n        /* \"#utility.yul\":8565:8644   */\n      tag_241\n      tag_123\n      jump\t// in\n    tag_241:\n        /* \"#utility.yul\":8527:8646   */\n    tag_240:\n        /* \"#utility.yul\":8685:8686   */\n      0x00\n        /* \"#utility.yul\":8710:8774   */\n      tag_242\n        /* \"#utility.yul\":8766:8773   */\n      dup5\n        /* \"#utility.yul\":8757:8763   */\n      dup3\n        /* \"#utility.yul\":8746:8755   */\n      dup6\n        /* \"#utility.yul\":8742:8764   */\n      add\n        /* \"#utility.yul\":8710:8774   */\n      tag_148\n      jump\t// in\n    tag_242:\n        /* \"#utility.yul\":8700:8774   */\n      swap2\n      pop\n        /* \"#utility.yul\":8656:8784   */\n      pop\n        /* \"#utility.yul\":8440:8791   */\n      swap3\n      swap2\n      pop\n      pop\n      jump\t// out\n        /* \"#utility.yul\":8797:9145   */\n    tag_98:\n        /* \"#utility.yul\":8837:8844   */\n      0x00\n        /* \"#utility.yul\":8860:8880   */\n      tag_244\n        /* \"#utility.yul\":8878:8879   */\n      dup3\n        /* \"#utility.yul\":8860:8880   */\n      tag_125\n      jump\t// in\n    tag_244:\n        /* \"#utility.yul\":8855:8880   */\n      swap2\n      pop\n        /* \"#utility.yul\":8894:8914   */\n      tag_245\n        /* \"#utility.yul\":8912:8913   */\n      dup4\n        /* \"#utility.yul\":8894:8914   */\n      tag_125\n      jump\t// in\n    tag_245:\n        /* \"#utility.yul\":8889:8914   */\n      swap3\n      pop\n        /* \"#utility.yul\":9082:9083   */\n      dup2\n        /* \"#utility.yul\":9014:9080   */\n      0xffffffffffffffffffffffffffffffffffffffffffffffffffffffffffffffff\n        /* \"#utility.yul\":9010:9084   */\n      div\n        /* \"#utility.yul\":9007:9008   */\n      dup4\n        /* \"#utility.yul\":9004:9085   */\n      gt\n        /* \"#utility.yul\":8999:9000   */\n      dup3\n        /* \"#utility.yul\":8992:9001   */\n      iszero\n        /* \"#utility.yul\":8985:9002   */\n      iszero\n        /* \"#utility.yul\":8981:9086   */\n      and\n        /* \"#utility.yul\":8978:9109   */\n      iszero\n      tag_246\n      jumpi\n        /* \"#utility.yul\":9089:9107   */\n      tag_247\n      tag_145\n      jump\t// in\n    tag_247:\n        /* \"#utility.yul\":8978:9109   */\n    tag_246:\n        /* \"#utility.yul\":9137:9138   */\n      dup3\n        /* \"#utility.yul\":9134:9135   */\n      dup3\n        /* \"#utility.yul\":9130:9139   */\n      mul\n        /* \"#utility.yul\":9119:9139   */\n      swap1\n      pop\n        /* \"#utility.yul\":8797:9145   */\n      swap3\n      swap2\n      pop\n      pop\n      jump\t// out\n        /* \"#utility.yul\":9151:9456   */\n    tag_105:\n        /* \"#utility.yul\":9191:9194   */\n      0x00\n        /* \"#utility.yul\":9210:9230   */\n      tag_249\n        /* \"#utility.yul\":9228:9229   */\n      dup3\n        /* \"#utility.yul\":9210:9230   */\n      tag_125\n      jump\t// in\n    tag_249:\n        /* \"#utility.yul\":9205:9230   */\n      swap2\n      pop\n        /* \"#utility.yul\":9244:9264   */\n      tag_250\n        /* \"#utility.yul\":9262:9263   */\n      dup4\n        /* \"#utility.yul\":9244:9264   */\n      tag_125\n      jump\t// in\n    tag_250:\n        /* \"#utility.yul\":9239:9264   */\n      swap3\n      pop\n        /* \"#utility.yul\":9398:9399   */\n      dup3\n        /* \"#utility.yul\":9330:9396   */\n      0xffffffffffffffffffffffffffffffffffffffffffffffffffffffffffffffff\n        /* \"#utility.yul\":9326:9400   */\n      sub\n        /* \"#utility.yul\":9323:9324   */\n      dup3\n        /* \"#utility.yul\":9320:9401   */\n      gt\n        /* \"#utility.yul\":9317:9424   */\n      iszero\n      tag_251\n      jumpi\n        /* \"#utility.yul\":9404:9422   */\n      tag_252\n      tag_145\n      jump\t// in\n    tag_252:\n        /* \"#utility.yul\":9317:9424   */\n    tag_251:\n        /* \"#utility.yul\":9448:9449   */\n      dup3\n        /* \"#utility.yul\":9445:9446   */\n      dup3\n        /* \"#utility.yul\":9441:9450   */\n      add\n        /* \"#utility.yul\":9434:9450   */\n      swap1\n      pop\n        /* \"#utility.yul\":9151:9456   */\n      swap3\n      swap2\n      pop\n      pop\n      jump\t// out\n        /* \"#utility.yul\":9462:9642   */\n    tag_108:\n        /* \"#utility.yul\":9510:9587   */\n      0x4e487b7100000000000000000000000000000000000000000000000000000000\n        /* \"#utility.yul\":9507:9508   */\n      0x00\n        /* \"#utility.yul\":9500:9588   */\n      mstore\n        /* \"#utility.yul\":9607:9611   */\n      0x01\n        /* \"#utility.yul\":9604:9605   */\n      0x04\n        /* \"#utility.yul\":9597:9612   */\n      mstore\n        /* \"#utility.yul\":9631:9635   */\n      0x24\n        /* \"#utility.yul\":9628:9629   */\n      0x00\n        /* \"#utility.yul\":9621:9636   */\n      revert\n        /* \"#utility.yul\":9648:9881   */\n    tag_111:\n        /* \"#utility.yul\":9687:9690   */\n      0x00\n        /* \"#utility.yul\":9710:9734   */\n      tag_255\n        /* \"#utility.yul\":9728:9733   */\n      dup3\n        /* \"#utility.yul\":9710:9734   */\n      tag_125\n      jump\t// in\n    tag_255:\n        /* \"#utility.yul\":9701:9734   */\n      swap2\n      pop\n        /* \"#utility.yul\":9756:9822   */\n      0xffffffffffffffffffffffffffffffffffffffffffffffffffffffffffffffff\n        /* \"#utility.yul\":9749:9754   */\n      dup3\n        /* \"#utility.yul\":9746:9823   */\n      sub\n        /* \"#utility.yul\":9743:9846   */\n      tag_256\n      jumpi\n        /* \"#utility.yul\":9826:9844   */\n      tag_257\n      tag_145\n      jump\t// in\n    tag_257:\n        /* \"#utility.yul\":9743:9846   */\n    tag_256:\n        /* \"#utility.yul\":9873:9874   */\n      0x01\n        /* \"#utility.yul\":9866:9871   */\n      dup3\n        /* \"#utility.yul\":9862:9875   */\n      add\n        /* \"#utility.yul\":9855:9875   */\n      swap1\n      pop\n        /* \"#utility.yul\":9648:9881   */\n      swap2\n      swap1\n      pop\n      jump\t// out\n\n    auxdata: 0xa264697066735822122098b70628487c66c32d8152c4d2d81c04ba8c477b2c9de448e3af4263410abefb64736f6c634300080f0033\n}\n",
				"bytecode": {
					"linkReferences": {},
					"object": "608060405234801561001057600080fd5b50336000806101000a81548173ffffffffffffffffffffffffffffffffffffffff021916908373ffffffffffffffffffffffffffffffffffffffff16021790555061118b806100606000396000f3fe60806040526004361061009c5760003560e01c80634c64d36b116100645780634c64d36b1461015e57806355f18c681461019b57806359f7f068146101d95780635c975abb146102025780636d26ec181461022d578063e434a871146102375761009c565b80630562b9f7146100a157806312065fe0146100ca57806316c38b3c146100f55780632e4a47e11461011e5780633ccfd60b14610147575b600080fd5b3480156100ad57600080fd5b506100c860048036038101906100c39190610bef565b610260565b005b3480156100d657600080fd5b506100df6103de565b6040516100ec9190610c2b565b60405180910390f35b34801561010157600080fd5b5061011c60048036038101906101179190610c7e565b6103e6565b005b34801561012a57600080fd5b5061014560048036038101906101409190610d09565b610491565b005b34801561015357600080fd5b5061015c610599565b005b34801561016a57600080fd5b5061018560048036038101906101809190610bef565b6106c2565b6040516101929190610c2b565b60405180910390f35b3480156101a757600080fd5b506101c260048036038101906101bd9190610d74565b6106df565b6040516101d0929190610da1565b60405180910390f35b3480156101e557600080fd5b5061020060048036038101906101fb9190610d09565b610703565b005b34801561020e57600080fd5b5061021761071c565b6040516102249190610dd9565b60405180910390f35b61023561072f565b005b34801561024357600080fd5b5061025e60048036038101906102599190610df4565b6109ad565b005b600060149054906101000a900460ff16156102b0576040517f08c379a00000000000000000000000000000000000000000000000000000000081526004016102a790610e91565b60405180910390fd5b600033905081600160008373ffffffffffffffffffffffffffffffffffffffff1673ffffffffffffffffffffffffffffffffffffffff16815260200190815260200160002060000154101561033a576040517f08c379a000000000000000000000000000000000000000000000000000000000815260040161033190610efd565b60405180910390fd5b8073ffffffffffffffffffffffffffffffffffffffff166108fc839081150290604051600060405180830381858888f19350505050158015610380573d6000803e3d6000fd5b5081600160003373ffffffffffffffffffffffffffffffffffffffff1673ffffffffffffffffffffffffffffffffffffffff16815260200190815260200160002060000160008282546103d39190610f4c565b925050819055505050565b600047905090565b3373ffffffffffffffffffffffffffffffffffffffff1660008054906101000a900473ffffffffffffffffffffffffffffffffffffffff1673ffffffffffffffffffffffffffffffffffffffff1614610474576040517f08c379a000000000000000000000000000000000000000000000000000000000815260040161046b90610fcc565b60405180910390fd5b80600060146101000a81548160ff02191690831515021790555050565b600060149054906101000a900460ff16156104e1576040517f08c379a00000000000000000000000000000000000000000000000000000000081526004016104d890610e91565b60405180910390fd5b8073ffffffffffffffffffffffffffffffffffffffff166108fc3073ffffffffffffffffffffffffffffffffffffffff166312065fe06040518163ffffffff1660e01b8152600401602060405180830381865afa158015610546573d6000803e3d6000fd5b505050506040513d601f19601f8201168201806040525081019061056a9190611001565b9081150290604051600060405180830381858888f19350505050158015610595573d6000803e3d6000fd5b5050565b600060149054906101000a900460ff16156105e9576040517f08c379a00000000000000000000000000000000000000000000000000000000081526004016105e090610e91565b60405180910390fd5b60003390508073ffffffffffffffffffffffffffffffffffffffff166108fc600160003373ffffffffffffffffffffffffffffffffffffffff1673ffffffffffffffffffffffffffffffffffffffff168152602001908152602001600020600001549081150290604051600060405180830381858888f19350505050158015610676573d6000803e3d6000fd5b506000600160003373ffffffffffffffffffffffffffffffffffffffff1673ffffffffffffffffffffffffffffffffffffffff1681526020019081526020016000206000018190555050565b6000670de0b6b3a7640000826106d8919061102e565b9050919050565b60016020528060005260406000206000915090508060000154908060010154905082565b8073ffffffffffffffffffffffffffffffffffffffff16ff5b600060149054906101000a900460ff1681565b600060149054906101000a900460ff161561077f576040517f08c379a000000000000000000000000000000000000000000000000000000000815260040161077690610e91565b60405180910390fd5b600160003373ffffffffffffffffffffffffffffffffffffffff1673ffffffffffffffffffffffffffffffffffffffff168152602001908152602001600020600001543467ffffffffffffffff16600160003373ffffffffffffffffffffffffffffffffffffffff1673ffffffffffffffffffffffffffffffffffffffff1681526020019081526020016000206000015461081a9190611088565b1015610829576108286110de565b5b3467ffffffffffffffff16600160003373ffffffffffffffffffffffffffffffffffffffff1673ffffffffffffffffffffffffffffffffffffffff16815260200190815260200160002060000160008282546108859190611088565b925050819055506000604051806040016040528034815260200142815250905080600160003373ffffffffffffffffffffffffffffffffffffffff1673ffffffffffffffffffffffffffffffffffffffff1681526020019081526020016000206002016000600160003373ffffffffffffffffffffffffffffffffffffffff1673ffffffffffffffffffffffffffffffffffffffff1681526020019081526020016000206001015481526020019081526020016000206000820151816000015560208201518160010155905050600160003373ffffffffffffffffffffffffffffffffffffffff1673ffffffffffffffffffffffffffffffffffffffff16815260200190815260200160002060010160008154809291906109a59061110d565b919050555050565b80600160008473ffffffffffffffffffffffffffffffffffffffff1673ffffffffffffffffffffffffffffffffffffffff168152602001908152602001600020600001541015610a32576040517f08c379a0000000000000000000000000000000000000000000000000000000008152600401610a2990610efd565b60405180910390fd5b3373ffffffffffffffffffffffffffffffffffffffff1660008054906101000a900473ffffffffffffffffffffffffffffffffffffffff1673ffffffffffffffffffffffffffffffffffffffff1614610ac0576040517f08c379a0000000000000000000000000000000000000000000000000000000008152600401610ab790610fcc565b60405180910390fd5b600060149054906101000a900460ff1615610b10576040517f08c379a0000000000000000000000000000000000000000000000000000000008152600401610b0790610e91565b60405180910390fd5b8173ffffffffffffffffffffffffffffffffffffffff166108fc829081150290604051600060405180830381858888f19350505050158015610b56573d6000803e3d6000fd5b5080600160003373ffffffffffffffffffffffffffffffffffffffff1673ffffffffffffffffffffffffffffffffffffffff1681526020019081526020016000206000016000828254610ba99190610f4c565b925050819055505050565b600080fd5b6000819050919050565b610bcc81610bb9565b8114610bd757600080fd5b50565b600081359050610be981610bc3565b92915050565b600060208284031215610c0557610c04610bb4565b5b6000610c1384828501610bda565b91505092915050565b610c2581610bb9565b82525050565b6000602082019050610c406000830184610c1c565b92915050565b60008115159050919050565b610c5b81610c46565b8114610c6657600080fd5b50565b600081359050610c7881610c52565b92915050565b600060208284031215610c9457610c93610bb4565b5b6000610ca284828501610c69565b91505092915050565b600073ffffffffffffffffffffffffffffffffffffffff82169050919050565b6000610cd682610cab565b9050919050565b610ce681610ccb565b8114610cf157600080fd5b50565b600081359050610d0381610cdd565b92915050565b600060208284031215610d1f57610d1e610bb4565b5b6000610d2d84828501610cf4565b91505092915050565b6000610d4182610cab565b9050919050565b610d5181610d36565b8114610d5c57600080fd5b50565b600081359050610d6e81610d48565b92915050565b600060208284031215610d8a57610d89610bb4565b5b6000610d9884828501610d5f565b91505092915050565b6000604082019050610db66000830185610c1c565b610dc36020830184610c1c565b9392505050565b610dd381610c46565b82525050565b6000602082019050610dee6000830184610dca565b92915050565b60008060408385031215610e0b57610e0a610bb4565b5b6000610e1985828601610cf4565b9250506020610e2a85828601610bda565b9150509250929050565b600082825260208201905092915050565b7f5061757365640000000000000000000000000000000000000000000000000000600082015250565b6000610e7b600683610e34565b9150610e8682610e45565b602082019050919050565b60006020820190508181036000830152610eaa81610e6e565b9050919050565b7f4e6f7420456e6f7567682046756e647300000000000000000000000000000000600082015250565b6000610ee7601083610e34565b9150610ef282610eb1565b602082019050919050565b60006020820190508181036000830152610f1681610eda565b9050919050565b7f4e487b7100000000000000000000000000000000000000000000000000000000600052601160045260246000fd5b6000610f5782610bb9565b9150610f6283610bb9565b925082821015610f7557610f74610f1d565b5b828203905092915050565b7f596f7520417265204e6f74204f776e6572000000000000000000000000000000600082015250565b6000610fb6601183610e34565b9150610fc182610f80565b602082019050919050565b60006020820190508181036000830152610fe581610fa9565b9050919050565b600081519050610ffb81610bc3565b92915050565b60006020828403121561101757611016610bb4565b5b600061102584828501610fec565b91505092915050565b600061103982610bb9565b915061104483610bb9565b9250817fffffffffffffffffffffffffffffffffffffffffffffffffffffffffffffffff048311821515161561107d5761107c610f1d565b5b828202905092915050565b600061109382610bb9565b915061109e83610bb9565b9250827fffffffffffffffffffffffffffffffffffffffffffffffffffffffffffffffff038211156110d3576110d2610f1d565b5b828201905092915050565b7f4e487b7100000000000000000000000000000000000000000000000000000000600052600160045260246000fd5b600061111882610bb9565b91507fffffffffffffffffffffffffffffffffffffffffffffffffffffffffffffffff820361114a57611149610f1d565b5b60018201905091905056fea264697066735822122098b70628487c66c32d8152c4d2d81c04ba8c477b2c9de448e3af4263410abefb64736f6c634300080f0033",
					"opcodes": "PUSH1 0x80 PUSH1 0x40 MSTORE CALLVALUE DUP1 ISZERO PUSH2 0x10 JUMPI PUSH1 0x0 DUP1 REVERT JUMPDEST POP CALLER PUSH1 0x0 DUP1 PUSH2 0x100 EXP DUP2 SLOAD DUP2 PUSH20 0xFFFFFFFFFFFFFFFFFFFFFFFFFFFFFFFFFFFFFFFF MUL NOT AND SWAP1 DUP4 PUSH20 0xFFFFFFFFFFFFFFFFFFFFFFFFFFFFFFFFFFFFFFFF AND MUL OR SWAP1 SSTORE POP PUSH2 0x118B DUP1 PUSH2 0x60 PUSH1 0x0 CODECOPY PUSH1 0x0 RETURN INVALID PUSH1 0x80 PUSH1 0x40 MSTORE PUSH1 0x4 CALLDATASIZE LT PUSH2 0x9C JUMPI PUSH1 0x0 CALLDATALOAD PUSH1 0xE0 SHR DUP1 PUSH4 0x4C64D36B GT PUSH2 0x64 JUMPI DUP1 PUSH4 0x4C64D36B EQ PUSH2 0x15E JUMPI DUP1 PUSH4 0x55F18C68 EQ PUSH2 0x19B JUMPI DUP1 PUSH4 0x59F7F068 EQ PUSH2 0x1D9 JUMPI DUP1 PUSH4 0x5C975ABB EQ PUSH2 0x202 JUMPI DUP1 PUSH4 0x6D26EC18 EQ PUSH2 0x22D JUMPI DUP1 PUSH4 0xE434A871 EQ PUSH2 0x237 JUMPI PUSH2 0x9C JUMP JUMPDEST DUP1 PUSH4 0x562B9F7 EQ PUSH2 0xA1 JUMPI DUP1 PUSH4 0x12065FE0 EQ PUSH2 0xCA JUMPI DUP1 PUSH4 0x16C38B3C EQ PUSH2 0xF5 JUMPI DUP1 PUSH4 0x2E4A47E1 EQ PUSH2 0x11E JUMPI DUP1 PUSH4 0x3CCFD60B EQ PUSH2 0x147 JUMPI JUMPDEST PUSH1 0x0 DUP1 REVERT JUMPDEST CALLVALUE DUP1 ISZERO PUSH2 0xAD JUMPI PUSH1 0x0 DUP1 REVERT JUMPDEST POP PUSH2 0xC8 PUSH1 0x4 DUP1 CALLDATASIZE SUB DUP2 ADD SWAP1 PUSH2 0xC3 SWAP2 SWAP1 PUSH2 0xBEF JUMP JUMPDEST PUSH2 0x260 JUMP JUMPDEST STOP JUMPDEST CALLVALUE DUP1 ISZERO PUSH2 0xD6 JUMPI PUSH1 0x0 DUP1 REVERT JUMPDEST POP PUSH2 0xDF PUSH2 0x3DE JUMP JUMPDEST PUSH1 0x40 MLOAD PUSH2 0xEC SWAP2 SWAP1 PUSH2 0xC2B JUMP JUMPDEST PUSH1 0x40 MLOAD DUP1 SWAP2 SUB SWAP1 RETURN JUMPDEST CALLVALUE DUP1 ISZERO PUSH2 0x101 JUMPI PUSH1 0x0 DUP1 REVERT JUMPDEST POP PUSH2 0x11C PUSH1 0x4 DUP1 CALLDATASIZE SUB DUP2 ADD SWAP1 PUSH2 0x117 SWAP2 SWAP1 PUSH2 0xC7E JUMP JUMPDEST PUSH2 0x3E6 JUMP JUMPDEST STOP JUMPDEST CALLVALUE DUP1 ISZERO PUSH2 0x12A JUMPI PUSH1 0x0 DUP1 REVERT JUMPDEST POP PUSH2 0x145 PUSH1 0x4 DUP1 CALLDATASIZE SUB DUP2 ADD SWAP1 PUSH2 0x140 SWAP2 SWAP1 PUSH2 0xD09 JUMP JUMPDEST PUSH2 0x491 JUMP JUMPDEST STOP JUMPDEST CALLVALUE DUP1 ISZERO PUSH2 0x153 JUMPI PUSH1 0x0 DUP1 REVERT JUMPDEST POP PUSH2 0x15C PUSH2 0x599 JUMP JUMPDEST STOP JUMPDEST CALLVALUE DUP1 ISZERO PUSH2 0x16A JUMPI PUSH1 0x0 DUP1 REVERT JUMPDEST POP PUSH2 0x185 PUSH1 0x4 DUP1 CALLDATASIZE SUB DUP2 ADD SWAP1 PUSH2 0x180 SWAP2 SWAP1 PUSH2 0xBEF JUMP JUMPDEST PUSH2 0x6C2 JUMP JUMPDEST PUSH1 0x40 MLOAD PUSH2 0x192 SWAP2 SWAP1 PUSH2 0xC2B JUMP JUMPDEST PUSH1 0x40 MLOAD DUP1 SWAP2 SUB SWAP1 RETURN JUMPDEST CALLVALUE DUP1 ISZERO PUSH2 0x1A7 JUMPI PUSH1 0x0 DUP1 REVERT JUMPDEST POP PUSH2 0x1C2 PUSH1 0x4 DUP1 CALLDATASIZE SUB DUP2 ADD SWAP1 PUSH2 0x1BD SWAP2 SWAP1 PUSH2 0xD74 JUMP JUMPDEST PUSH2 0x6DF JUMP JUMPDEST PUSH1 0x40 MLOAD PUSH2 0x1D0 SWAP3 SWAP2 SWAP1 PUSH2 0xDA1 JUMP JUMPDEST PUSH1 0x40 MLOAD DUP1 SWAP2 SUB SWAP1 RETURN JUMPDEST CALLVALUE DUP1 ISZERO PUSH2 0x1E5 JUMPI PUSH1 0x0 DUP1 REVERT JUMPDEST POP PUSH2 0x200 PUSH1 0x4 DUP1 CALLDATASIZE SUB DUP2 ADD SWAP1 PUSH2 0x1FB SWAP2 SWAP1 PUSH2 0xD09 JUMP JUMPDEST PUSH2 0x703 JUMP JUMPDEST STOP JUMPDEST CALLVALUE DUP1 ISZERO PUSH2 0x20E JUMPI PUSH1 0x0 DUP1 REVERT JUMPDEST POP PUSH2 0x217 PUSH2 0x71C JUMP JUMPDEST PUSH1 0x40 MLOAD PUSH2 0x224 SWAP2 SWAP1 PUSH2 0xDD9 JUMP JUMPDEST PUSH1 0x40 MLOAD DUP1 SWAP2 SUB SWAP1 RETURN JUMPDEST PUSH2 0x235 PUSH2 0x72F JUMP JUMPDEST STOP JUMPDEST CALLVALUE DUP1 ISZERO PUSH2 0x243 JUMPI PUSH1 0x0 DUP1 REVERT JUMPDEST POP PUSH2 0x25E PUSH1 0x4 DUP1 CALLDATASIZE SUB DUP2 ADD SWAP1 PUSH2 0x259 SWAP2 SWAP1 PUSH2 0xDF4 JUMP JUMPDEST PUSH2 0x9AD JUMP JUMPDEST STOP JUMPDEST PUSH1 0x0 PUSH1 0x14 SWAP1 SLOAD SWAP1 PUSH2 0x100 EXP SWAP1 DIV PUSH1 0xFF AND ISZERO PUSH2 0x2B0 JUMPI PUSH1 0x40 MLOAD PUSH32 0x8C379A000000000000000000000000000000000000000000000000000000000 DUP2 MSTORE PUSH1 0x4 ADD PUSH2 0x2A7 SWAP1 PUSH2 0xE91 JUMP JUMPDEST PUSH1 0x40 MLOAD DUP1 SWAP2 SUB SWAP1 REVERT JUMPDEST PUSH1 0x0 CALLER SWAP1 POP DUP2 PUSH1 0x1 PUSH1 0x0 DUP4 PUSH20 0xFFFFFFFFFFFFFFFFFFFFFFFFFFFFFFFFFFFFFFFF AND PUSH20 0xFFFFFFFFFFFFFFFFFFFFFFFFFFFFFFFFFFFFFFFF AND DUP2 MSTORE PUSH1 0x20 ADD SWAP1 DUP2 MSTORE PUSH1 0x20 ADD PUSH1 0x0 KECCAK256 PUSH1 0x0 ADD SLOAD LT ISZERO PUSH2 0x33A JUMPI PUSH1 0x40 MLOAD PUSH32 0x8C379A000000000000000000000000000000000000000000000000000000000 DUP2 MSTORE PUSH1 0x4 ADD PUSH2 0x331 SWAP1 PUSH2 0xEFD JUMP JUMPDEST PUSH1 0x40 MLOAD DUP1 SWAP2 SUB SWAP1 REVERT JUMPDEST DUP1 PUSH20 0xFFFFFFFFFFFFFFFFFFFFFFFFFFFFFFFFFFFFFFFF AND PUSH2 0x8FC DUP4 SWAP1 DUP2 ISZERO MUL SWAP1 PUSH1 0x40 MLOAD PUSH1 0x0 PUSH1 0x40 MLOAD DUP1 DUP4 SUB DUP2 DUP6 DUP9 DUP9 CALL SWAP4 POP POP POP POP ISZERO DUP1 ISZERO PUSH2 0x380 JUMPI RETURNDATASIZE PUSH1 0x0 DUP1 RETURNDATACOPY RETURNDATASIZE PUSH1 0x0 REVERT JUMPDEST POP DUP2 PUSH1 0x1 PUSH1 0x0 CALLER PUSH20 0xFFFFFFFFFFFFFFFFFFFFFFFFFFFFFFFFFFFFFFFF AND PUSH20 0xFFFFFFFFFFFFFFFFFFFFFFFFFFFFFFFFFFFFFFFF AND DUP2 MSTORE PUSH1 0x20 ADD SWAP1 DUP2 MSTORE PUSH1 0x20 ADD PUSH1 0x0 KECCAK256 PUSH1 0x0 ADD PUSH1 0x0 DUP3 DUP3 SLOAD PUSH2 0x3D3 SWAP2 SWAP1 PUSH2 0xF4C JUMP JUMPDEST SWAP3 POP POP DUP2 SWAP1 SSTORE POP POP POP JUMP JUMPDEST PUSH1 0x0 SELFBALANCE SWAP1 POP SWAP1 JUMP JUMPDEST CALLER PUSH20 0xFFFFFFFFFFFFFFFFFFFFFFFFFFFFFFFFFFFFFFFF AND PUSH1 0x0 DUP1 SLOAD SWAP1 PUSH2 0x100 EXP SWAP1 DIV PUSH20 0xFFFFFFFFFFFFFFFFFFFFFFFFFFFFFFFFFFFFFFFF AND PUSH20 0xFFFFFFFFFFFFFFFFFFFFFFFFFFFFFFFFFFFFFFFF AND EQ PUSH2 0x474 JUMPI PUSH1 0x40 MLOAD PUSH32 0x8C379A000000000000000000000000000000000000000000000000000000000 DUP2 MSTORE PUSH1 0x4 ADD PUSH2 0x46B SWAP1 PUSH2 0xFCC JUMP JUMPDEST PUSH1 0x40 MLOAD DUP1 SWAP2 SUB SWAP1 REVERT JUMPDEST DUP1 PUSH1 0x0 PUSH1 0x14 PUSH2 0x100 EXP DUP2 SLOAD DUP2 PUSH1 0xFF MUL NOT AND SWAP1 DUP4 ISZERO ISZERO MUL OR SWAP1 SSTORE POP POP JUMP JUMPDEST PUSH1 0x0 PUSH1 0x14 SWAP1 SLOAD SWAP1 PUSH2 0x100 EXP SWAP1 DIV PUSH1 0xFF AND ISZERO PUSH2 0x4E1 JUMPI PUSH1 0x40 MLOAD PUSH32 0x8C379A000000000000000000000000000000000000000000000000000000000 DUP2 MSTORE PUSH1 0x4 ADD PUSH2 0x4D8 SWAP1 PUSH2 0xE91 JUMP JUMPDEST PUSH1 0x40 MLOAD DUP1 SWAP2 SUB SWAP1 REVERT JUMPDEST DUP1 PUSH20 0xFFFFFFFFFFFFFFFFFFFFFFFFFFFFFFFFFFFFFFFF AND PUSH2 0x8FC ADDRESS PUSH20 0xFFFFFFFFFFFFFFFFFFFFFFFFFFFFFFFFFFFFFFFF AND PUSH4 0x12065FE0 PUSH1 0x40 MLOAD DUP2 PUSH4 0xFFFFFFFF AND PUSH1 0xE0 SHL DUP2 MSTORE PUSH1 0x4 ADD PUSH1 0x20 PUSH1 0x40 MLOAD DUP1 DUP4 SUB DUP2 DUP7 GAS STATICCALL ISZERO DUP1 ISZERO PUSH2 0x546 JUMPI RETURNDATASIZE PUSH1 0x0 DUP1 RETURNDATACOPY RETURNDATASIZE PUSH1 0x0 REVERT JUMPDEST POP POP POP POP PUSH1 0x40 MLOAD RETURNDATASIZE PUSH1 0x1F NOT PUSH1 0x1F DUP3 ADD AND DUP3 ADD DUP1 PUSH1 0x40 MSTORE POP DUP2 ADD SWAP1 PUSH2 0x56A SWAP2 SWAP1 PUSH2 0x1001 JUMP JUMPDEST SWAP1 DUP2 ISZERO MUL SWAP1 PUSH1 0x40 MLOAD PUSH1 0x0 PUSH1 0x40 MLOAD DUP1 DUP4 SUB DUP2 DUP6 DUP9 DUP9 CALL SWAP4 POP POP POP POP ISZERO DUP1 ISZERO PUSH2 0x595 JUMPI RETURNDATASIZE PUSH1 0x0 DUP1 RETURNDATACOPY RETURNDATASIZE PUSH1 0x0 REVERT JUMPDEST POP POP JUMP JUMPDEST PUSH1 0x0 PUSH1 0x14 SWAP1 SLOAD SWAP1 PUSH2 0x100 EXP SWAP1 DIV PUSH1 0xFF AND ISZERO PUSH2 0x5E9 JUMPI PUSH1 0x40 MLOAD PUSH32 0x8C379A000000000000000000000000000000000000000000000000000000000 DUP2 MSTORE PUSH1 0x4 ADD PUSH2 0x5E0 SWAP1 PUSH2 0xE91 JUMP JUMPDEST PUSH1 0x40 MLOAD DUP1 SWAP2 SUB SWAP1 REVERT JUMPDEST PUSH1 0x0 CALLER SWAP1 POP DUP1 PUSH20 0xFFFFFFFFFFFFFFFFFFFFFFFFFFFFFFFFFFFFFFFF AND PUSH2 0x8FC PUSH1 0x1 PUSH1 0x0 CALLER PUSH20 0xFFFFFFFFFFFFFFFFFFFFFFFFFFFFFFFFFFFFFFFF AND PUSH20 0xFFFFFFFFFFFFFFFFFFFFFFFFFFFFFFFFFFFFFFFF AND DUP2 MSTORE PUSH1 0x20 ADD SWAP1 DUP2 MSTORE PUSH1 0x20 ADD PUSH1 0x0 KECCAK256 PUSH1 0x0 ADD SLOAD SWAP1 DUP2 ISZERO MUL SWAP1 PUSH1 0x40 MLOAD PUSH1 0x0 PUSH1 0x40 MLOAD DUP1 DUP4 SUB DUP2 DUP6 DUP9 DUP9 CALL SWAP4 POP POP POP POP ISZERO DUP1 ISZERO PUSH2 0x676 JUMPI RETURNDATASIZE PUSH1 0x0 DUP1 RETURNDATACOPY RETURNDATASIZE PUSH1 0x0 REVERT JUMPDEST POP PUSH1 0x0 PUSH1 0x1 PUSH1 0x0 CALLER PUSH20 0xFFFFFFFFFFFFFFFFFFFFFFFFFFFFFFFFFFFFFFFF AND PUSH20 0xFFFFFFFFFFFFFFFFFFFFFFFFFFFFFFFFFFFFFFFF AND DUP2 MSTORE PUSH1 0x20 ADD SWAP1 DUP2 MSTORE PUSH1 0x20 ADD PUSH1 0x0 KECCAK256 PUSH1 0x0 ADD DUP2 SWAP1 SSTORE POP POP JUMP JUMPDEST PUSH1 0x0 PUSH8 0xDE0B6B3A7640000 DUP3 PUSH2 0x6D8 SWAP2 SWAP1 PUSH2 0x102E JUMP JUMPDEST SWAP1 POP SWAP2 SWAP1 POP JUMP JUMPDEST PUSH1 0x1 PUSH1 0x20 MSTORE DUP1 PUSH1 0x0 MSTORE PUSH1 0x40 PUSH1 0x0 KECCAK256 PUSH1 0x0 SWAP2 POP SWAP1 POP DUP1 PUSH1 0x0 ADD SLOAD SWAP1 DUP1 PUSH1 0x1 ADD SLOAD SWAP1 POP DUP3 JUMP JUMPDEST DUP1 PUSH20 0xFFFFFFFFFFFFFFFFFFFFFFFFFFFFFFFFFFFFFFFF AND SELFDESTRUCT JUMPDEST PUSH1 0x0 PUSH1 0x14 SWAP1 SLOAD SWAP1 PUSH2 0x100 EXP SWAP1 DIV PUSH1 0xFF AND DUP2 JUMP JUMPDEST PUSH1 0x0 PUSH1 0x14 SWAP1 SLOAD SWAP1 PUSH2 0x100 EXP SWAP1 DIV PUSH1 0xFF AND ISZERO PUSH2 0x77F JUMPI PUSH1 0x40 MLOAD PUSH32 0x8C379A000000000000000000000000000000000000000000000000000000000 DUP2 MSTORE PUSH1 0x4 ADD PUSH2 0x776 SWAP1 PUSH2 0xE91 JUMP JUMPDEST PUSH1 0x40 MLOAD DUP1 SWAP2 SUB SWAP1 REVERT JUMPDEST PUSH1 0x1 PUSH1 0x0 CALLER PUSH20 0xFFFFFFFFFFFFFFFFFFFFFFFFFFFFFFFFFFFFFFFF AND PUSH20 0xFFFFFFFFFFFFFFFFFFFFFFFFFFFFFFFFFFFFFFFF AND DUP2 MSTORE PUSH1 0x20 ADD SWAP1 DUP2 MSTORE PUSH1 0x20 ADD PUSH1 0x0 KECCAK256 PUSH1 0x0 ADD SLOAD CALLVALUE PUSH8 0xFFFFFFFFFFFFFFFF AND PUSH1 0x1 PUSH1 0x0 CALLER PUSH20 0xFFFFFFFFFFFFFFFFFFFFFFFFFFFFFFFFFFFFFFFF AND PUSH20 0xFFFFFFFFFFFFFFFFFFFFFFFFFFFFFFFFFFFFFFFF AND DUP2 MSTORE PUSH1 0x20 ADD SWAP1 DUP2 MSTORE PUSH1 0x20 ADD PUSH1 0x0 KECCAK256 PUSH1 0x0 ADD SLOAD PUSH2 0x81A SWAP2 SWAP1 PUSH2 0x1088 JUMP JUMPDEST LT ISZERO PUSH2 0x829 JUMPI PUSH2 0x828 PUSH2 0x10DE JUMP JUMPDEST JUMPDEST CALLVALUE PUSH8 0xFFFFFFFFFFFFFFFF AND PUSH1 0x1 PUSH1 0x0 CALLER PUSH20 0xFFFFFFFFFFFFFFFFFFFFFFFFFFFFFFFFFFFFFFFF AND PUSH20 0xFFFFFFFFFFFFFFFFFFFFFFFFFFFFFFFFFFFFFFFF AND DUP2 MSTORE PUSH1 0x20 ADD SWAP1 DUP2 MSTORE PUSH1 0x20 ADD PUSH1 0x0 KECCAK256 PUSH1 0x0 ADD PUSH1 0x0 DUP3 DUP3 SLOAD PUSH2 0x885 SWAP2 SWAP1 PUSH2 0x1088 JUMP JUMPDEST SWAP3 POP POP DUP2 SWAP1 SSTORE POP PUSH1 0x0 PUSH1 0x40 MLOAD DUP1 PUSH1 0x40 ADD PUSH1 0x40 MSTORE DUP1 CALLVALUE DUP2 MSTORE PUSH1 0x20 ADD TIMESTAMP DUP2 MSTORE POP SWAP1 POP DUP1 PUSH1 0x1 PUSH1 0x0 CALLER PUSH20 0xFFFFFFFFFFFFFFFFFFFFFFFFFFFFFFFFFFFFFFFF AND PUSH20 0xFFFFFFFFFFFFFFFFFFFFFFFFFFFFFFFFFFFFFFFF AND DUP2 MSTORE PUSH1 0x20 ADD SWAP1 DUP2 MSTORE PUSH1 0x20 ADD PUSH1 0x0 KECCAK256 PUSH1 0x2 ADD PUSH1 0x0 PUSH1 0x1 PUSH1 0x0 CALLER PUSH20 0xFFFFFFFFFFFFFFFFFFFFFFFFFFFFFFFFFFFFFFFF AND PUSH20 0xFFFFFFFFFFFFFFFFFFFFFFFFFFFFFFFFFFFFFFFF AND DUP2 MSTORE PUSH1 0x20 ADD SWAP1 DUP2 MSTORE PUSH1 0x20 ADD PUSH1 0x0 KECCAK256 PUSH1 0x1 ADD SLOAD DUP2 MSTORE PUSH1 0x20 ADD SWAP1 DUP2 MSTORE PUSH1 0x20 ADD PUSH1 0x0 KECCAK256 PUSH1 0x0 DUP3 ADD MLOAD DUP2 PUSH1 0x0 ADD SSTORE PUSH1 0x20 DUP3 ADD MLOAD DUP2 PUSH1 0x1 ADD SSTORE SWAP1 POP POP PUSH1 0x1 PUSH1 0x0 CALLER PUSH20 0xFFFFFFFFFFFFFFFFFFFFFFFFFFFFFFFFFFFFFFFF AND PUSH20 0xFFFFFFFFFFFFFFFFFFFFFFFFFFFFFFFFFFFFFFFF AND DUP2 MSTORE PUSH1 0x20 ADD SWAP1 DUP2 MSTORE PUSH1 0x20 ADD PUSH1 0x0 KECCAK256 PUSH1 0x1 ADD PUSH1 0x0 DUP2 SLOAD DUP1 SWAP3 SWAP2 SWAP1 PUSH2 0x9A5 SWAP1 PUSH2 0x110D JUMP JUMPDEST SWAP2 SWAP1 POP SSTORE POP POP JUMP JUMPDEST DUP1 PUSH1 0x1 PUSH1 0x0 DUP5 PUSH20 0xFFFFFFFFFFFFFFFFFFFFFFFFFFFFFFFFFFFFFFFF AND PUSH20 0xFFFFFFFFFFFFFFFFFFFFFFFFFFFFFFFFFFFFFFFF AND DUP2 MSTORE PUSH1 0x20 ADD SWAP1 DUP2 MSTORE PUSH1 0x20 ADD PUSH1 0x0 KECCAK256 PUSH1 0x0 ADD SLOAD LT ISZERO PUSH2 0xA32 JUMPI PUSH1 0x40 MLOAD PUSH32 0x8C379A000000000000000000000000000000000000000000000000000000000 DUP2 MSTORE PUSH1 0x4 ADD PUSH2 0xA29 SWAP1 PUSH2 0xEFD JUMP JUMPDEST PUSH1 0x40 MLOAD DUP1 SWAP2 SUB SWAP1 REVERT JUMPDEST CALLER PUSH20 0xFFFFFFFFFFFFFFFFFFFFFFFFFFFFFFFFFFFFFFFF AND PUSH1 0x0 DUP1 SLOAD SWAP1 PUSH2 0x100 EXP SWAP1 DIV PUSH20 0xFFFFFFFFFFFFFFFFFFFFFFFFFFFFFFFFFFFFFFFF AND PUSH20 0xFFFFFFFFFFFFFFFFFFFFFFFFFFFFFFFFFFFFFFFF AND EQ PUSH2 0xAC0 JUMPI PUSH1 0x40 MLOAD PUSH32 0x8C379A000000000000000000000000000000000000000000000000000000000 DUP2 MSTORE PUSH1 0x4 ADD PUSH2 0xAB7 SWAP1 PUSH2 0xFCC JUMP JUMPDEST PUSH1 0x40 MLOAD DUP1 SWAP2 SUB SWAP1 REVERT JUMPDEST PUSH1 0x0 PUSH1 0x14 SWAP1 SLOAD SWAP1 PUSH2 0x100 EXP SWAP1 DIV PUSH1 0xFF AND ISZERO PUSH2 0xB10 JUMPI PUSH1 0x40 MLOAD PUSH32 0x8C379A000000000000000000000000000000000000000000000000000000000 DUP2 MSTORE PUSH1 0x4 ADD PUSH2 0xB07 SWAP1 PUSH2 0xE91 JUMP JUMPDEST PUSH1 0x40 MLOAD DUP1 SWAP2 SUB SWAP1 REVERT JUMPDEST DUP2 PUSH20 0xFFFFFFFFFFFFFFFFFFFFFFFFFFFFFFFFFFFFFFFF AND PUSH2 0x8FC DUP3 SWAP1 DUP2 ISZERO MUL SWAP1 PUSH1 0x40 MLOAD PUSH1 0x0 PUSH1 0x40 MLOAD DUP1 DUP4 SUB DUP2 DUP6 DUP9 DUP9 CALL SWAP4 POP POP POP POP ISZERO DUP1 ISZERO PUSH2 0xB56 JUMPI RETURNDATASIZE PUSH1 0x0 DUP1 RETURNDATACOPY RETURNDATASIZE PUSH1 0x0 REVERT JUMPDEST POP DUP1 PUSH1 0x1 PUSH1 0x0 CALLER PUSH20 0xFFFFFFFFFFFFFFFFFFFFFFFFFFFFFFFFFFFFFFFF AND PUSH20 0xFFFFFFFFFFFFFFFFFFFFFFFFFFFFFFFFFFFFFFFF AND DUP2 MSTORE PUSH1 0x20 ADD SWAP1 DUP2 MSTORE PUSH1 0x20 ADD PUSH1 0x0 KECCAK256 PUSH1 0x0 ADD PUSH1 0x0 DUP3 DUP3 SLOAD PUSH2 0xBA9 SWAP2 SWAP1 PUSH2 0xF4C JUMP JUMPDEST SWAP3 POP POP DUP2 SWAP1 SSTORE POP POP POP JUMP JUMPDEST PUSH1 0x0 DUP1 REVERT JUMPDEST PUSH1 0x0 DUP2 SWAP1 POP SWAP2 SWAP1 POP JUMP JUMPDEST PUSH2 0xBCC DUP2 PUSH2 0xBB9 JUMP JUMPDEST DUP2 EQ PUSH2 0xBD7 JUMPI PUSH1 0x0 DUP1 REVERT JUMPDEST POP JUMP JUMPDEST PUSH1 0x0 DUP2 CALLDATALOAD SWAP1 POP PUSH2 0xBE9 DUP2 PUSH2 0xBC3 JUMP JUMPDEST SWAP3 SWAP2 POP POP JUMP JUMPDEST PUSH1 0x0 PUSH1 0x20 DUP3 DUP5 SUB SLT ISZERO PUSH2 0xC05 JUMPI PUSH2 0xC04 PUSH2 0xBB4 JUMP JUMPDEST JUMPDEST PUSH1 0x0 PUSH2 0xC13 DUP5 DUP3 DUP6 ADD PUSH2 0xBDA JUMP JUMPDEST SWAP2 POP POP SWAP3 SWAP2 POP POP JUMP JUMPDEST PUSH2 0xC25 DUP2 PUSH2 0xBB9 JUMP JUMPDEST DUP3 MSTORE POP POP JUMP JUMPDEST PUSH1 0x0 PUSH1 0x20 DUP3 ADD SWAP1 POP PUSH2 0xC40 PUSH1 0x0 DUP4 ADD DUP5 PUSH2 0xC1C JUMP JUMPDEST SWAP3 SWAP2 POP POP JUMP JUMPDEST PUSH1 0x0 DUP2 ISZERO ISZERO SWAP1 POP SWAP2 SWAP1 POP JUMP JUMPDEST PUSH2 0xC5B DUP2 PUSH2 0xC46 JUMP JUMPDEST DUP2 EQ PUSH2 0xC66 JUMPI PUSH1 0x0 DUP1 REVERT JUMPDEST POP JUMP JUMPDEST PUSH1 0x0 DUP2 CALLDATALOAD SWAP1 POP PUSH2 0xC78 DUP2 PUSH2 0xC52 JUMP JUMPDEST SWAP3 SWAP2 POP POP JUMP JUMPDEST PUSH1 0x0 PUSH1 0x20 DUP3 DUP5 SUB SLT ISZERO PUSH2 0xC94 JUMPI PUSH2 0xC93 PUSH2 0xBB4 JUMP JUMPDEST JUMPDEST PUSH1 0x0 PUSH2 0xCA2 DUP5 DUP3 DUP6 ADD PUSH2 0xC69 JUMP JUMPDEST SWAP2 POP POP SWAP3 SWAP2 POP POP JUMP JUMPDEST PUSH1 0x0 PUSH20 0xFFFFFFFFFFFFFFFFFFFFFFFFFFFFFFFFFFFFFFFF DUP3 AND SWAP1 POP SWAP2 SWAP1 POP JUMP JUMPDEST PUSH1 0x0 PUSH2 0xCD6 DUP3 PUSH2 0xCAB JUMP JUMPDEST SWAP1 POP SWAP2 SWAP1 POP JUMP JUMPDEST PUSH2 0xCE6 DUP2 PUSH2 0xCCB JUMP JUMPDEST DUP2 EQ PUSH2 0xCF1 JUMPI PUSH1 0x0 DUP1 REVERT JUMPDEST POP JUMP JUMPDEST PUSH1 0x0 DUP2 CALLDATALOAD SWAP1 POP PUSH2 0xD03 DUP2 PUSH2 0xCDD JUMP JUMPDEST SWAP3 SWAP2 POP POP JUMP JUMPDEST PUSH1 0x0 PUSH1 0x20 DUP3 DUP5 SUB SLT ISZERO PUSH2 0xD1F JUMPI PUSH2 0xD1E PUSH2 0xBB4 JUMP JUMPDEST JUMPDEST PUSH1 0x0 PUSH2 0xD2D DUP5 DUP3 DUP6 ADD PUSH2 0xCF4 JUMP JUMPDEST SWAP2 POP POP SWAP3 SWAP2 POP POP JUMP JUMPDEST PUSH1 0x0 PUSH2 0xD41 DUP3 PUSH2 0xCAB JUMP JUMPDEST SWAP1 POP SWAP2 SWAP1 POP JUMP JUMPDEST PUSH2 0xD51 DUP2 PUSH2 0xD36 JUMP JUMPDEST DUP2 EQ PUSH2 0xD5C JUMPI PUSH1 0x0 DUP1 REVERT JUMPDEST POP JUMP JUMPDEST PUSH1 0x0 DUP2 CALLDATALOAD SWAP1 POP PUSH2 0xD6E DUP2 PUSH2 0xD48 JUMP JUMPDEST SWAP3 SWAP2 POP POP JUMP JUMPDEST PUSH1 0x0 PUSH1 0x20 DUP3 DUP5 SUB SLT ISZERO PUSH2 0xD8A JUMPI PUSH2 0xD89 PUSH2 0xBB4 JUMP JUMPDEST JUMPDEST PUSH1 0x0 PUSH2 0xD98 DUP5 DUP3 DUP6 ADD PUSH2 0xD5F JUMP JUMPDEST SWAP2 POP POP SWAP3 SWAP2 POP POP JUMP JUMPDEST PUSH1 0x0 PUSH1 0x40 DUP3 ADD SWAP1 POP PUSH2 0xDB6 PUSH1 0x0 DUP4 ADD DUP6 PUSH2 0xC1C JUMP JUMPDEST PUSH2 0xDC3 PUSH1 0x20 DUP4 ADD DUP5 PUSH2 0xC1C JUMP JUMPDEST SWAP4 SWAP3 POP POP POP JUMP JUMPDEST PUSH2 0xDD3 DUP2 PUSH2 0xC46 JUMP JUMPDEST DUP3 MSTORE POP POP JUMP JUMPDEST PUSH1 0x0 PUSH1 0x20 DUP3 ADD SWAP1 POP PUSH2 0xDEE PUSH1 0x0 DUP4 ADD DUP5 PUSH2 0xDCA JUMP JUMPDEST SWAP3 SWAP2 POP POP JUMP JUMPDEST PUSH1 0x0 DUP1 PUSH1 0x40 DUP4 DUP6 SUB SLT ISZERO PUSH2 0xE0B JUMPI PUSH2 0xE0A PUSH2 0xBB4 JUMP JUMPDEST JUMPDEST PUSH1 0x0 PUSH2 0xE19 DUP6 DUP3 DUP7 ADD PUSH2 0xCF4 JUMP JUMPDEST SWAP3 POP POP PUSH1 0x20 PUSH2 0xE2A DUP6 DUP3 DUP7 ADD PUSH2 0xBDA JUMP JUMPDEST SWAP2 POP POP SWAP3 POP SWAP3 SWAP1 POP JUMP JUMPDEST PUSH1 0x0 DUP3 DUP3 MSTORE PUSH1 0x20 DUP3 ADD SWAP1 POP SWAP3 SWAP2 POP POP JUMP JUMPDEST PUSH32 0x5061757365640000000000000000000000000000000000000000000000000000 PUSH1 0x0 DUP3 ADD MSTORE POP JUMP JUMPDEST PUSH1 0x0 PUSH2 0xE7B PUSH1 0x6 DUP4 PUSH2 0xE34 JUMP JUMPDEST SWAP2 POP PUSH2 0xE86 DUP3 PUSH2 0xE45 JUMP JUMPDEST PUSH1 0x20 DUP3 ADD SWAP1 POP SWAP2 SWAP1 POP JUMP JUMPDEST PUSH1 0x0 PUSH1 0x20 DUP3 ADD SWAP1 POP DUP2 DUP2 SUB PUSH1 0x0 DUP4 ADD MSTORE PUSH2 0xEAA DUP2 PUSH2 0xE6E JUMP JUMPDEST SWAP1 POP SWAP2 SWAP1 POP JUMP JUMPDEST PUSH32 0x4E6F7420456E6F7567682046756E647300000000000000000000000000000000 PUSH1 0x0 DUP3 ADD MSTORE POP JUMP JUMPDEST PUSH1 0x0 PUSH2 0xEE7 PUSH1 0x10 DUP4 PUSH2 0xE34 JUMP JUMPDEST SWAP2 POP PUSH2 0xEF2 DUP3 PUSH2 0xEB1 JUMP JUMPDEST PUSH1 0x20 DUP3 ADD SWAP1 POP SWAP2 SWAP1 POP JUMP JUMPDEST PUSH1 0x0 PUSH1 0x20 DUP3 ADD SWAP1 POP DUP2 DUP2 SUB PUSH1 0x0 DUP4 ADD MSTORE PUSH2 0xF16 DUP2 PUSH2 0xEDA JUMP JUMPDEST SWAP1 POP SWAP2 SWAP1 POP JUMP JUMPDEST PUSH32 0x4E487B7100000000000000000000000000000000000000000000000000000000 PUSH1 0x0 MSTORE PUSH1 0x11 PUSH1 0x4 MSTORE PUSH1 0x24 PUSH1 0x0 REVERT JUMPDEST PUSH1 0x0 PUSH2 0xF57 DUP3 PUSH2 0xBB9 JUMP JUMPDEST SWAP2 POP PUSH2 0xF62 DUP4 PUSH2 0xBB9 JUMP JUMPDEST SWAP3 POP DUP3 DUP3 LT ISZERO PUSH2 0xF75 JUMPI PUSH2 0xF74 PUSH2 0xF1D JUMP JUMPDEST JUMPDEST DUP3 DUP3 SUB SWAP1 POP SWAP3 SWAP2 POP POP JUMP JUMPDEST PUSH32 0x596F7520417265204E6F74204F776E6572000000000000000000000000000000 PUSH1 0x0 DUP3 ADD MSTORE POP JUMP JUMPDEST PUSH1 0x0 PUSH2 0xFB6 PUSH1 0x11 DUP4 PUSH2 0xE34 JUMP JUMPDEST SWAP2 POP PUSH2 0xFC1 DUP3 PUSH2 0xF80 JUMP JUMPDEST PUSH1 0x20 DUP3 ADD SWAP1 POP SWAP2 SWAP1 POP JUMP JUMPDEST PUSH1 0x0 PUSH1 0x20 DUP3 ADD SWAP1 POP DUP2 DUP2 SUB PUSH1 0x0 DUP4 ADD MSTORE PUSH2 0xFE5 DUP2 PUSH2 0xFA9 JUMP JUMPDEST SWAP1 POP SWAP2 SWAP1 POP JUMP JUMPDEST PUSH1 0x0 DUP2 MLOAD SWAP1 POP PUSH2 0xFFB DUP2 PUSH2 0xBC3 JUMP JUMPDEST SWAP3 SWAP2 POP POP JUMP JUMPDEST PUSH1 0x0 PUSH1 0x20 DUP3 DUP5 SUB SLT ISZERO PUSH2 0x1017 JUMPI PUSH2 0x1016 PUSH2 0xBB4 JUMP JUMPDEST JUMPDEST PUSH1 0x0 PUSH2 0x1025 DUP5 DUP3 DUP6 ADD PUSH2 0xFEC JUMP JUMPDEST SWAP2 POP POP SWAP3 SWAP2 POP POP JUMP JUMPDEST PUSH1 0x0 PUSH2 0x1039 DUP3 PUSH2 0xBB9 JUMP JUMPDEST SWAP2 POP PUSH2 0x1044 DUP4 PUSH2 0xBB9 JUMP JUMPDEST SWAP3 POP DUP2 PUSH32 0xFFFFFFFFFFFFFFFFFFFFFFFFFFFFFFFFFFFFFFFFFFFFFFFFFFFFFFFFFFFFFFFF DIV DUP4 GT DUP3 ISZERO ISZERO AND ISZERO PUSH2 0x107D JUMPI PUSH2 0x107C PUSH2 0xF1D JUMP JUMPDEST JUMPDEST DUP3 DUP3 MUL SWAP1 POP SWAP3 SWAP2 POP POP JUMP JUMPDEST PUSH1 0x0 PUSH2 0x1093 DUP3 PUSH2 0xBB9 JUMP JUMPDEST SWAP2 POP PUSH2 0x109E DUP4 PUSH2 0xBB9 JUMP JUMPDEST SWAP3 POP DUP3 PUSH32 0xFFFFFFFFFFFFFFFFFFFFFFFFFFFFFFFFFFFFFFFFFFFFFFFFFFFFFFFFFFFFFFFF SUB DUP3 GT ISZERO PUSH2 0x10D3 JUMPI PUSH2 0x10D2 PUSH2 0xF1D JUMP JUMPDEST JUMPDEST DUP3 DUP3 ADD SWAP1 POP SWAP3 SWAP2 POP POP JUMP JUMPDEST PUSH32 0x4E487B7100000000000000000000000000000000000000000000000000000000 PUSH1 0x0 MSTORE PUSH1 0x1 PUSH1 0x4 MSTORE PUSH1 0x24 PUSH1 0x0 REVERT JUMPDEST PUSH1 0x0 PUSH2 0x1118 DUP3 PUSH2 0xBB9 JUMP JUMPDEST SWAP2 POP PUSH32 0xFFFFFFFFFFFFFFFFFFFFFFFFFFFFFFFFFFFFFFFFFFFFFFFFFFFFFFFFFFFFFFFF DUP3 SUB PUSH2 0x114A JUMPI PUSH2 0x1149 PUSH2 0xF1D JUMP JUMPDEST JUMPDEST PUSH1 0x1 DUP3 ADD SWAP1 POP SWAP2 SWAP1 POP JUMP INVALID LOG2 PUSH5 0x6970667358 0x22 SLT KECCAK256 SWAP9 0xB7 MOD 0x28 BASEFEE PUSH29 0x66C32D8152C4D2D81C04BA8C477B2C9DE448E3AF4263410ABEFB64736F PUSH13 0x634300080F0033000000000000 "
				},
				"gasEstimates": {
					"creation": {
						"codeDepositCost": "898200",
						"executionCost": "25201",
						"totalCost": "923401"
					},
					"external": {
						"destroyThis(address)": "28097",
						"getBalance()": "362",
						"paused()": "2587",
						"receiveMoney()": "infinite",
						"senderAddresses(address)": "infinite",
						"setPaused(bool)": "26941",
						"towei(uint256)": "infinite",
						"withdraw()": "infinite",
						"withdrawAmount(uint256)": "infinite",
						"withdrawToAnotherAddress(address)": "infinite",
						"withdrawToAnotherAddressWithAmount(address,uint256)": "infinite"
					}
				},
				"methodIdentifiers": {
					"destroyThis(address)": "59f7f068",
					"getBalance()": "12065fe0",
					"paused()": "5c975abb",
					"receiveMoney()": "6d26ec18",
					"senderAddresses(address)": "55f18c68",
					"setPaused(bool)": "16c38b3c",
					"towei(uint256)": "4c64d36b",
					"withdraw()": "3ccfd60b",
					"withdrawAmount(uint256)": "0562b9f7",
					"withdrawToAnotherAddress(address)": "2e4a47e1",
					"withdrawToAnotherAddressWithAmount(address,uint256)": "e434a871"
				}
			},
			"storageLayout": {
				"storage": [
					{
						"astId": 22,
						"contract": "contracts/Require.sol:Require",
						"label": "owner",
						"offset": 0,
						"slot": "0",
						"type": "t_address"
					},
					{
						"astId": 24,
						"contract": "contracts/Require.sol:Require",
						"label": "paused",
						"offset": 20,
						"slot": "0",
						"type": "t_bool"
					},
					{
						"astId": 29,
						"contract": "contracts/Require.sol:Require",
						"label": "senderAddresses",
						"offset": 0,
						"slot": "1",
						"type": "t_mapping(t_address,t_struct(Balance)20_storage)"
					}
				],
				"types": {
					"t_address": {
						"encoding": "inplace",
						"label": "address",
						"numberOfBytes": "20"
					},
					"t_bool": {
						"encoding": "inplace",
						"label": "bool",
						"numberOfBytes": "1"
					},
					"t_mapping(t_address,t_struct(Balance)20_storage)": {
						"encoding": "mapping",
						"key": "t_address",
						"label": "mapping(address => struct Require.Balance)",
						"numberOfBytes": "32",
						"value": "t_struct(Balance)20_storage"
					},
					"t_mapping(t_uint256,t_struct(Payment)10_storage)": {
						"encoding": "mapping",
						"key": "t_uint256",
						"label": "mapping(uint256 => struct Require.Payment)",
						"numberOfBytes": "32",
						"value": "t_struct(Payment)10_storage"
					},
					"t_struct(Balance)20_storage": {
						"encoding": "inplace",
						"label": "struct Require.Balance",
						"members": [
							{
								"astId": 12,
								"contract": "contracts/Require.sol:Require",
								"label": "totalBalance",
								"offset": 0,
								"slot": "0",
								"type": "t_uint256"
							},
							{
								"astId": 14,
								"contract": "contracts/Require.sol:Require",
								"label": "numPayments",
								"offset": 0,
								"slot": "1",
								"type": "t_uint256"
							},
							{
								"astId": 19,
								"contract": "contracts/Require.sol:Require",
								"label": "payments",
								"offset": 0,
								"slot": "2",
								"type": "t_mapping(t_uint256,t_struct(Payment)10_storage)"
							}
						],
						"numberOfBytes": "96"
					},
					"t_struct(Payment)10_storage": {
						"encoding": "inplace",
						"label": "struct Require.Payment",
						"members": [
							{
								"astId": 7,
								"contract": "contracts/Require.sol:Require",
								"label": "amount",
								"offset": 0,
								"slot": "0",
								"type": "t_uint256"
							},
							{
								"astId": 9,
								"contract": "contracts/Require.sol:Require",
								"label": "time",
								"offset": 0,
								"slot": "1",
								"type": "t_uint256"
							}
						],
						"numberOfBytes": "64"
					},
					"t_uint256": {
						"encoding": "inplace",
						"label": "uint256",
						"numberOfBytes": "32"
					}
				}
			},
			"userdoc": {
				"kind": "user",
				"methods": {},
				"version": 1
			}
		}
	}
}